{
	"contracts/data-type.sol": {
		"DataType": {
			"abi": [
				{
					"inputs": [],
					"name": "increaseUint8",
					"outputs": [],
					"stateMutability": "nonpayable",
					"type": "function"
				},
				{
					"inputs": [],
					"name": "intNumberValue",
					"outputs": [
						{
							"internalType": "int256",
							"name": "",
							"type": "int256"
						}
					],
					"stateMutability": "view",
					"type": "function"
				},
				{
					"inputs": [],
					"name": "isTrue",
					"outputs": [
						{
							"internalType": "bool",
							"name": "",
							"type": "bool"
						}
					],
					"stateMutability": "view",
					"type": "function"
				},
				{
					"inputs": [],
					"name": "number",
					"outputs": [
						{
							"internalType": "uint256",
							"name": "",
							"type": "uint256"
						}
					],
					"stateMutability": "view",
					"type": "function"
				},
				{
					"inputs": [
						{
							"internalType": "bool",
							"name": "_isTrue",
							"type": "bool"
						}
					],
					"name": "setIsTrue",
					"outputs": [],
					"stateMutability": "nonpayable",
					"type": "function"
				},
				{
					"inputs": [
						{
							"internalType": "uint256",
							"name": "_number",
							"type": "uint256"
						}
					],
					"name": "setNumber",
					"outputs": [],
					"stateMutability": "nonpayable",
					"type": "function"
				},
				{
					"inputs": [],
					"name": "uint8Value",
					"outputs": [
						{
							"internalType": "uint8",
							"name": "",
							"type": "uint8"
						}
					],
					"stateMutability": "view",
					"type": "function"
				}
			],
			"devdoc": {
				"kind": "dev",
				"methods": {},
				"version": 1
			},
			"evm": {
				"assembly": "    /* \"contracts/data-type.sol\":61:661  contract DataType {... */\n  mstore(0x40, 0x80)\n    /* \"contracts/data-type.sol\":109:114  false */\n  0x00\n    /* \"contracts/data-type.sol\":88:114  bool public isTrue = false */\n  dup1\n  exp(0x0100, 0x00)\n  dup2\n  sload\n  dup2\n  0xff\n  mul\n  not\n  and\n  swap1\n  dup4\n  iszero\n  iszero\n  mul\n  or\n  swap1\n  sstore\n  pop\n    /* \"contracts/data-type.sol\":185:186  0 */\n  0x00\n    /* \"contracts/data-type.sol\":164:186  uint public number = 0 */\n  0x01\n  sstore\n    /* \"contracts/data-type.sol\":332:335  250 */\n  0xfa\n    /* \"contracts/data-type.sol\":306:335  uint8 public uint8Value = 250 */\n  0x02\n  exp(0x0100, 0x00)\n  dup2\n  sload\n  dup2\n  0xff\n  mul\n  not\n  and\n  swap1\n  dup4\n  0xff\n  and\n  mul\n  or\n  swap1\n  sstore\n  pop\n    /* \"contracts/data-type.sol\":414:417  -10 */\n  0xfffffffffffffffffffffffffffffffffffffffffffffffffffffffffffffff6\n    /* \"contracts/data-type.sol\":386:417  int public intNumberValue = -10 */\n  0x03\n  sstore\n    /* \"contracts/data-type.sol\":61:661  contract DataType {... */\n  callvalue\n  dup1\n  iszero\n  tag_1\n  jumpi\n  0x00\n  dup1\n  revert\ntag_1:\n  pop\n  dataSize(sub_0)\n  dup1\n  dataOffset(sub_0)\n  0x00\n  codecopy\n  0x00\n  return\nstop\n\nsub_0: assembly {\n        /* \"contracts/data-type.sol\":61:661  contract DataType {... */\n      mstore(0x40, 0x80)\n      callvalue\n      dup1\n      iszero\n      tag_1\n      jumpi\n      0x00\n      dup1\n      revert\n    tag_1:\n      pop\n      jumpi(tag_2, lt(calldatasize, 0x04))\n      shr(0xe0, calldataload(0x00))\n      dup1\n      0x5a4a58cc\n      gt\n      tag_10\n      jumpi\n      dup1\n      0x5a4a58cc\n      eq\n      tag_6\n      jumpi\n      dup1\n      0x8381f58a\n      eq\n      tag_7\n      jumpi\n      dup1\n      0xaaef20ea\n      eq\n      tag_8\n      jumpi\n      dup1\n      0xecbbb967\n      eq\n      tag_9\n      jumpi\n      jump(tag_2)\n    tag_10:\n      dup1\n      0x74530a\n      eq\n      tag_3\n      jumpi\n      dup1\n      0x0189c9bd\n      eq\n      tag_4\n      jumpi\n      dup1\n      0x3fb5c1cb\n      eq\n      tag_5\n      jumpi\n    tag_2:\n      0x00\n      dup1\n      revert\n        /* \"contracts/data-type.sol\":88:114  bool public isTrue = false */\n    tag_3:\n      tag_11\n      tag_12\n      jump\t// in\n    tag_11:\n      mload(0x40)\n      tag_13\n      swap2\n      swap1\n      tag_14\n      jump\t// in\n    tag_13:\n      mload(0x40)\n      dup1\n      swap2\n      sub\n      swap1\n      return\n        /* \"contracts/data-type.sol\":386:417  int public intNumberValue = -10 */\n    tag_4:\n      tag_15\n      tag_16\n      jump\t// in\n    tag_15:\n      mload(0x40)\n      tag_17\n      swap2\n      swap1\n      tag_18\n      jump\t// in\n    tag_17:\n      mload(0x40)\n      dup1\n      swap2\n      sub\n      swap1\n      return\n        /* \"contracts/data-type.sol\":509:584  function setNumber(uint _number) public {... */\n    tag_5:\n      tag_19\n      0x04\n      dup1\n      calldatasize\n      sub\n      dup2\n      add\n      swap1\n      tag_20\n      swap2\n      swap1\n      tag_21\n      jump\t// in\n    tag_20:\n      tag_22\n      jump\t// in\n    tag_19:\n      stop\n        /* \"contracts/data-type.sol\":426:501  function setIsTrue(bool _isTrue) public {... */\n    tag_6:\n      tag_23\n      0x04\n      dup1\n      calldatasize\n      sub\n      dup2\n      add\n      swap1\n      tag_24\n      swap2\n      swap1\n      tag_25\n      jump\t// in\n    tag_24:\n      tag_26\n      jump\t// in\n    tag_23:\n      stop\n        /* \"contracts/data-type.sol\":164:186  uint public number = 0 */\n    tag_7:\n      tag_27\n      tag_28\n      jump\t// in\n    tag_27:\n      mload(0x40)\n      tag_29\n      swap2\n      swap1\n      tag_30\n      jump\t// in\n    tag_29:\n      mload(0x40)\n      dup1\n      swap2\n      sub\n      swap1\n      return\n        /* \"contracts/data-type.sol\":306:335  uint8 public uint8Value = 250 */\n    tag_8:\n      tag_31\n      tag_32\n      jump\t// in\n    tag_31:\n      mload(0x40)\n      tag_33\n      swap2\n      swap1\n      tag_34\n      jump\t// in\n    tag_33:\n      mload(0x40)\n      dup1\n      swap2\n      sub\n      swap1\n      return\n        /* \"contracts/data-type.sol\":592:656  function increaseUint8() public  {... */\n    tag_9:\n      tag_35\n      tag_36\n      jump\t// in\n    tag_35:\n      stop\n        /* \"contracts/data-type.sol\":88:114  bool public isTrue = false */\n    tag_12:\n      0x00\n      dup1\n      sload\n      swap1\n      0x0100\n      exp\n      swap1\n      div\n      0xff\n      and\n      dup2\n      jump\t// out\n        /* \"contracts/data-type.sol\":386:417  int public intNumberValue = -10 */\n    tag_16:\n      sload(0x03)\n      dup2\n      jump\t// out\n        /* \"contracts/data-type.sol\":509:584  function setNumber(uint _number) public {... */\n    tag_22:\n        /* \"contracts/data-type.sol\":569:576  _number */\n      dup1\n        /* \"contracts/data-type.sol\":560:566  number */\n      0x01\n        /* \"contracts/data-type.sol\":560:576  number = _number */\n      dup2\n      swap1\n      sstore\n      pop\n        /* \"contracts/data-type.sol\":509:584  function setNumber(uint _number) public {... */\n      pop\n      jump\t// out\n        /* \"contracts/data-type.sol\":426:501  function setIsTrue(bool _isTrue) public {... */\n    tag_26:\n        /* \"contracts/data-type.sol\":486:493  _isTrue */\n      dup1\n        /* \"contracts/data-type.sol\":477:483  isTrue */\n      0x00\n      dup1\n        /* \"contracts/data-type.sol\":477:493  isTrue = _isTrue */\n      0x0100\n      exp\n      dup2\n      sload\n      dup2\n      0xff\n      mul\n      not\n      and\n      swap1\n      dup4\n      iszero\n      iszero\n      mul\n      or\n      swap1\n      sstore\n      pop\n        /* \"contracts/data-type.sol\":426:501  function setIsTrue(bool _isTrue) public {... */\n      pop\n      jump\t// out\n        /* \"contracts/data-type.sol\":164:186  uint public number = 0 */\n    tag_28:\n      sload(0x01)\n      dup2\n      jump\t// out\n        /* \"contracts/data-type.sol\":306:335  uint8 public uint8Value = 250 */\n    tag_32:\n      0x02\n      0x00\n      swap1\n      sload\n      swap1\n      0x0100\n      exp\n      swap1\n      div\n      0xff\n      and\n      dup2\n      jump\t// out\n        /* \"contracts/data-type.sol\":592:656  function increaseUint8() public  {... */\n    tag_36:\n        /* \"contracts/data-type.sol\":636:646  uint8Value */\n      0x02\n      0x00\n        /* \"contracts/data-type.sol\":636:648  uint8Value++ */\n      dup2\n      dup2\n      swap1\n      sload\n      swap1\n      0x0100\n      exp\n      swap1\n      div\n      0xff\n      and\n      dup1\n      swap3\n      swap2\n      swap1\n      tag_40\n      swap1\n      tag_41\n      jump\t// in\n    tag_40:\n      swap2\n      swap1\n      0x0100\n      exp\n      dup2\n      sload\n      dup2\n      0xff\n      mul\n      not\n      and\n      swap1\n      dup4\n      0xff\n      and\n      mul\n      or\n      swap1\n      sstore\n      pop\n      pop\n        /* \"contracts/data-type.sol\":592:656  function increaseUint8() public  {... */\n      jump\t// out\n        /* \"#utility.yul\":7:97   */\n    tag_42:\n        /* \"#utility.yul\":41:48   */\n      0x00\n        /* \"#utility.yul\":84:89   */\n      dup2\n        /* \"#utility.yul\":77:90   */\n      iszero\n        /* \"#utility.yul\":70:91   */\n      iszero\n        /* \"#utility.yul\":59:91   */\n      swap1\n      pop\n        /* \"#utility.yul\":7:97   */\n      swap2\n      swap1\n      pop\n      jump\t// out\n        /* \"#utility.yul\":103:212   */\n    tag_43:\n        /* \"#utility.yul\":184:205   */\n      tag_61\n        /* \"#utility.yul\":199:204   */\n      dup2\n        /* \"#utility.yul\":184:205   */\n      tag_42\n      jump\t// in\n    tag_61:\n        /* \"#utility.yul\":179:182   */\n      dup3\n        /* \"#utility.yul\":172:206   */\n      mstore\n        /* \"#utility.yul\":103:212   */\n      pop\n      pop\n      jump\t// out\n        /* \"#utility.yul\":218:428   */\n    tag_14:\n        /* \"#utility.yul\":305:309   */\n      0x00\n        /* \"#utility.yul\":343:345   */\n      0x20\n        /* \"#utility.yul\":332:341   */\n      dup3\n        /* \"#utility.yul\":328:346   */\n      add\n        /* \"#utility.yul\":320:346   */\n      swap1\n      pop\n        /* \"#utility.yul\":356:421   */\n      tag_63\n        /* \"#utility.yul\":418:419   */\n      0x00\n        /* \"#utility.yul\":407:416   */\n      dup4\n        /* \"#utility.yul\":403:420   */\n      add\n        /* \"#utility.yul\":394:400   */\n      dup5\n        /* \"#utility.yul\":356:421   */\n      tag_43\n      jump\t// in\n    tag_63:\n        /* \"#utility.yul\":218:428   */\n      swap3\n      swap2\n      pop\n      pop\n      jump\t// out\n        /* \"#utility.yul\":434:510   */\n    tag_44:\n        /* \"#utility.yul\":470:477   */\n      0x00\n        /* \"#utility.yul\":499:504   */\n      dup2\n        /* \"#utility.yul\":488:504   */\n      swap1\n      pop\n        /* \"#utility.yul\":434:510   */\n      swap2\n      swap1\n      pop\n      jump\t// out\n        /* \"#utility.yul\":516:631   */\n    tag_45:\n        /* \"#utility.yul\":601:624   */\n      tag_66\n        /* \"#utility.yul\":618:623   */\n      dup2\n        /* \"#utility.yul\":601:624   */\n      tag_44\n      jump\t// in\n    tag_66:\n        /* \"#utility.yul\":596:599   */\n      dup3\n        /* \"#utility.yul\":589:625   */\n      mstore\n        /* \"#utility.yul\":516:631   */\n      pop\n      pop\n      jump\t// out\n        /* \"#utility.yul\":637:855   */\n    tag_18:\n        /* \"#utility.yul\":728:732   */\n      0x00\n        /* \"#utility.yul\":766:768   */\n      0x20\n        /* \"#utility.yul\":755:764   */\n      dup3\n        /* \"#utility.yul\":751:769   */\n      add\n        /* \"#utility.yul\":743:769   */\n      swap1\n      pop\n        /* \"#utility.yul\":779:848   */\n      tag_68\n        /* \"#utility.yul\":845:846   */\n      0x00\n        /* \"#utility.yul\":834:843   */\n      dup4\n        /* \"#utility.yul\":830:847   */\n      add\n        /* \"#utility.yul\":821:827   */\n      dup5\n        /* \"#utility.yul\":779:848   */\n      tag_45\n      jump\t// in\n    tag_68:\n        /* \"#utility.yul\":637:855   */\n      swap3\n      swap2\n      pop\n      pop\n      jump\t// out\n        /* \"#utility.yul\":942:1059   */\n    tag_47:\n        /* \"#utility.yul\":1051:1052   */\n      0x00\n        /* \"#utility.yul\":1048:1049   */\n      dup1\n        /* \"#utility.yul\":1041:1053   */\n      revert\n        /* \"#utility.yul\":1188:1265   */\n    tag_49:\n        /* \"#utility.yul\":1225:1232   */\n      0x00\n        /* \"#utility.yul\":1254:1259   */\n      dup2\n        /* \"#utility.yul\":1243:1259   */\n      swap1\n      pop\n        /* \"#utility.yul\":1188:1265   */\n      swap2\n      swap1\n      pop\n      jump\t// out\n        /* \"#utility.yul\":1271:1393   */\n    tag_50:\n        /* \"#utility.yul\":1344:1368   */\n      tag_74\n        /* \"#utility.yul\":1362:1367   */\n      dup2\n        /* \"#utility.yul\":1344:1368   */\n      tag_49\n      jump\t// in\n    tag_74:\n        /* \"#utility.yul\":1337:1342   */\n      dup2\n        /* \"#utility.yul\":1334:1369   */\n      eq\n        /* \"#utility.yul\":1324:1387   */\n      tag_75\n      jumpi\n        /* \"#utility.yul\":1383:1384   */\n      0x00\n        /* \"#utility.yul\":1380:1381   */\n      dup1\n        /* \"#utility.yul\":1373:1385   */\n      revert\n        /* \"#utility.yul\":1324:1387   */\n    tag_75:\n        /* \"#utility.yul\":1271:1393   */\n      pop\n      jump\t// out\n        /* \"#utility.yul\":1399:1538   */\n    tag_51:\n        /* \"#utility.yul\":1445:1450   */\n      0x00\n        /* \"#utility.yul\":1483:1489   */\n      dup2\n        /* \"#utility.yul\":1470:1490   */\n      calldataload\n        /* \"#utility.yul\":1461:1490   */\n      swap1\n      pop\n        /* \"#utility.yul\":1499:1532   */\n      tag_77\n        /* \"#utility.yul\":1526:1531   */\n      dup2\n        /* \"#utility.yul\":1499:1532   */\n      tag_50\n      jump\t// in\n    tag_77:\n        /* \"#utility.yul\":1399:1538   */\n      swap3\n      swap2\n      pop\n      pop\n      jump\t// out\n        /* \"#utility.yul\":1544:1873   */\n    tag_21:\n        /* \"#utility.yul\":1603:1609   */\n      0x00\n        /* \"#utility.yul\":1652:1654   */\n      0x20\n        /* \"#utility.yul\":1640:1649   */\n      dup3\n        /* \"#utility.yul\":1631:1638   */\n      dup5\n        /* \"#utility.yul\":1627:1650   */\n      sub\n        /* \"#utility.yul\":1623:1655   */\n      slt\n        /* \"#utility.yul\":1620:1739   */\n      iszero\n      tag_79\n      jumpi\n        /* \"#utility.yul\":1658:1737   */\n      tag_80\n      tag_47\n      jump\t// in\n    tag_80:\n        /* \"#utility.yul\":1620:1739   */\n    tag_79:\n        /* \"#utility.yul\":1778:1779   */\n      0x00\n        /* \"#utility.yul\":1803:1856   */\n      tag_81\n        /* \"#utility.yul\":1848:1855   */\n      dup5\n        /* \"#utility.yul\":1839:1845   */\n      dup3\n        /* \"#utility.yul\":1828:1837   */\n      dup6\n        /* \"#utility.yul\":1824:1846   */\n      add\n        /* \"#utility.yul\":1803:1856   */\n      tag_51\n      jump\t// in\n    tag_81:\n        /* \"#utility.yul\":1793:1856   */\n      swap2\n      pop\n        /* \"#utility.yul\":1749:1866   */\n      pop\n        /* \"#utility.yul\":1544:1873   */\n      swap3\n      swap2\n      pop\n      pop\n      jump\t// out\n        /* \"#utility.yul\":1879:1995   */\n    tag_52:\n        /* \"#utility.yul\":1949:1970   */\n      tag_83\n        /* \"#utility.yul\":1964:1969   */\n      dup2\n        /* \"#utility.yul\":1949:1970   */\n      tag_42\n      jump\t// in\n    tag_83:\n        /* \"#utility.yul\":1942:1947   */\n      dup2\n        /* \"#utility.yul\":1939:1971   */\n      eq\n        /* \"#utility.yul\":1929:1989   */\n      tag_84\n      jumpi\n        /* \"#utility.yul\":1985:1986   */\n      0x00\n        /* \"#utility.yul\":1982:1983   */\n      dup1\n        /* \"#utility.yul\":1975:1987   */\n      revert\n        /* \"#utility.yul\":1929:1989   */\n    tag_84:\n        /* \"#utility.yul\":1879:1995   */\n      pop\n      jump\t// out\n        /* \"#utility.yul\":2001:2134   */\n    tag_53:\n        /* \"#utility.yul\":2044:2049   */\n      0x00\n        /* \"#utility.yul\":2082:2088   */\n      dup2\n        /* \"#utility.yul\":2069:2089   */\n      calldataload\n        /* \"#utility.yul\":2060:2089   */\n      swap1\n      pop\n        /* \"#utility.yul\":2098:2128   */\n      tag_86\n        /* \"#utility.yul\":2122:2127   */\n      dup2\n        /* \"#utility.yul\":2098:2128   */\n      tag_52\n      jump\t// in\n    tag_86:\n        /* \"#utility.yul\":2001:2134   */\n      swap3\n      swap2\n      pop\n      pop\n      jump\t// out\n        /* \"#utility.yul\":2140:2463   */\n    tag_25:\n        /* \"#utility.yul\":2196:2202   */\n      0x00\n        /* \"#utility.yul\":2245:2247   */\n      0x20\n        /* \"#utility.yul\":2233:2242   */\n      dup3\n        /* \"#utility.yul\":2224:2231   */\n      dup5\n        /* \"#utility.yul\":2220:2243   */\n      sub\n        /* \"#utility.yul\":2216:2248   */\n      slt\n        /* \"#utility.yul\":2213:2332   */\n      iszero\n      tag_88\n      jumpi\n        /* \"#utility.yul\":2251:2330   */\n      tag_89\n      tag_47\n      jump\t// in\n    tag_89:\n        /* \"#utility.yul\":2213:2332   */\n    tag_88:\n        /* \"#utility.yul\":2371:2372   */\n      0x00\n        /* \"#utility.yul\":2396:2446   */\n      tag_90\n        /* \"#utility.yul\":2438:2445   */\n      dup5\n        /* \"#utility.yul\":2429:2435   */\n      dup3\n        /* \"#utility.yul\":2418:2427   */\n      dup6\n        /* \"#utility.yul\":2414:2436   */\n      add\n        /* \"#utility.yul\":2396:2446   */\n      tag_53\n      jump\t// in\n    tag_90:\n        /* \"#utility.yul\":2386:2446   */\n      swap2\n      pop\n        /* \"#utility.yul\":2342:2456   */\n      pop\n        /* \"#utility.yul\":2140:2463   */\n      swap3\n      swap2\n      pop\n      pop\n      jump\t// out\n        /* \"#utility.yul\":2469:2587   */\n    tag_54:\n        /* \"#utility.yul\":2556:2580   */\n      tag_92\n        /* \"#utility.yul\":2574:2579   */\n      dup2\n        /* \"#utility.yul\":2556:2580   */\n      tag_49\n      jump\t// in\n    tag_92:\n        /* \"#utility.yul\":2551:2554   */\n      dup3\n        /* \"#utility.yul\":2544:2581   */\n      mstore\n        /* \"#utility.yul\":2469:2587   */\n      pop\n      pop\n      jump\t// out\n        /* \"#utility.yul\":2593:2815   */\n    tag_30:\n        /* \"#utility.yul\":2686:2690   */\n      0x00\n        /* \"#utility.yul\":2724:2726   */\n      0x20\n        /* \"#utility.yul\":2713:2722   */\n      dup3\n        /* \"#utility.yul\":2709:2727   */\n      add\n        /* \"#utility.yul\":2701:2727   */\n      swap1\n      pop\n        /* \"#utility.yul\":2737:2808   */\n      tag_94\n        /* \"#utility.yul\":2805:2806   */\n      0x00\n        /* \"#utility.yul\":2794:2803   */\n      dup4\n        /* \"#utility.yul\":2790:2807   */\n      add\n        /* \"#utility.yul\":2781:2787   */\n      dup5\n        /* \"#utility.yul\":2737:2808   */\n      tag_54\n      jump\t// in\n    tag_94:\n        /* \"#utility.yul\":2593:2815   */\n      swap3\n      swap2\n      pop\n      pop\n      jump\t// out\n        /* \"#utility.yul\":2821:2907   */\n    tag_55:\n        /* \"#utility.yul\":2856:2863   */\n      0x00\n        /* \"#utility.yul\":2896:2900   */\n      0xff\n        /* \"#utility.yul\":2889:2894   */\n      dup3\n        /* \"#utility.yul\":2885:2901   */\n      and\n        /* \"#utility.yul\":2874:2901   */\n      swap1\n      pop\n        /* \"#utility.yul\":2821:2907   */\n      swap2\n      swap1\n      pop\n      jump\t// out\n        /* \"#utility.yul\":2913:3025   */\n    tag_56:\n        /* \"#utility.yul\":2996:3018   */\n      tag_97\n        /* \"#utility.yul\":3012:3017   */\n      dup2\n        /* \"#utility.yul\":2996:3018   */\n      tag_55\n      jump\t// in\n    tag_97:\n        /* \"#utility.yul\":2991:2994   */\n      dup3\n        /* \"#utility.yul\":2984:3019   */\n      mstore\n        /* \"#utility.yul\":2913:3025   */\n      pop\n      pop\n      jump\t// out\n        /* \"#utility.yul\":3031:3245   */\n    tag_34:\n        /* \"#utility.yul\":3120:3124   */\n      0x00\n        /* \"#utility.yul\":3158:3160   */\n      0x20\n        /* \"#utility.yul\":3147:3156   */\n      dup3\n        /* \"#utility.yul\":3143:3161   */\n      add\n        /* \"#utility.yul\":3135:3161   */\n      swap1\n      pop\n        /* \"#utility.yul\":3171:3238   */\n      tag_99\n        /* \"#utility.yul\":3235:3236   */\n      0x00\n        /* \"#utility.yul\":3224:3233   */\n      dup4\n        /* \"#utility.yul\":3220:3237   */\n      add\n        /* \"#utility.yul\":3211:3217   */\n      dup5\n        /* \"#utility.yul\":3171:3238   */\n      tag_56\n      jump\t// in\n    tag_99:\n        /* \"#utility.yul\":3031:3245   */\n      swap3\n      swap2\n      pop\n      pop\n      jump\t// out\n        /* \"#utility.yul\":3251:3431   */\n    tag_57:\n        /* \"#utility.yul\":3299:3376   */\n      0x4e487b7100000000000000000000000000000000000000000000000000000000\n        /* \"#utility.yul\":3296:3297   */\n      0x00\n        /* \"#utility.yul\":3289:3377   */\n      mstore\n        /* \"#utility.yul\":3396:3400   */\n      0x11\n        /* \"#utility.yul\":3393:3394   */\n      0x04\n        /* \"#utility.yul\":3386:3401   */\n      mstore\n        /* \"#utility.yul\":3420:3424   */\n      0x24\n        /* \"#utility.yul\":3417:3418   */\n      0x00\n        /* \"#utility.yul\":3410:3425   */\n      revert\n        /* \"#utility.yul\":3437:3604   */\n    tag_41:\n        /* \"#utility.yul\":3474:3477   */\n      0x00\n        /* \"#utility.yul\":3497:3519   */\n      tag_102\n        /* \"#utility.yul\":3513:3518   */\n      dup3\n        /* \"#utility.yul\":3497:3519   */\n      tag_55\n      jump\t// in\n    tag_102:\n        /* \"#utility.yul\":3488:3519   */\n      swap2\n      pop\n        /* \"#utility.yul\":3541:3545   */\n      0xff\n        /* \"#utility.yul\":3534:3539   */\n      dup3\n        /* \"#utility.yul\":3531:3546   */\n      sub\n        /* \"#utility.yul\":3528:3569   */\n      tag_103\n      jumpi\n        /* \"#utility.yul\":3549:3567   */\n      tag_104\n      tag_57\n      jump\t// in\n    tag_104:\n        /* \"#utility.yul\":3528:3569   */\n    tag_103:\n        /* \"#utility.yul\":3596:3597   */\n      0x01\n        /* \"#utility.yul\":3589:3594   */\n      dup3\n        /* \"#utility.yul\":3585:3598   */\n      add\n        /* \"#utility.yul\":3578:3598   */\n      swap1\n      pop\n        /* \"#utility.yul\":3437:3604   */\n      swap2\n      swap1\n      pop\n      jump\t// out\n\n    auxdata: 0xa2646970667358221220bc8d9afde7f0f508feffe26cf9d4458f8c9f76b6b05a791545de81878d0e535564736f6c63430008160033\n}\n",
				"bytecode": {
					"linkReferences": {},
					"object": "60806040525f805f6101000a81548160ff0219169083151502179055505f60015560fa60025f6101000a81548160ff021916908360ff1602179055507ffffffffffffffffffffffffffffffffffffffffffffffffffffffffffffffff660035534801561006a575f80fd5b506103c6806100785f395ff3fe608060405234801561000f575f80fd5b506004361061007a575f3560e01c80635a4a58cc116100595780635a4a58cc146100d65780638381f58a146100f2578063aaef20ea14610110578063ecbbb9671461012e5761007a565b806274530a1461007e5780630189c9bd1461009c5780633fb5c1cb146100ba575b5f80fd5b610086610138565b60405161009391906101de565b60405180910390f35b6100a4610148565b6040516100b1919061020f565b60405180910390f35b6100d460048036038101906100cf919061025f565b61014e565b005b6100f060048036038101906100eb91906102b4565b610158565b005b6100fa610173565b60405161010791906102ee565b60405180910390f35b610118610179565b6040516101259190610322565b60405180910390f35b61013661018b565b005b5f8054906101000a900460ff1681565b60035481565b8060018190555050565b805f806101000a81548160ff02191690831515021790555050565b60015481565b60025f9054906101000a900460ff1681565b60025f81819054906101000a900460ff16809291906101a990610368565b91906101000a81548160ff021916908360ff16021790555050565b5f8115159050919050565b6101d8816101c4565b82525050565b5f6020820190506101f15f8301846101cf565b92915050565b5f819050919050565b610209816101f7565b82525050565b5f6020820190506102225f830184610200565b92915050565b5f80fd5b5f819050919050565b61023e8161022c565b8114610248575f80fd5b50565b5f8135905061025981610235565b92915050565b5f6020828403121561027457610273610228565b5b5f6102818482850161024b565b91505092915050565b610293816101c4565b811461029d575f80fd5b50565b5f813590506102ae8161028a565b92915050565b5f602082840312156102c9576102c8610228565b5b5f6102d6848285016102a0565b91505092915050565b6102e88161022c565b82525050565b5f6020820190506103015f8301846102df565b92915050565b5f60ff82169050919050565b61031c81610307565b82525050565b5f6020820190506103355f830184610313565b92915050565b7f4e487b71000000000000000000000000000000000000000000000000000000005f52601160045260245ffd5b5f61037282610307565b915060ff82036103855761038461033b565b5b60018201905091905056fea2646970667358221220bc8d9afde7f0f508feffe26cf9d4458f8c9f76b6b05a791545de81878d0e535564736f6c63430008160033",
					"opcodes": "PUSH1 0x80 PUSH1 0x40 MSTORE PUSH0 DUP1 PUSH0 PUSH2 0x100 EXP DUP2 SLOAD DUP2 PUSH1 0xFF MUL NOT AND SWAP1 DUP4 ISZERO ISZERO MUL OR SWAP1 SSTORE POP PUSH0 PUSH1 0x1 SSTORE PUSH1 0xFA PUSH1 0x2 PUSH0 PUSH2 0x100 EXP DUP2 SLOAD DUP2 PUSH1 0xFF MUL NOT AND SWAP1 DUP4 PUSH1 0xFF AND MUL OR SWAP1 SSTORE POP PUSH32 0xFFFFFFFFFFFFFFFFFFFFFFFFFFFFFFFFFFFFFFFFFFFFFFFFFFFFFFFFFFFFFFF6 PUSH1 0x3 SSTORE CALLVALUE DUP1 ISZERO PUSH2 0x6A JUMPI PUSH0 DUP1 REVERT JUMPDEST POP PUSH2 0x3C6 DUP1 PUSH2 0x78 PUSH0 CODECOPY PUSH0 RETURN INVALID PUSH1 0x80 PUSH1 0x40 MSTORE CALLVALUE DUP1 ISZERO PUSH2 0xF JUMPI PUSH0 DUP1 REVERT JUMPDEST POP PUSH1 0x4 CALLDATASIZE LT PUSH2 0x7A JUMPI PUSH0 CALLDATALOAD PUSH1 0xE0 SHR DUP1 PUSH4 0x5A4A58CC GT PUSH2 0x59 JUMPI DUP1 PUSH4 0x5A4A58CC EQ PUSH2 0xD6 JUMPI DUP1 PUSH4 0x8381F58A EQ PUSH2 0xF2 JUMPI DUP1 PUSH4 0xAAEF20EA EQ PUSH2 0x110 JUMPI DUP1 PUSH4 0xECBBB967 EQ PUSH2 0x12E JUMPI PUSH2 0x7A JUMP JUMPDEST DUP1 PUSH3 0x74530A EQ PUSH2 0x7E JUMPI DUP1 PUSH4 0x189C9BD EQ PUSH2 0x9C JUMPI DUP1 PUSH4 0x3FB5C1CB EQ PUSH2 0xBA JUMPI JUMPDEST PUSH0 DUP1 REVERT JUMPDEST PUSH2 0x86 PUSH2 0x138 JUMP JUMPDEST PUSH1 0x40 MLOAD PUSH2 0x93 SWAP2 SWAP1 PUSH2 0x1DE JUMP JUMPDEST PUSH1 0x40 MLOAD DUP1 SWAP2 SUB SWAP1 RETURN JUMPDEST PUSH2 0xA4 PUSH2 0x148 JUMP JUMPDEST PUSH1 0x40 MLOAD PUSH2 0xB1 SWAP2 SWAP1 PUSH2 0x20F JUMP JUMPDEST PUSH1 0x40 MLOAD DUP1 SWAP2 SUB SWAP1 RETURN JUMPDEST PUSH2 0xD4 PUSH1 0x4 DUP1 CALLDATASIZE SUB DUP2 ADD SWAP1 PUSH2 0xCF SWAP2 SWAP1 PUSH2 0x25F JUMP JUMPDEST PUSH2 0x14E JUMP JUMPDEST STOP JUMPDEST PUSH2 0xF0 PUSH1 0x4 DUP1 CALLDATASIZE SUB DUP2 ADD SWAP1 PUSH2 0xEB SWAP2 SWAP1 PUSH2 0x2B4 JUMP JUMPDEST PUSH2 0x158 JUMP JUMPDEST STOP JUMPDEST PUSH2 0xFA PUSH2 0x173 JUMP JUMPDEST PUSH1 0x40 MLOAD PUSH2 0x107 SWAP2 SWAP1 PUSH2 0x2EE JUMP JUMPDEST PUSH1 0x40 MLOAD DUP1 SWAP2 SUB SWAP1 RETURN JUMPDEST PUSH2 0x118 PUSH2 0x179 JUMP JUMPDEST PUSH1 0x40 MLOAD PUSH2 0x125 SWAP2 SWAP1 PUSH2 0x322 JUMP JUMPDEST PUSH1 0x40 MLOAD DUP1 SWAP2 SUB SWAP1 RETURN JUMPDEST PUSH2 0x136 PUSH2 0x18B JUMP JUMPDEST STOP JUMPDEST PUSH0 DUP1 SLOAD SWAP1 PUSH2 0x100 EXP SWAP1 DIV PUSH1 0xFF AND DUP2 JUMP JUMPDEST PUSH1 0x3 SLOAD DUP2 JUMP JUMPDEST DUP1 PUSH1 0x1 DUP2 SWAP1 SSTORE POP POP JUMP JUMPDEST DUP1 PUSH0 DUP1 PUSH2 0x100 EXP DUP2 SLOAD DUP2 PUSH1 0xFF MUL NOT AND SWAP1 DUP4 ISZERO ISZERO MUL OR SWAP1 SSTORE POP POP JUMP JUMPDEST PUSH1 0x1 SLOAD DUP2 JUMP JUMPDEST PUSH1 0x2 PUSH0 SWAP1 SLOAD SWAP1 PUSH2 0x100 EXP SWAP1 DIV PUSH1 0xFF AND DUP2 JUMP JUMPDEST PUSH1 0x2 PUSH0 DUP2 DUP2 SWAP1 SLOAD SWAP1 PUSH2 0x100 EXP SWAP1 DIV PUSH1 0xFF AND DUP1 SWAP3 SWAP2 SWAP1 PUSH2 0x1A9 SWAP1 PUSH2 0x368 JUMP JUMPDEST SWAP2 SWAP1 PUSH2 0x100 EXP DUP2 SLOAD DUP2 PUSH1 0xFF MUL NOT AND SWAP1 DUP4 PUSH1 0xFF AND MUL OR SWAP1 SSTORE POP POP JUMP JUMPDEST PUSH0 DUP2 ISZERO ISZERO SWAP1 POP SWAP2 SWAP1 POP JUMP JUMPDEST PUSH2 0x1D8 DUP2 PUSH2 0x1C4 JUMP JUMPDEST DUP3 MSTORE POP POP JUMP JUMPDEST PUSH0 PUSH1 0x20 DUP3 ADD SWAP1 POP PUSH2 0x1F1 PUSH0 DUP4 ADD DUP5 PUSH2 0x1CF JUMP JUMPDEST SWAP3 SWAP2 POP POP JUMP JUMPDEST PUSH0 DUP2 SWAP1 POP SWAP2 SWAP1 POP JUMP JUMPDEST PUSH2 0x209 DUP2 PUSH2 0x1F7 JUMP JUMPDEST DUP3 MSTORE POP POP JUMP JUMPDEST PUSH0 PUSH1 0x20 DUP3 ADD SWAP1 POP PUSH2 0x222 PUSH0 DUP4 ADD DUP5 PUSH2 0x200 JUMP JUMPDEST SWAP3 SWAP2 POP POP JUMP JUMPDEST PUSH0 DUP1 REVERT JUMPDEST PUSH0 DUP2 SWAP1 POP SWAP2 SWAP1 POP JUMP JUMPDEST PUSH2 0x23E DUP2 PUSH2 0x22C JUMP JUMPDEST DUP2 EQ PUSH2 0x248 JUMPI PUSH0 DUP1 REVERT JUMPDEST POP JUMP JUMPDEST PUSH0 DUP2 CALLDATALOAD SWAP1 POP PUSH2 0x259 DUP2 PUSH2 0x235 JUMP JUMPDEST SWAP3 SWAP2 POP POP JUMP JUMPDEST PUSH0 PUSH1 0x20 DUP3 DUP5 SUB SLT ISZERO PUSH2 0x274 JUMPI PUSH2 0x273 PUSH2 0x228 JUMP JUMPDEST JUMPDEST PUSH0 PUSH2 0x281 DUP5 DUP3 DUP6 ADD PUSH2 0x24B JUMP JUMPDEST SWAP2 POP POP SWAP3 SWAP2 POP POP JUMP JUMPDEST PUSH2 0x293 DUP2 PUSH2 0x1C4 JUMP JUMPDEST DUP2 EQ PUSH2 0x29D JUMPI PUSH0 DUP1 REVERT JUMPDEST POP JUMP JUMPDEST PUSH0 DUP2 CALLDATALOAD SWAP1 POP PUSH2 0x2AE DUP2 PUSH2 0x28A JUMP JUMPDEST SWAP3 SWAP2 POP POP JUMP JUMPDEST PUSH0 PUSH1 0x20 DUP3 DUP5 SUB SLT ISZERO PUSH2 0x2C9 JUMPI PUSH2 0x2C8 PUSH2 0x228 JUMP JUMPDEST JUMPDEST PUSH0 PUSH2 0x2D6 DUP5 DUP3 DUP6 ADD PUSH2 0x2A0 JUMP JUMPDEST SWAP2 POP POP SWAP3 SWAP2 POP POP JUMP JUMPDEST PUSH2 0x2E8 DUP2 PUSH2 0x22C JUMP JUMPDEST DUP3 MSTORE POP POP JUMP JUMPDEST PUSH0 PUSH1 0x20 DUP3 ADD SWAP1 POP PUSH2 0x301 PUSH0 DUP4 ADD DUP5 PUSH2 0x2DF JUMP JUMPDEST SWAP3 SWAP2 POP POP JUMP JUMPDEST PUSH0 PUSH1 0xFF DUP3 AND SWAP1 POP SWAP2 SWAP1 POP JUMP JUMPDEST PUSH2 0x31C DUP2 PUSH2 0x307 JUMP JUMPDEST DUP3 MSTORE POP POP JUMP JUMPDEST PUSH0 PUSH1 0x20 DUP3 ADD SWAP1 POP PUSH2 0x335 PUSH0 DUP4 ADD DUP5 PUSH2 0x313 JUMP JUMPDEST SWAP3 SWAP2 POP POP JUMP JUMPDEST PUSH32 0x4E487B7100000000000000000000000000000000000000000000000000000000 PUSH0 MSTORE PUSH1 0x11 PUSH1 0x4 MSTORE PUSH1 0x24 PUSH0 REVERT JUMPDEST PUSH0 PUSH2 0x372 DUP3 PUSH2 0x307 JUMP JUMPDEST SWAP2 POP PUSH1 0xFF DUP3 SUB PUSH2 0x385 JUMPI PUSH2 0x384 PUSH2 0x33B JUMP JUMPDEST JUMPDEST PUSH1 0x1 DUP3 ADD SWAP1 POP SWAP2 SWAP1 POP JUMP INVALID LOG2 PUSH5 0x6970667358 0x22 SLT KECCAK256 0xBC DUP14 SWAP11 REVERT 0xE7 CREATE CREATE2 ADDMOD INVALID SELFDESTRUCT 0xE2 PUSH13 0xF9D4458F8C9F76B6B05A791545 0xDE DUP2 DUP8 DUP14 0xE MSTORE8 SSTORE PUSH5 0x736F6C6343 STOP ADDMOD AND STOP CALLER "
				},
				"gasEstimates": {
					"creation": {
						"codeDepositCost": "193200",
						"executionCost": "75878",
						"totalCost": "269078"
					},
					"external": {
						"increaseUint8()": "26761",
						"intNumberValue()": "2448",
						"isTrue()": "2464",
						"number()": "2447",
						"setIsTrue(bool)": "24673",
						"setNumber(uint256)": "22560",
						"uint8Value()": "2510"
					}
				},
				"methodIdentifiers": {
					"increaseUint8()": "ecbbb967",
					"intNumberValue()": "0189c9bd",
					"isTrue()": "0074530a",
					"number()": "8381f58a",
					"setIsTrue(bool)": "5a4a58cc",
					"setNumber(uint256)": "3fb5c1cb",
					"uint8Value()": "aaef20ea"
				}
			},
			"storageLayout": {
				"storage": [
					{
						"astId": 4,
						"contract": "contracts/data-type.sol:DataType",
						"label": "isTrue",
						"offset": 0,
						"slot": "0",
						"type": "t_bool"
					},
					{
						"astId": 7,
						"contract": "contracts/data-type.sol:DataType",
						"label": "number",
						"offset": 0,
						"slot": "1",
						"type": "t_uint256"
					},
					{
						"astId": 10,
						"contract": "contracts/data-type.sol:DataType",
						"label": "uint8Value",
						"offset": 0,
						"slot": "2",
						"type": "t_uint8"
					},
					{
						"astId": 14,
						"contract": "contracts/data-type.sol:DataType",
						"label": "intNumberValue",
						"offset": 0,
						"slot": "3",
						"type": "t_int256"
					}
				],
				"types": {
					"t_bool": {
						"encoding": "inplace",
						"label": "bool",
						"numberOfBytes": "1"
					},
					"t_int256": {
						"encoding": "inplace",
						"label": "int256",
						"numberOfBytes": "32"
					},
					"t_uint256": {
						"encoding": "inplace",
						"label": "uint256",
						"numberOfBytes": "32"
					},
					"t_uint8": {
						"encoding": "inplace",
						"label": "uint8",
						"numberOfBytes": "1"
					}
				}
			},
			"userdoc": {
				"kind": "user",
				"methods": {},
				"version": 1
			}
		}
	}
}