{
	"contracts/data-type.sol": {
		"DataType": {
			"abi": [
				{
					"inputs": [
						{
							"internalType": "string",
							"name": "_checkString",
							"type": "string"
						}
					],
					"name": "compareStrings",
					"outputs": [
						{
							"internalType": "bool",
							"name": "",
							"type": "bool"
						}
					],
					"stateMutability": "view",
					"type": "function"
				},
				{
					"inputs": [],
					"name": "decreaseNumber",
					"outputs": [],
					"stateMutability": "nonpayable",
					"type": "function"
				},
				{
					"inputs": [],
					"name": "getBytesSize",
					"outputs": [
						{
							"internalType": "uint256",
							"name": "",
							"type": "uint256"
						}
					],
					"stateMutability": "view",
					"type": "function"
				},
				{
					"inputs": [],
					"name": "getUserAddressBalance",
					"outputs": [
						{
							"internalType": "uint256",
							"name": "",
							"type": "uint256"
						}
					],
					"stateMutability": "view",
					"type": "function"
				},
				{
					"inputs": [],
					"name": "increaseUint8",
					"outputs": [],
					"stateMutability": "nonpayable",
					"type": "function"
				},
				{
					"inputs": [],
					"name": "intNumberValue",
					"outputs": [
						{
							"internalType": "int256",
							"name": "",
							"type": "int256"
						}
					],
					"stateMutability": "view",
					"type": "function"
				},
				{
					"inputs": [],
					"name": "isTrue",
					"outputs": [
						{
							"internalType": "bool",
							"name": "",
							"type": "bool"
						}
					],
					"stateMutability": "view",
					"type": "function"
				},
				{
					"inputs": [],
					"name": "myBytes",
					"outputs": [
						{
							"internalType": "bytes",
							"name": "",
							"type": "bytes"
						}
					],
					"stateMutability": "view",
					"type": "function"
				},
				{
					"inputs": [],
					"name": "number",
					"outputs": [
						{
							"internalType": "uint256",
							"name": "",
							"type": "uint256"
						}
					],
					"stateMutability": "view",
					"type": "function"
				},
				{
					"inputs": [
						{
							"internalType": "bool",
							"name": "_isTrue",
							"type": "bool"
						}
					],
					"name": "setIsTrue",
					"outputs": [],
					"stateMutability": "nonpayable",
					"type": "function"
				},
				{
					"inputs": [
						{
							"internalType": "uint256",
							"name": "_number",
							"type": "uint256"
						}
					],
					"name": "setNumber",
					"outputs": [],
					"stateMutability": "nonpayable",
					"type": "function"
				},
				{
					"inputs": [
						{
							"internalType": "string",
							"name": "_str",
							"type": "string"
						}
					],
					"name": "setStr",
					"outputs": [],
					"stateMutability": "nonpayable",
					"type": "function"
				},
				{
					"inputs": [
						{
							"internalType": "address",
							"name": "_address",
							"type": "address"
						}
					],
					"name": "setUserAddress",
					"outputs": [],
					"stateMutability": "nonpayable",
					"type": "function"
				},
				{
					"inputs": [],
					"name": "str",
					"outputs": [
						{
							"internalType": "string",
							"name": "",
							"type": "string"
						}
					],
					"stateMutability": "view",
					"type": "function"
				},
				{
					"inputs": [],
					"name": "uint8Value",
					"outputs": [
						{
							"internalType": "uint8",
							"name": "",
							"type": "uint8"
						}
					],
					"stateMutability": "view",
					"type": "function"
				},
				{
					"inputs": [],
					"name": "userAddress",
					"outputs": [
						{
							"internalType": "address",
							"name": "",
							"type": "address"
						}
					],
					"stateMutability": "view",
					"type": "function"
				}
			],
			"devdoc": {
				"kind": "dev",
				"methods": {},
				"version": 1
			},
			"evm": {
				"assembly": "    /* \"contracts/data-type.sol\":57:1469  contract DataType {... */\n  mstore(0x40, 0x80)\n    /* \"contracts/data-type.sol\":102:107  false */\n  0x00\n    /* \"contracts/data-type.sol\":81:107  bool public isTrue = false */\n  dup1\n  exp(0x0100, 0x00)\n  dup2\n  sload\n  dup2\n  0xff\n  mul\n  not\n  and\n  swap1\n  dup4\n  iszero\n  iszero\n  mul\n  or\n  swap1\n  sstore\n  pop\n    /* \"contracts/data-type.sol\":179:180  0 */\n  0x00\n    /* \"contracts/data-type.sol\":155:180  uint256 public number = 0 */\n  0x01\n  sstore\n    /* \"contracts/data-type.sol\":321:324  250 */\n  0xfa\n    /* \"contracts/data-type.sol\":295:324  uint8 public uint8Value = 250 */\n  0x02\n  exp(0x0100, 0x00)\n  dup2\n  sload\n  dup2\n  0xff\n  mul\n  not\n  and\n  swap1\n  dup4\n  0xff\n  and\n  mul\n  or\n  swap1\n  sstore\n  pop\n    /* \"contracts/data-type.sol\":403:406  -10 */\n  0xfffffffffffffffffffffffffffffffffffffffffffffffffffffffffffffff6\n    /* \"contracts/data-type.sol\":372:406  int256 public intNumberValue = -10 */\n  0x03\n  sstore\n    /* \"contracts/data-type.sol\":413:449  string public str = \"Hello Solidity\" */\n  mload(0x40)\n  dup1\n  0x40\n  add\n  0x40\n  mstore\n  dup1\n  0x0e\n  dup2\n  mstore\n  0x20\n  add\n  0x48656c6c6f20536f6c6964697479000000000000000000000000000000000000\n  dup2\n  mstore\n  pop\n  0x04\n  swap1\n  dup2\n  tag_1\n  swap2\n  swap1\n  tag_2\n  jump\t// in\ntag_1:\n  pop\n    /* \"contracts/data-type.sol\":455:494  bytes public myBytes = \"Hello Solidity\" */\n  mload(0x40)\n  dup1\n  0x40\n  add\n  0x40\n  mstore\n  dup1\n  0x0e\n  dup2\n  mstore\n  0x20\n  add\n  0x48656c6c6f20536f6c6964697479000000000000000000000000000000000000\n  dup2\n  mstore\n  pop\n  0x05\n  swap1\n  dup2\n  tag_3\n  swap2\n  swap1\n  tag_4\n  jump\t// in\ntag_3:\n  pop\n    /* \"contracts/data-type.sol\":57:1469  contract DataType {... */\n  callvalue\n  dup1\n  iszero\n  tag_5\n  jumpi\n  0x00\n  dup1\n  revert\ntag_5:\n  pop\n  jump(tag_6)\n    /* \"#utility.yul\":7:106   */\ntag_7:\n    /* \"#utility.yul\":59:65   */\n  0x00\n    /* \"#utility.yul\":93:98   */\n  dup2\n    /* \"#utility.yul\":87:99   */\n  mload\n    /* \"#utility.yul\":77:99   */\n  swap1\n  pop\n    /* \"#utility.yul\":7:106   */\n  swap2\n  swap1\n  pop\n  jump\t// out\n    /* \"#utility.yul\":112:292   */\ntag_8:\n    /* \"#utility.yul\":160:237   */\n  0x4e487b7100000000000000000000000000000000000000000000000000000000\n    /* \"#utility.yul\":157:158   */\n  0x00\n    /* \"#utility.yul\":150:238   */\n  mstore\n    /* \"#utility.yul\":257:261   */\n  0x41\n    /* \"#utility.yul\":254:255   */\n  0x04\n    /* \"#utility.yul\":247:262   */\n  mstore\n    /* \"#utility.yul\":281:285   */\n  0x24\n    /* \"#utility.yul\":278:279   */\n  0x00\n    /* \"#utility.yul\":271:286   */\n  revert\n    /* \"#utility.yul\":298:478   */\ntag_9:\n    /* \"#utility.yul\":346:423   */\n  0x4e487b7100000000000000000000000000000000000000000000000000000000\n    /* \"#utility.yul\":343:344   */\n  0x00\n    /* \"#utility.yul\":336:424   */\n  mstore\n    /* \"#utility.yul\":443:447   */\n  0x22\n    /* \"#utility.yul\":440:441   */\n  0x04\n    /* \"#utility.yul\":433:448   */\n  mstore\n    /* \"#utility.yul\":467:471   */\n  0x24\n    /* \"#utility.yul\":464:465   */\n  0x00\n    /* \"#utility.yul\":457:472   */\n  revert\n    /* \"#utility.yul\":484:804   */\ntag_10:\n    /* \"#utility.yul\":528:534   */\n  0x00\n    /* \"#utility.yul\":565:566   */\n  0x02\n    /* \"#utility.yul\":559:563   */\n  dup3\n    /* \"#utility.yul\":555:567   */\n  div\n    /* \"#utility.yul\":545:567   */\n  swap1\n  pop\n    /* \"#utility.yul\":612:613   */\n  0x01\n    /* \"#utility.yul\":606:610   */\n  dup3\n    /* \"#utility.yul\":602:614   */\n  and\n    /* \"#utility.yul\":633:651   */\n  dup1\n    /* \"#utility.yul\":623:704   */\n  tag_34\n  jumpi\n    /* \"#utility.yul\":689:693   */\n  0x7f\n    /* \"#utility.yul\":681:687   */\n  dup3\n    /* \"#utility.yul\":677:694   */\n  and\n    /* \"#utility.yul\":667:694   */\n  swap2\n  pop\n    /* \"#utility.yul\":623:704   */\ntag_34:\n    /* \"#utility.yul\":751:753   */\n  0x20\n    /* \"#utility.yul\":743:749   */\n  dup3\n    /* \"#utility.yul\":740:754   */\n  lt\n    /* \"#utility.yul\":720:738   */\n  dup2\n    /* \"#utility.yul\":717:755   */\n  sub\n    /* \"#utility.yul\":714:798   */\n  tag_35\n  jumpi\n    /* \"#utility.yul\":770:788   */\n  tag_36\n  tag_9\n  jump\t// in\ntag_36:\n    /* \"#utility.yul\":714:798   */\ntag_35:\n    /* \"#utility.yul\":535:804   */\n  pop\n    /* \"#utility.yul\":484:804   */\n  swap2\n  swap1\n  pop\n  jump\t// out\n    /* \"#utility.yul\":810:951   */\ntag_11:\n    /* \"#utility.yul\":859:863   */\n  0x00\n    /* \"#utility.yul\":882:885   */\n  dup2\n    /* \"#utility.yul\":874:885   */\n  swap1\n  pop\n    /* \"#utility.yul\":905:908   */\n  dup2\n    /* \"#utility.yul\":902:903   */\n  0x00\n    /* \"#utility.yul\":895:909   */\n  mstore\n    /* \"#utility.yul\":939:943   */\n  0x20\n    /* \"#utility.yul\":936:937   */\n  0x00\n    /* \"#utility.yul\":926:944   */\n  keccak256\n    /* \"#utility.yul\":918:944   */\n  swap1\n  pop\n    /* \"#utility.yul\":810:951   */\n  swap2\n  swap1\n  pop\n  jump\t// out\n    /* \"#utility.yul\":957:1050   */\ntag_12:\n    /* \"#utility.yul\":994:1000   */\n  0x00\n    /* \"#utility.yul\":1041:1043   */\n  0x20\n    /* \"#utility.yul\":1036:1038   */\n  0x1f\n    /* \"#utility.yul\":1029:1034   */\n  dup4\n    /* \"#utility.yul\":1025:1039   */\n  add\n    /* \"#utility.yul\":1021:1044   */\n  div\n    /* \"#utility.yul\":1011:1044   */\n  swap1\n  pop\n    /* \"#utility.yul\":957:1050   */\n  swap2\n  swap1\n  pop\n  jump\t// out\n    /* \"#utility.yul\":1056:1163   */\ntag_13:\n    /* \"#utility.yul\":1100:1108   */\n  0x00\n    /* \"#utility.yul\":1150:1155   */\n  dup3\n    /* \"#utility.yul\":1144:1148   */\n  dup3\n    /* \"#utility.yul\":1140:1156   */\n  shl\n    /* \"#utility.yul\":1119:1156   */\n  swap1\n  pop\n    /* \"#utility.yul\":1056:1163   */\n  swap3\n  swap2\n  pop\n  pop\n  jump\t// out\n    /* \"#utility.yul\":1169:1562   */\ntag_14:\n    /* \"#utility.yul\":1238:1244   */\n  0x00\n    /* \"#utility.yul\":1288:1289   */\n  0x08\n    /* \"#utility.yul\":1276:1286   */\n  dup4\n    /* \"#utility.yul\":1272:1290   */\n  mul\n    /* \"#utility.yul\":1311:1408   */\n  tag_41\n    /* \"#utility.yul\":1341:1407   */\n  0xffffffffffffffffffffffffffffffffffffffffffffffffffffffffffffffff\n    /* \"#utility.yul\":1330:1339   */\n  dup3\n    /* \"#utility.yul\":1311:1408   */\n  tag_13\n  jump\t// in\ntag_41:\n    /* \"#utility.yul\":1429:1468   */\n  tag_42\n    /* \"#utility.yul\":1459:1467   */\n  dup7\n    /* \"#utility.yul\":1448:1457   */\n  dup4\n    /* \"#utility.yul\":1429:1468   */\n  tag_13\n  jump\t// in\ntag_42:\n    /* \"#utility.yul\":1417:1468   */\n  swap6\n  pop\n    /* \"#utility.yul\":1501:1505   */\n  dup1\n    /* \"#utility.yul\":1497:1506   */\n  not\n    /* \"#utility.yul\":1490:1495   */\n  dup5\n    /* \"#utility.yul\":1486:1507   */\n  and\n    /* \"#utility.yul\":1477:1507   */\n  swap4\n  pop\n    /* \"#utility.yul\":1550:1554   */\n  dup1\n    /* \"#utility.yul\":1540:1548   */\n  dup7\n    /* \"#utility.yul\":1536:1555   */\n  and\n    /* \"#utility.yul\":1529:1534   */\n  dup5\n    /* \"#utility.yul\":1526:1556   */\n  or\n    /* \"#utility.yul\":1516:1556   */\n  swap3\n  pop\n    /* \"#utility.yul\":1245:1562   */\n  pop\n  pop\n    /* \"#utility.yul\":1169:1562   */\n  swap4\n  swap3\n  pop\n  pop\n  pop\n  jump\t// out\n    /* \"#utility.yul\":1568:1645   */\ntag_15:\n    /* \"#utility.yul\":1605:1612   */\n  0x00\n    /* \"#utility.yul\":1634:1639   */\n  dup2\n    /* \"#utility.yul\":1623:1639   */\n  swap1\n  pop\n    /* \"#utility.yul\":1568:1645   */\n  swap2\n  swap1\n  pop\n  jump\t// out\n    /* \"#utility.yul\":1651:1711   */\ntag_16:\n    /* \"#utility.yul\":1679:1682   */\n  0x00\n    /* \"#utility.yul\":1700:1705   */\n  dup2\n    /* \"#utility.yul\":1693:1705   */\n  swap1\n  pop\n    /* \"#utility.yul\":1651:1711   */\n  swap2\n  swap1\n  pop\n  jump\t// out\n    /* \"#utility.yul\":1717:1859   */\ntag_17:\n    /* \"#utility.yul\":1767:1776   */\n  0x00\n    /* \"#utility.yul\":1800:1853   */\n  tag_46\n    /* \"#utility.yul\":1818:1852   */\n  tag_47\n    /* \"#utility.yul\":1827:1851   */\n  tag_48\n    /* \"#utility.yul\":1845:1850   */\n  dup5\n    /* \"#utility.yul\":1827:1851   */\n  tag_15\n  jump\t// in\ntag_48:\n    /* \"#utility.yul\":1818:1852   */\n  tag_16\n  jump\t// in\ntag_47:\n    /* \"#utility.yul\":1800:1853   */\n  tag_15\n  jump\t// in\ntag_46:\n    /* \"#utility.yul\":1787:1853   */\n  swap1\n  pop\n    /* \"#utility.yul\":1717:1859   */\n  swap2\n  swap1\n  pop\n  jump\t// out\n    /* \"#utility.yul\":1865:1940   */\ntag_18:\n    /* \"#utility.yul\":1908:1911   */\n  0x00\n    /* \"#utility.yul\":1929:1934   */\n  dup2\n    /* \"#utility.yul\":1922:1934   */\n  swap1\n  pop\n    /* \"#utility.yul\":1865:1940   */\n  swap2\n  swap1\n  pop\n  jump\t// out\n    /* \"#utility.yul\":1946:2215   */\ntag_19:\n    /* \"#utility.yul\":2056:2095   */\n  tag_51\n    /* \"#utility.yul\":2087:2094   */\n  dup4\n    /* \"#utility.yul\":2056:2095   */\n  tag_17\n  jump\t// in\ntag_51:\n    /* \"#utility.yul\":2117:2208   */\n  tag_52\n    /* \"#utility.yul\":2166:2207   */\n  tag_53\n    /* \"#utility.yul\":2190:2206   */\n  dup3\n    /* \"#utility.yul\":2166:2207   */\n  tag_18\n  jump\t// in\ntag_53:\n    /* \"#utility.yul\":2158:2164   */\n  dup5\n    /* \"#utility.yul\":2151:2155   */\n  dup5\n    /* \"#utility.yul\":2145:2156   */\n  sload\n    /* \"#utility.yul\":2117:2208   */\n  tag_14\n  jump\t// in\ntag_52:\n    /* \"#utility.yul\":2111:2115   */\n  dup3\n    /* \"#utility.yul\":2104:2209   */\n  sstore\n    /* \"#utility.yul\":2022:2215   */\n  pop\n    /* \"#utility.yul\":1946:2215   */\n  pop\n  pop\n  pop\n  jump\t// out\n    /* \"#utility.yul\":2221:2294   */\ntag_20:\n    /* \"#utility.yul\":2266:2269   */\n  0x00\n    /* \"#utility.yul\":2221:2294   */\n  swap1\n  jump\t// out\n    /* \"#utility.yul\":2300:2489   */\ntag_21:\n    /* \"#utility.yul\":2377:2409   */\n  tag_56\n  tag_20\n  jump\t// in\ntag_56:\n    /* \"#utility.yul\":2418:2483   */\n  tag_57\n    /* \"#utility.yul\":2476:2482   */\n  dup2\n    /* \"#utility.yul\":2468:2474   */\n  dup5\n    /* \"#utility.yul\":2462:2466   */\n  dup5\n    /* \"#utility.yul\":2418:2483   */\n  tag_19\n  jump\t// in\ntag_57:\n    /* \"#utility.yul\":2353:2489   */\n  pop\n    /* \"#utility.yul\":2300:2489   */\n  pop\n  pop\n  jump\t// out\n    /* \"#utility.yul\":2495:2681   */\ntag_22:\n    /* \"#utility.yul\":2555:2675   */\ntag_59:\n    /* \"#utility.yul\":2572:2575   */\n  dup2\n    /* \"#utility.yul\":2565:2570   */\n  dup2\n    /* \"#utility.yul\":2562:2576   */\n  lt\n    /* \"#utility.yul\":2555:2675   */\n  iszero\n  tag_61\n  jumpi\n    /* \"#utility.yul\":2626:2665   */\n  tag_62\n    /* \"#utility.yul\":2663:2664   */\n  0x00\n    /* \"#utility.yul\":2656:2661   */\n  dup3\n    /* \"#utility.yul\":2626:2665   */\n  tag_21\n  jump\t// in\ntag_62:\n    /* \"#utility.yul\":2599:2600   */\n  0x01\n    /* \"#utility.yul\":2592:2597   */\n  dup2\n    /* \"#utility.yul\":2588:2601   */\n  add\n    /* \"#utility.yul\":2579:2601   */\n  swap1\n  pop\n    /* \"#utility.yul\":2555:2675   */\n  jump(tag_59)\ntag_61:\n    /* \"#utility.yul\":2495:2681   */\n  pop\n  pop\n  jump\t// out\n    /* \"#utility.yul\":2687:3230   */\ntag_23:\n    /* \"#utility.yul\":2788:2790   */\n  0x1f\n    /* \"#utility.yul\":2783:2786   */\n  dup3\n    /* \"#utility.yul\":2780:2791   */\n  gt\n    /* \"#utility.yul\":2777:3223   */\n  iszero\n  tag_64\n  jumpi\n    /* \"#utility.yul\":2822:2860   */\n  tag_65\n    /* \"#utility.yul\":2854:2859   */\n  dup2\n    /* \"#utility.yul\":2822:2860   */\n  tag_11\n  jump\t// in\ntag_65:\n    /* \"#utility.yul\":2906:2935   */\n  tag_66\n    /* \"#utility.yul\":2924:2934   */\n  dup5\n    /* \"#utility.yul\":2906:2935   */\n  tag_12\n  jump\t// in\ntag_66:\n    /* \"#utility.yul\":2896:2904   */\n  dup2\n    /* \"#utility.yul\":2892:2936   */\n  add\n    /* \"#utility.yul\":3089:3091   */\n  0x20\n    /* \"#utility.yul\":3077:3087   */\n  dup6\n    /* \"#utility.yul\":3074:3092   */\n  lt\n    /* \"#utility.yul\":3071:3120   */\n  iszero\n  tag_67\n  jumpi\n    /* \"#utility.yul\":3110:3118   */\n  dup2\n    /* \"#utility.yul\":3095:3118   */\n  swap1\n  pop\n    /* \"#utility.yul\":3071:3120   */\ntag_67:\n    /* \"#utility.yul\":3133:3213   */\n  tag_68\n    /* \"#utility.yul\":3189:3211   */\n  tag_69\n    /* \"#utility.yul\":3207:3210   */\n  dup6\n    /* \"#utility.yul\":3189:3211   */\n  tag_12\n  jump\t// in\ntag_69:\n    /* \"#utility.yul\":3179:3187   */\n  dup4\n    /* \"#utility.yul\":3175:3212   */\n  add\n    /* \"#utility.yul\":3162:3173   */\n  dup3\n    /* \"#utility.yul\":3133:3213   */\n  tag_22\n  jump\t// in\ntag_68:\n    /* \"#utility.yul\":2792:3223   */\n  pop\n  pop\n    /* \"#utility.yul\":2777:3223   */\ntag_64:\n    /* \"#utility.yul\":2687:3230   */\n  pop\n  pop\n  pop\n  jump\t// out\n    /* \"#utility.yul\":3236:3353   */\ntag_24:\n    /* \"#utility.yul\":3290:3298   */\n  0x00\n    /* \"#utility.yul\":3340:3345   */\n  dup3\n    /* \"#utility.yul\":3334:3338   */\n  dup3\n    /* \"#utility.yul\":3330:3346   */\n  shr\n    /* \"#utility.yul\":3309:3346   */\n  swap1\n  pop\n    /* \"#utility.yul\":3236:3353   */\n  swap3\n  swap2\n  pop\n  pop\n  jump\t// out\n    /* \"#utility.yul\":3359:3528   */\ntag_25:\n    /* \"#utility.yul\":3403:3409   */\n  0x00\n    /* \"#utility.yul\":3436:3487   */\n  tag_72\n    /* \"#utility.yul\":3484:3485   */\n  0x00\n    /* \"#utility.yul\":3480:3486   */\n  not\n    /* \"#utility.yul\":3472:3477   */\n  dup5\n    /* \"#utility.yul\":3469:3470   */\n  0x08\n    /* \"#utility.yul\":3465:3478   */\n  mul\n    /* \"#utility.yul\":3436:3487   */\n  tag_24\n  jump\t// in\ntag_72:\n    /* \"#utility.yul\":3432:3488   */\n  not\n    /* \"#utility.yul\":3517:3521   */\n  dup1\n    /* \"#utility.yul\":3511:3515   */\n  dup4\n    /* \"#utility.yul\":3507:3522   */\n  and\n    /* \"#utility.yul\":3497:3522   */\n  swap2\n  pop\n    /* \"#utility.yul\":3410:3528   */\n  pop\n    /* \"#utility.yul\":3359:3528   */\n  swap3\n  swap2\n  pop\n  pop\n  jump\t// out\n    /* \"#utility.yul\":3533:3828   */\ntag_26:\n    /* \"#utility.yul\":3609:3613   */\n  0x00\n    /* \"#utility.yul\":3755:3784   */\n  tag_74\n    /* \"#utility.yul\":3780:3783   */\n  dup4\n    /* \"#utility.yul\":3774:3778   */\n  dup4\n    /* \"#utility.yul\":3755:3784   */\n  tag_25\n  jump\t// in\ntag_74:\n    /* \"#utility.yul\":3747:3784   */\n  swap2\n  pop\n    /* \"#utility.yul\":3817:3820   */\n  dup3\n    /* \"#utility.yul\":3814:3815   */\n  0x02\n    /* \"#utility.yul\":3810:3821   */\n  mul\n    /* \"#utility.yul\":3804:3808   */\n  dup3\n    /* \"#utility.yul\":3801:3822   */\n  or\n    /* \"#utility.yul\":3793:3822   */\n  swap1\n  pop\n    /* \"#utility.yul\":3533:3828   */\n  swap3\n  swap2\n  pop\n  pop\n  jump\t// out\n    /* \"#utility.yul\":3833:5228   */\ntag_2:\n    /* \"#utility.yul\":3950:3987   */\n  tag_76\n    /* \"#utility.yul\":3983:3986   */\n  dup3\n    /* \"#utility.yul\":3950:3987   */\n  tag_7\n  jump\t// in\ntag_76:\n    /* \"#utility.yul\":4052:4070   */\n  0xffffffffffffffff\n    /* \"#utility.yul\":4044:4050   */\n  dup2\n    /* \"#utility.yul\":4041:4071   */\n  gt\n    /* \"#utility.yul\":4038:4094   */\n  iszero\n  tag_77\n  jumpi\n    /* \"#utility.yul\":4074:4092   */\n  tag_78\n  tag_8\n  jump\t// in\ntag_78:\n    /* \"#utility.yul\":4038:4094   */\ntag_77:\n    /* \"#utility.yul\":4118:4156   */\n  tag_79\n    /* \"#utility.yul\":4150:4154   */\n  dup3\n    /* \"#utility.yul\":4144:4155   */\n  sload\n    /* \"#utility.yul\":4118:4156   */\n  tag_10\n  jump\t// in\ntag_79:\n    /* \"#utility.yul\":4203:4270   */\n  tag_80\n    /* \"#utility.yul\":4263:4269   */\n  dup3\n    /* \"#utility.yul\":4255:4261   */\n  dup3\n    /* \"#utility.yul\":4249:4253   */\n  dup6\n    /* \"#utility.yul\":4203:4270   */\n  tag_23\n  jump\t// in\ntag_80:\n    /* \"#utility.yul\":4297:4298   */\n  0x00\n    /* \"#utility.yul\":4321:4325   */\n  0x20\n    /* \"#utility.yul\":4308:4325   */\n  swap1\n  pop\n    /* \"#utility.yul\":4353:4355   */\n  0x1f\n    /* \"#utility.yul\":4345:4351   */\n  dup4\n    /* \"#utility.yul\":4342:4356   */\n  gt\n    /* \"#utility.yul\":4370:4371   */\n  0x01\n    /* \"#utility.yul\":4365:4983   */\n  dup2\n  eq\n  tag_82\n  jumpi\n    /* \"#utility.yul\":5027:5028   */\n  0x00\n    /* \"#utility.yul\":5044:5050   */\n  dup5\n    /* \"#utility.yul\":5041:5118   */\n  iszero\n  tag_83\n  jumpi\n    /* \"#utility.yul\":5093:5102   */\n  dup3\n    /* \"#utility.yul\":5088:5091   */\n  dup8\n    /* \"#utility.yul\":5084:5103   */\n  add\n    /* \"#utility.yul\":5078:5104   */\n  mload\n    /* \"#utility.yul\":5069:5104   */\n  swap1\n  pop\n    /* \"#utility.yul\":5041:5118   */\ntag_83:\n    /* \"#utility.yul\":5144:5211   */\n  tag_84\n    /* \"#utility.yul\":5204:5210   */\n  dup6\n    /* \"#utility.yul\":5197:5202   */\n  dup3\n    /* \"#utility.yul\":5144:5211   */\n  tag_26\n  jump\t// in\ntag_84:\n    /* \"#utility.yul\":5138:5142   */\n  dup7\n    /* \"#utility.yul\":5131:5212   */\n  sstore\n    /* \"#utility.yul\":5000:5222   */\n  pop\n    /* \"#utility.yul\":4335:5222   */\n  jump(tag_81)\n    /* \"#utility.yul\":4365:4983   */\ntag_82:\n    /* \"#utility.yul\":4417:4421   */\n  0x1f\n    /* \"#utility.yul\":4413:4422   */\n  not\n    /* \"#utility.yul\":4405:4411   */\n  dup5\n    /* \"#utility.yul\":4401:4423   */\n  and\n    /* \"#utility.yul\":4451:4488   */\n  tag_85\n    /* \"#utility.yul\":4483:4487   */\n  dup7\n    /* \"#utility.yul\":4451:4488   */\n  tag_11\n  jump\t// in\ntag_85:\n    /* \"#utility.yul\":4510:4511   */\n  0x00\n    /* \"#utility.yul\":4524:4732   */\ntag_86:\n    /* \"#utility.yul\":4538:4545   */\n  dup3\n    /* \"#utility.yul\":4535:4536   */\n  dup2\n    /* \"#utility.yul\":4532:4546   */\n  lt\n    /* \"#utility.yul\":4524:4732   */\n  iszero\n  tag_88\n  jumpi\n    /* \"#utility.yul\":4617:4626   */\n  dup5\n    /* \"#utility.yul\":4612:4615   */\n  dup10\n    /* \"#utility.yul\":4608:4627   */\n  add\n    /* \"#utility.yul\":4602:4628   */\n  mload\n    /* \"#utility.yul\":4594:4600   */\n  dup3\n    /* \"#utility.yul\":4587:4629   */\n  sstore\n    /* \"#utility.yul\":4668:4669   */\n  0x01\n    /* \"#utility.yul\":4660:4666   */\n  dup3\n    /* \"#utility.yul\":4656:4670   */\n  add\n    /* \"#utility.yul\":4646:4670   */\n  swap2\n  pop\n    /* \"#utility.yul\":4715:4717   */\n  0x20\n    /* \"#utility.yul\":4704:4713   */\n  dup6\n    /* \"#utility.yul\":4700:4718   */\n  add\n    /* \"#utility.yul\":4687:4718   */\n  swap5\n  pop\n    /* \"#utility.yul\":4561:4565   */\n  0x20\n    /* \"#utility.yul\":4558:4559   */\n  dup2\n    /* \"#utility.yul\":4554:4566   */\n  add\n    /* \"#utility.yul\":4549:4566   */\n  swap1\n  pop\n    /* \"#utility.yul\":4524:4732   */\n  jump(tag_86)\ntag_88:\n    /* \"#utility.yul\":4760:4766   */\n  dup7\n    /* \"#utility.yul\":4751:4758   */\n  dup4\n    /* \"#utility.yul\":4748:4767   */\n  lt\n    /* \"#utility.yul\":4745:4924   */\n  iszero\n  tag_89\n  jumpi\n    /* \"#utility.yul\":4818:4827   */\n  dup5\n    /* \"#utility.yul\":4813:4816   */\n  dup10\n    /* \"#utility.yul\":4809:4828   */\n  add\n    /* \"#utility.yul\":4803:4829   */\n  mload\n    /* \"#utility.yul\":4861:4909   */\n  tag_90\n    /* \"#utility.yul\":4903:4907   */\n  0x1f\n    /* \"#utility.yul\":4895:4901   */\n  dup10\n    /* \"#utility.yul\":4891:4908   */\n  and\n    /* \"#utility.yul\":4880:4889   */\n  dup3\n    /* \"#utility.yul\":4861:4909   */\n  tag_25\n  jump\t// in\ntag_90:\n    /* \"#utility.yul\":4853:4859   */\n  dup4\n    /* \"#utility.yul\":4846:4910   */\n  sstore\n    /* \"#utility.yul\":4768:4924   */\n  pop\n    /* \"#utility.yul\":4745:4924   */\ntag_89:\n    /* \"#utility.yul\":4970:4971   */\n  0x01\n    /* \"#utility.yul\":4966:4967   */\n  0x02\n    /* \"#utility.yul\":4958:4964   */\n  dup9\n    /* \"#utility.yul\":4954:4968   */\n  mul\n    /* \"#utility.yul\":4950:4972   */\n  add\n    /* \"#utility.yul\":4944:4948   */\n  dup9\n    /* \"#utility.yul\":4937:4973   */\n  sstore\n    /* \"#utility.yul\":4372:4983   */\n  pop\n  pop\n  pop\n    /* \"#utility.yul\":4335:5222   */\ntag_81:\n  pop\n    /* \"#utility.yul\":3925:5228   */\n  pop\n  pop\n  pop\n    /* \"#utility.yul\":3833:5228   */\n  pop\n  pop\n  jump\t// out\n    /* \"#utility.yul\":5234:5374   */\ntag_27:\n    /* \"#utility.yul\":5282:5286   */\n  0x00\n    /* \"#utility.yul\":5305:5308   */\n  dup2\n    /* \"#utility.yul\":5297:5308   */\n  swap1\n  pop\n    /* \"#utility.yul\":5328:5331   */\n  dup2\n    /* \"#utility.yul\":5325:5326   */\n  0x00\n    /* \"#utility.yul\":5318:5332   */\n  mstore\n    /* \"#utility.yul\":5362:5366   */\n  0x20\n    /* \"#utility.yul\":5359:5360   */\n  0x00\n    /* \"#utility.yul\":5349:5367   */\n  keccak256\n    /* \"#utility.yul\":5341:5367   */\n  swap1\n  pop\n    /* \"#utility.yul\":5234:5374   */\n  swap2\n  swap1\n  pop\n  jump\t// out\n    /* \"#utility.yul\":5380:5921   */\ntag_28:\n    /* \"#utility.yul\":5480:5482   */\n  0x1f\n    /* \"#utility.yul\":5475:5478   */\n  dup3\n    /* \"#utility.yul\":5472:5483   */\n  gt\n    /* \"#utility.yul\":5469:5914   */\n  iszero\n  tag_93\n  jumpi\n    /* \"#utility.yul\":5514:5551   */\n  tag_94\n    /* \"#utility.yul\":5545:5550   */\n  dup2\n    /* \"#utility.yul\":5514:5551   */\n  tag_27\n  jump\t// in\ntag_94:\n    /* \"#utility.yul\":5597:5626   */\n  tag_95\n    /* \"#utility.yul\":5615:5625   */\n  dup5\n    /* \"#utility.yul\":5597:5626   */\n  tag_12\n  jump\t// in\ntag_95:\n    /* \"#utility.yul\":5587:5595   */\n  dup2\n    /* \"#utility.yul\":5583:5627   */\n  add\n    /* \"#utility.yul\":5780:5782   */\n  0x20\n    /* \"#utility.yul\":5768:5778   */\n  dup6\n    /* \"#utility.yul\":5765:5783   */\n  lt\n    /* \"#utility.yul\":5762:5811   */\n  iszero\n  tag_96\n  jumpi\n    /* \"#utility.yul\":5801:5809   */\n  dup2\n    /* \"#utility.yul\":5786:5809   */\n  swap1\n  pop\n    /* \"#utility.yul\":5762:5811   */\ntag_96:\n    /* \"#utility.yul\":5824:5904   */\n  tag_97\n    /* \"#utility.yul\":5880:5902   */\n  tag_98\n    /* \"#utility.yul\":5898:5901   */\n  dup6\n    /* \"#utility.yul\":5880:5902   */\n  tag_12\n  jump\t// in\ntag_98:\n    /* \"#utility.yul\":5870:5878   */\n  dup4\n    /* \"#utility.yul\":5866:5903   */\n  add\n    /* \"#utility.yul\":5853:5864   */\n  dup3\n    /* \"#utility.yul\":5824:5904   */\n  tag_22\n  jump\t// in\ntag_97:\n    /* \"#utility.yul\":5484:5914   */\n  pop\n  pop\n    /* \"#utility.yul\":5469:5914   */\ntag_93:\n    /* \"#utility.yul\":5380:5921   */\n  pop\n  pop\n  pop\n  jump\t// out\n    /* \"#utility.yul\":5927:7319   */\ntag_4:\n    /* \"#utility.yul\":6043:6080   */\n  tag_100\n    /* \"#utility.yul\":6076:6079   */\n  dup3\n    /* \"#utility.yul\":6043:6080   */\n  tag_7\n  jump\t// in\ntag_100:\n    /* \"#utility.yul\":6145:6163   */\n  0xffffffffffffffff\n    /* \"#utility.yul\":6137:6143   */\n  dup2\n    /* \"#utility.yul\":6134:6164   */\n  gt\n    /* \"#utility.yul\":6131:6187   */\n  iszero\n  tag_101\n  jumpi\n    /* \"#utility.yul\":6167:6185   */\n  tag_102\n  tag_8\n  jump\t// in\ntag_102:\n    /* \"#utility.yul\":6131:6187   */\ntag_101:\n    /* \"#utility.yul\":6211:6249   */\n  tag_103\n    /* \"#utility.yul\":6243:6247   */\n  dup3\n    /* \"#utility.yul\":6237:6248   */\n  sload\n    /* \"#utility.yul\":6211:6249   */\n  tag_10\n  jump\t// in\ntag_103:\n    /* \"#utility.yul\":6296:6362   */\n  tag_104\n    /* \"#utility.yul\":6355:6361   */\n  dup3\n    /* \"#utility.yul\":6347:6353   */\n  dup3\n    /* \"#utility.yul\":6341:6345   */\n  dup6\n    /* \"#utility.yul\":6296:6362   */\n  tag_28\n  jump\t// in\ntag_104:\n    /* \"#utility.yul\":6389:6390   */\n  0x00\n    /* \"#utility.yul\":6413:6417   */\n  0x20\n    /* \"#utility.yul\":6400:6417   */\n  swap1\n  pop\n    /* \"#utility.yul\":6445:6447   */\n  0x1f\n    /* \"#utility.yul\":6437:6443   */\n  dup4\n    /* \"#utility.yul\":6434:6448   */\n  gt\n    /* \"#utility.yul\":6462:6463   */\n  0x01\n    /* \"#utility.yul\":6457:7074   */\n  dup2\n  eq\n  tag_106\n  jumpi\n    /* \"#utility.yul\":7118:7119   */\n  0x00\n    /* \"#utility.yul\":7135:7141   */\n  dup5\n    /* \"#utility.yul\":7132:7209   */\n  iszero\n  tag_107\n  jumpi\n    /* \"#utility.yul\":7184:7193   */\n  dup3\n    /* \"#utility.yul\":7179:7182   */\n  dup8\n    /* \"#utility.yul\":7175:7194   */\n  add\n    /* \"#utility.yul\":7169:7195   */\n  mload\n    /* \"#utility.yul\":7160:7195   */\n  swap1\n  pop\n    /* \"#utility.yul\":7132:7209   */\ntag_107:\n    /* \"#utility.yul\":7235:7302   */\n  tag_108\n    /* \"#utility.yul\":7295:7301   */\n  dup6\n    /* \"#utility.yul\":7288:7293   */\n  dup3\n    /* \"#utility.yul\":7235:7302   */\n  tag_26\n  jump\t// in\ntag_108:\n    /* \"#utility.yul\":7229:7233   */\n  dup7\n    /* \"#utility.yul\":7222:7303   */\n  sstore\n    /* \"#utility.yul\":7091:7313   */\n  pop\n    /* \"#utility.yul\":6427:7313   */\n  jump(tag_105)\n    /* \"#utility.yul\":6457:7074   */\ntag_106:\n    /* \"#utility.yul\":6509:6513   */\n  0x1f\n    /* \"#utility.yul\":6505:6514   */\n  not\n    /* \"#utility.yul\":6497:6503   */\n  dup5\n    /* \"#utility.yul\":6493:6515   */\n  and\n    /* \"#utility.yul\":6543:6579   */\n  tag_109\n    /* \"#utility.yul\":6574:6578   */\n  dup7\n    /* \"#utility.yul\":6543:6579   */\n  tag_27\n  jump\t// in\ntag_109:\n    /* \"#utility.yul\":6601:6602   */\n  0x00\n    /* \"#utility.yul\":6615:6823   */\ntag_110:\n    /* \"#utility.yul\":6629:6636   */\n  dup3\n    /* \"#utility.yul\":6626:6627   */\n  dup2\n    /* \"#utility.yul\":6623:6637   */\n  lt\n    /* \"#utility.yul\":6615:6823   */\n  iszero\n  tag_112\n  jumpi\n    /* \"#utility.yul\":6708:6717   */\n  dup5\n    /* \"#utility.yul\":6703:6706   */\n  dup10\n    /* \"#utility.yul\":6699:6718   */\n  add\n    /* \"#utility.yul\":6693:6719   */\n  mload\n    /* \"#utility.yul\":6685:6691   */\n  dup3\n    /* \"#utility.yul\":6678:6720   */\n  sstore\n    /* \"#utility.yul\":6759:6760   */\n  0x01\n    /* \"#utility.yul\":6751:6757   */\n  dup3\n    /* \"#utility.yul\":6747:6761   */\n  add\n    /* \"#utility.yul\":6737:6761   */\n  swap2\n  pop\n    /* \"#utility.yul\":6806:6808   */\n  0x20\n    /* \"#utility.yul\":6795:6804   */\n  dup6\n    /* \"#utility.yul\":6791:6809   */\n  add\n    /* \"#utility.yul\":6778:6809   */\n  swap5\n  pop\n    /* \"#utility.yul\":6652:6656   */\n  0x20\n    /* \"#utility.yul\":6649:6650   */\n  dup2\n    /* \"#utility.yul\":6645:6657   */\n  add\n    /* \"#utility.yul\":6640:6657   */\n  swap1\n  pop\n    /* \"#utility.yul\":6615:6823   */\n  jump(tag_110)\ntag_112:\n    /* \"#utility.yul\":6851:6857   */\n  dup7\n    /* \"#utility.yul\":6842:6849   */\n  dup4\n    /* \"#utility.yul\":6839:6858   */\n  lt\n    /* \"#utility.yul\":6836:7015   */\n  iszero\n  tag_113\n  jumpi\n    /* \"#utility.yul\":6909:6918   */\n  dup5\n    /* \"#utility.yul\":6904:6907   */\n  dup10\n    /* \"#utility.yul\":6900:6919   */\n  add\n    /* \"#utility.yul\":6894:6920   */\n  mload\n    /* \"#utility.yul\":6952:7000   */\n  tag_114\n    /* \"#utility.yul\":6994:6998   */\n  0x1f\n    /* \"#utility.yul\":6986:6992   */\n  dup10\n    /* \"#utility.yul\":6982:6999   */\n  and\n    /* \"#utility.yul\":6971:6980   */\n  dup3\n    /* \"#utility.yul\":6952:7000   */\n  tag_25\n  jump\t// in\ntag_114:\n    /* \"#utility.yul\":6944:6950   */\n  dup4\n    /* \"#utility.yul\":6937:7001   */\n  sstore\n    /* \"#utility.yul\":6859:7015   */\n  pop\n    /* \"#utility.yul\":6836:7015   */\ntag_113:\n    /* \"#utility.yul\":7061:7062   */\n  0x01\n    /* \"#utility.yul\":7057:7058   */\n  0x02\n    /* \"#utility.yul\":7049:7055   */\n  dup9\n    /* \"#utility.yul\":7045:7059   */\n  mul\n    /* \"#utility.yul\":7041:7063   */\n  add\n    /* \"#utility.yul\":7035:7039   */\n  dup9\n    /* \"#utility.yul\":7028:7064   */\n  sstore\n    /* \"#utility.yul\":6464:7074   */\n  pop\n  pop\n  pop\n    /* \"#utility.yul\":6427:7313   */\ntag_105:\n  pop\n    /* \"#utility.yul\":6018:7319   */\n  pop\n  pop\n  pop\n    /* \"#utility.yul\":5927:7319   */\n  pop\n  pop\n  jump\t// out\n    /* \"contracts/data-type.sol\":57:1469  contract DataType {... */\ntag_6:\n  dataSize(sub_0)\n  dup1\n  dataOffset(sub_0)\n  0x00\n  codecopy\n  0x00\n  return\nstop\n\nsub_0: assembly {\n        /* \"contracts/data-type.sol\":57:1469  contract DataType {... */\n      mstore(0x40, 0x80)\n      callvalue\n      dup1\n      iszero\n      tag_1\n      jumpi\n      0x00\n      dup1\n      revert\n    tag_1:\n      pop\n      jumpi(tag_2, lt(calldatasize, 0x04))\n      shr(0xe0, calldataload(0x00))\n      dup1\n      0x772f8390\n      gt\n      tag_19\n      jumpi\n      dup1\n      0xcbee0760\n      gt\n      tag_20\n      jumpi\n      dup1\n      0xcbee0760\n      eq\n      tag_15\n      jumpi\n      dup1\n      0xe4128fb3\n      eq\n      tag_16\n      jumpi\n      dup1\n      0xe7bcd88f\n      eq\n      tag_17\n      jumpi\n      dup1\n      0xecbbb967\n      eq\n      tag_18\n      jumpi\n      jump(tag_2)\n    tag_20:\n      dup1\n      0x772f8390\n      eq\n      tag_11\n      jumpi\n      dup1\n      0x8381f58a\n      eq\n      tag_12\n      jumpi\n      dup1\n      0xaaef20ea\n      eq\n      tag_13\n      jumpi\n      dup1\n      0xc15bae84\n      eq\n      tag_14\n      jumpi\n      jump(tag_2)\n    tag_19:\n      dup1\n      0x3fb5c1cb\n      gt\n      tag_21\n      jumpi\n      dup1\n      0x3fb5c1cb\n      eq\n      tag_7\n      jumpi\n      dup1\n      0x4f86f506\n      eq\n      tag_8\n      jumpi\n      dup1\n      0x5a4a58cc\n      eq\n      tag_9\n      jumpi\n      dup1\n      0x712f4602\n      eq\n      tag_10\n      jumpi\n      jump(tag_2)\n    tag_21:\n      dup1\n      0x74530a\n      eq\n      tag_3\n      jumpi\n      dup1\n      0x0189c9bd\n      eq\n      tag_4\n      jumpi\n      dup1\n      0x0aa56434\n      eq\n      tag_5\n      jumpi\n      dup1\n      0x191347df\n      eq\n      tag_6\n      jumpi\n    tag_2:\n      0x00\n      dup1\n      revert\n        /* \"contracts/data-type.sol\":81:107  bool public isTrue = false */\n    tag_3:\n      tag_22\n      tag_23\n      jump\t// in\n    tag_22:\n      mload(0x40)\n      tag_24\n      swap2\n      swap1\n      tag_25\n      jump\t// in\n    tag_24:\n      mload(0x40)\n      dup1\n      swap2\n      sub\n      swap1\n      return\n        /* \"contracts/data-type.sol\":372:406  int256 public intNumberValue = -10 */\n    tag_4:\n      tag_26\n      tag_27\n      jump\t// in\n    tag_26:\n      mload(0x40)\n      tag_28\n      swap2\n      swap1\n      tag_29\n      jump\t// in\n    tag_28:\n      mload(0x40)\n      dup1\n      swap2\n      sub\n      swap1\n      return\n        /* \"contracts/data-type.sol\":1272:1360  function setUserAddress(address _address) public {... */\n    tag_5:\n      tag_30\n      0x04\n      dup1\n      calldatasize\n      sub\n      dup2\n      add\n      swap1\n      tag_31\n      swap2\n      swap1\n      tag_32\n      jump\t// in\n    tag_31:\n      tag_33\n      jump\t// in\n    tag_30:\n      stop\n        /* \"contracts/data-type.sol\":860:930  function setStr(string memory _str) public {... */\n    tag_6:\n      tag_34\n      0x04\n      dup1\n      calldatasize\n      sub\n      dup2\n      add\n      swap1\n      tag_35\n      swap2\n      swap1\n      tag_36\n      jump\t// in\n    tag_35:\n      tag_37\n      jump\t// in\n    tag_34:\n      stop\n        /* \"contracts/data-type.sol\":613:689  function setNumber(uint256 _number) public {... */\n    tag_7:\n      tag_38\n      0x04\n      dup1\n      calldatasize\n      sub\n      dup2\n      add\n      swap1\n      tag_39\n      swap2\n      swap1\n      tag_40\n      jump\t// in\n    tag_39:\n      tag_41\n      jump\t// in\n    tag_38:\n      stop\n        /* \"contracts/data-type.sol\":936:1168  function compareStrings(string memory _checkString)... */\n    tag_8:\n      tag_42\n      0x04\n      dup1\n      calldatasize\n      sub\n      dup2\n      add\n      swap1\n      tag_43\n      swap2\n      swap1\n      tag_36\n      jump\t// in\n    tag_43:\n      tag_44\n      jump\t// in\n    tag_42:\n      mload(0x40)\n      tag_45\n      swap2\n      swap1\n      tag_25\n      jump\t// in\n    tag_45:\n      mload(0x40)\n      dup1\n      swap2\n      sub\n      swap1\n      return\n        /* \"contracts/data-type.sol\":534:607  function setIsTrue(bool _isTrue) public {... */\n    tag_9:\n      tag_46\n      0x04\n      dup1\n      calldatasize\n      sub\n      dup2\n      add\n      swap1\n      tag_47\n      swap2\n      swap1\n      tag_48\n      jump\t// in\n    tag_47:\n      tag_49\n      jump\t// in\n    tag_46:\n      stop\n        /* \"contracts/data-type.sol\":455:494  bytes public myBytes = \"Hello Solidity\" */\n    tag_10:\n      tag_50\n      tag_51\n      jump\t// in\n    tag_50:\n      mload(0x40)\n      tag_52\n      swap2\n      swap1\n      tag_53\n      jump\t// in\n    tag_52:\n      mload(0x40)\n      dup1\n      swap2\n      sub\n      swap1\n      return\n        /* \"contracts/data-type.sol\":762:854  function decreaseNumber() public {... */\n    tag_11:\n      tag_54\n      tag_55\n      jump\t// in\n    tag_54:\n      stop\n        /* \"contracts/data-type.sol\":155:180  uint256 public number = 0 */\n    tag_12:\n      tag_56\n      tag_57\n      jump\t// in\n    tag_56:\n      mload(0x40)\n      tag_58\n      swap2\n      swap1\n      tag_59\n      jump\t// in\n    tag_58:\n      mload(0x40)\n      dup1\n      swap2\n      sub\n      swap1\n      return\n        /* \"contracts/data-type.sol\":295:324  uint8 public uint8Value = 250 */\n    tag_13:\n      tag_60\n      tag_61\n      jump\t// in\n    tag_60:\n      mload(0x40)\n      tag_62\n      swap2\n      swap1\n      tag_63\n      jump\t// in\n    tag_62:\n      mload(0x40)\n      dup1\n      swap2\n      sub\n      swap1\n      return\n        /* \"contracts/data-type.sol\":413:449  string public str = \"Hello Solidity\" */\n    tag_14:\n      tag_64\n      tag_65\n      jump\t// in\n    tag_64:\n      mload(0x40)\n      tag_66\n      swap2\n      swap1\n      tag_67\n      jump\t// in\n    tag_66:\n      mload(0x40)\n      dup1\n      swap2\n      sub\n      swap1\n      return\n        /* \"contracts/data-type.sol\":1366:1467  function getUserAddressBalance() public view returns(uint){... */\n    tag_15:\n      tag_68\n      tag_69\n      jump\t// in\n    tag_68:\n      mload(0x40)\n      tag_70\n      swap2\n      swap1\n      tag_59\n      jump\t// in\n    tag_70:\n      mload(0x40)\n      dup1\n      swap2\n      sub\n      swap1\n      return\n        /* \"contracts/data-type.sol\":501:527  address public userAddress */\n    tag_16:\n      tag_71\n      tag_72\n      jump\t// in\n    tag_71:\n      mload(0x40)\n      tag_73\n      swap2\n      swap1\n      tag_74\n      jump\t// in\n    tag_73:\n      mload(0x40)\n      dup1\n      swap2\n      sub\n      swap1\n      return\n        /* \"contracts/data-type.sol\":1174:1266  function getBytesSize() public view returns (uint256) {... */\n    tag_17:\n      tag_75\n      tag_76\n      jump\t// in\n    tag_75:\n      mload(0x40)\n      tag_77\n      swap2\n      swap1\n      tag_59\n      jump\t// in\n    tag_77:\n      mload(0x40)\n      dup1\n      swap2\n      sub\n      swap1\n      return\n        /* \"contracts/data-type.sol\":695:756  function increaseUint8() public {... */\n    tag_18:\n      tag_78\n      tag_79\n      jump\t// in\n    tag_78:\n      stop\n        /* \"contracts/data-type.sol\":81:107  bool public isTrue = false */\n    tag_23:\n      0x00\n      dup1\n      sload\n      swap1\n      0x0100\n      exp\n      swap1\n      div\n      0xff\n      and\n      dup2\n      jump\t// out\n        /* \"contracts/data-type.sol\":372:406  int256 public intNumberValue = -10 */\n    tag_27:\n      sload(0x03)\n      dup2\n      jump\t// out\n        /* \"contracts/data-type.sol\":1272:1360  function setUserAddress(address _address) public {... */\n    tag_33:\n        /* \"contracts/data-type.sol\":1345:1353  _address */\n      dup1\n        /* \"contracts/data-type.sol\":1331:1342  userAddress */\n      0x06\n      0x00\n        /* \"contracts/data-type.sol\":1331:1353  userAddress = _address */\n      0x0100\n      exp\n      dup2\n      sload\n      dup2\n      0xffffffffffffffffffffffffffffffffffffffff\n      mul\n      not\n      and\n      swap1\n      dup4\n      0xffffffffffffffffffffffffffffffffffffffff\n      and\n      mul\n      or\n      swap1\n      sstore\n      pop\n        /* \"contracts/data-type.sol\":1272:1360  function setUserAddress(address _address) public {... */\n      pop\n      jump\t// out\n        /* \"contracts/data-type.sol\":860:930  function setStr(string memory _str) public {... */\n    tag_37:\n        /* \"contracts/data-type.sol\":919:923  _str */\n      dup1\n        /* \"contracts/data-type.sol\":913:916  str */\n      0x04\n        /* \"contracts/data-type.sol\":913:923  str = _str */\n      swap1\n      dup2\n      tag_82\n      swap2\n      swap1\n      tag_83\n      jump\t// in\n    tag_82:\n      pop\n        /* \"contracts/data-type.sol\":860:930  function setStr(string memory _str) public {... */\n      pop\n      jump\t// out\n        /* \"contracts/data-type.sol\":613:689  function setNumber(uint256 _number) public {... */\n    tag_41:\n        /* \"contracts/data-type.sol\":675:682  _number */\n      dup1\n        /* \"contracts/data-type.sol\":666:672  number */\n      0x01\n        /* \"contracts/data-type.sol\":666:682  number = _number */\n      dup2\n      swap1\n      sstore\n      pop\n        /* \"contracts/data-type.sol\":613:689  function setNumber(uint256 _number) public {... */\n      pop\n      jump\t// out\n        /* \"contracts/data-type.sol\":936:1168  function compareStrings(string memory _checkString)... */\n    tag_44:\n        /* \"contracts/data-type.sol\":1033:1037  bool */\n      0x00\n        /* \"contracts/data-type.sol\":1147:1159  _checkString */\n      dup2\n        /* \"contracts/data-type.sol\":1130:1160  abi.encodePacked(_checkString) */\n      add(0x20, mload(0x40))\n      tag_86\n      swap2\n      swap1\n      tag_87\n      jump\t// in\n    tag_86:\n      mload(0x40)\n      0x20\n      dup2\n      dup4\n      sub\n      sub\n      dup2\n      mstore\n      swap1\n      0x40\n      mstore\n        /* \"contracts/data-type.sol\":1120:1161  keccak256(abi.encodePacked(_checkString)) */\n      dup1\n      mload\n      swap1\n      0x20\n      add\n      keccak256\n        /* \"contracts/data-type.sol\":1099:1102  str */\n      0x04\n        /* \"contracts/data-type.sol\":1082:1103  abi.encodePacked(str) */\n      add(0x20, mload(0x40))\n      tag_88\n      swap2\n      swap1\n      tag_89\n      jump\t// in\n    tag_88:\n      mload(0x40)\n      0x20\n      dup2\n      dup4\n      sub\n      sub\n      dup2\n      mstore\n      swap1\n      0x40\n      mstore\n        /* \"contracts/data-type.sol\":1072:1104  keccak256(abi.encodePacked(str)) */\n      dup1\n      mload\n      swap1\n      0x20\n      add\n      keccak256\n        /* \"contracts/data-type.sol\":1072:1161  keccak256(abi.encodePacked(str)) ==... */\n      eq\n        /* \"contracts/data-type.sol\":1053:1161  return... */\n      swap1\n      pop\n        /* \"contracts/data-type.sol\":936:1168  function compareStrings(string memory _checkString)... */\n      swap2\n      swap1\n      pop\n      jump\t// out\n        /* \"contracts/data-type.sol\":534:607  function setIsTrue(bool _isTrue) public {... */\n    tag_49:\n        /* \"contracts/data-type.sol\":593:600  _isTrue */\n      dup1\n        /* \"contracts/data-type.sol\":584:590  isTrue */\n      0x00\n      dup1\n        /* \"contracts/data-type.sol\":584:600  isTrue = _isTrue */\n      0x0100\n      exp\n      dup2\n      sload\n      dup2\n      0xff\n      mul\n      not\n      and\n      swap1\n      dup4\n      iszero\n      iszero\n      mul\n      or\n      swap1\n      sstore\n      pop\n        /* \"contracts/data-type.sol\":534:607  function setIsTrue(bool _isTrue) public {... */\n      pop\n      jump\t// out\n        /* \"contracts/data-type.sol\":455:494  bytes public myBytes = \"Hello Solidity\" */\n    tag_51:\n      0x05\n      dup1\n      sload\n      tag_91\n      swap1\n      tag_92\n      jump\t// in\n    tag_91:\n      dup1\n      0x1f\n      add\n      0x20\n      dup1\n      swap2\n      div\n      mul\n      0x20\n      add\n      mload(0x40)\n      swap1\n      dup2\n      add\n      0x40\n      mstore\n      dup1\n      swap3\n      swap2\n      swap1\n      dup2\n      dup2\n      mstore\n      0x20\n      add\n      dup3\n      dup1\n      sload\n      tag_93\n      swap1\n      tag_92\n      jump\t// in\n    tag_93:\n      dup1\n      iszero\n      tag_94\n      jumpi\n      dup1\n      0x1f\n      lt\n      tag_95\n      jumpi\n      0x0100\n      dup1\n      dup4\n      sload\n      div\n      mul\n      dup4\n      mstore\n      swap2\n      0x20\n      add\n      swap2\n      jump(tag_94)\n    tag_95:\n      dup3\n      add\n      swap2\n      swap1\n      0x00\n      mstore\n      keccak256(0x00, 0x20)\n      swap1\n    tag_96:\n      dup2\n      sload\n      dup2\n      mstore\n      swap1\n      0x01\n      add\n      swap1\n      0x20\n      add\n      dup1\n      dup4\n      gt\n      tag_96\n      jumpi\n      dup3\n      swap1\n      sub\n      0x1f\n      and\n      dup3\n      add\n      swap2\n    tag_94:\n      pop\n      pop\n      pop\n      pop\n      pop\n      dup2\n      jump\t// out\n        /* \"contracts/data-type.sol\":762:854  function decreaseNumber() public {... */\n    tag_55:\n        /* \"contracts/data-type.sol\":829:835  number */\n      0x01\n      0x00\n        /* \"contracts/data-type.sol\":829:837  number-- */\n      dup2\n      sload\n      dup1\n      swap3\n      swap2\n      swap1\n      0x01\n      swap1\n      sub\n      swap2\n      swap1\n      pop\n      sstore\n      pop\n        /* \"contracts/data-type.sol\":762:854  function decreaseNumber() public {... */\n      jump\t// out\n        /* \"contracts/data-type.sol\":155:180  uint256 public number = 0 */\n    tag_57:\n      sload(0x01)\n      dup2\n      jump\t// out\n        /* \"contracts/data-type.sol\":295:324  uint8 public uint8Value = 250 */\n    tag_61:\n      0x02\n      0x00\n      swap1\n      sload\n      swap1\n      0x0100\n      exp\n      swap1\n      div\n      0xff\n      and\n      dup2\n      jump\t// out\n        /* \"contracts/data-type.sol\":413:449  string public str = \"Hello Solidity\" */\n    tag_65:\n      0x04\n      dup1\n      sload\n      tag_98\n      swap1\n      tag_92\n      jump\t// in\n    tag_98:\n      dup1\n      0x1f\n      add\n      0x20\n      dup1\n      swap2\n      div\n      mul\n      0x20\n      add\n      mload(0x40)\n      swap1\n      dup2\n      add\n      0x40\n      mstore\n      dup1\n      swap3\n      swap2\n      swap1\n      dup2\n      dup2\n      mstore\n      0x20\n      add\n      dup3\n      dup1\n      sload\n      tag_99\n      swap1\n      tag_92\n      jump\t// in\n    tag_99:\n      dup1\n      iszero\n      tag_100\n      jumpi\n      dup1\n      0x1f\n      lt\n      tag_101\n      jumpi\n      0x0100\n      dup1\n      dup4\n      sload\n      div\n      mul\n      dup4\n      mstore\n      swap2\n      0x20\n      add\n      swap2\n      jump(tag_100)\n    tag_101:\n      dup3\n      add\n      swap2\n      swap1\n      0x00\n      mstore\n      keccak256(0x00, 0x20)\n      swap1\n    tag_102:\n      dup2\n      sload\n      dup2\n      mstore\n      swap1\n      0x01\n      add\n      swap1\n      0x20\n      add\n      dup1\n      dup4\n      gt\n      tag_102\n      jumpi\n      dup3\n      swap1\n      sub\n      0x1f\n      and\n      dup3\n      add\n      swap2\n    tag_100:\n      pop\n      pop\n      pop\n      pop\n      pop\n      dup2\n      jump\t// out\n        /* \"contracts/data-type.sol\":1366:1467  function getUserAddressBalance() public view returns(uint){... */\n    tag_69:\n        /* \"contracts/data-type.sol\":1419:1423  uint */\n      0x00\n        /* \"contracts/data-type.sol\":1441:1452  userAddress */\n      0x06\n      0x00\n      swap1\n      sload\n      swap1\n      0x0100\n      exp\n      swap1\n      div\n      0xffffffffffffffffffffffffffffffffffffffff\n      and\n        /* \"contracts/data-type.sol\":1441:1460  userAddress.balance */\n      0xffffffffffffffffffffffffffffffffffffffff\n      and\n      balance\n        /* \"contracts/data-type.sol\":1434:1460  return userAddress.balance */\n      swap1\n      pop\n        /* \"contracts/data-type.sol\":1366:1467  function getUserAddressBalance() public view returns(uint){... */\n      swap1\n      jump\t// out\n        /* \"contracts/data-type.sol\":501:527  address public userAddress */\n    tag_72:\n      0x06\n      0x00\n      swap1\n      sload\n      swap1\n      0x0100\n      exp\n      swap1\n      div\n      0xffffffffffffffffffffffffffffffffffffffff\n      and\n      dup2\n      jump\t// out\n        /* \"contracts/data-type.sol\":1174:1266  function getBytesSize() public view returns (uint256) {... */\n    tag_76:\n        /* \"contracts/data-type.sol\":1219:1226  uint256 */\n      0x00\n        /* \"contracts/data-type.sol\":1245:1252  myBytes */\n      0x05\n        /* \"contracts/data-type.sol\":1245:1259  myBytes.length */\n      dup1\n      sload\n      tag_105\n      swap1\n      tag_92\n      jump\t// in\n    tag_105:\n      swap1\n      pop\n        /* \"contracts/data-type.sol\":1238:1259  return myBytes.length */\n      swap1\n      pop\n        /* \"contracts/data-type.sol\":1174:1266  function getBytesSize() public view returns (uint256) {... */\n      swap1\n      jump\t// out\n        /* \"contracts/data-type.sol\":695:756  function increaseUint8() public {... */\n    tag_79:\n        /* \"contracts/data-type.sol\":737:747  uint8Value */\n      0x02\n      0x00\n        /* \"contracts/data-type.sol\":737:749  uint8Value++ */\n      dup2\n      dup2\n      swap1\n      sload\n      swap1\n      0x0100\n      exp\n      swap1\n      div\n      0xff\n      and\n      dup1\n      swap3\n      swap2\n      swap1\n      tag_107\n      swap1\n      tag_108\n      jump\t// in\n    tag_107:\n      swap2\n      swap1\n      0x0100\n      exp\n      dup2\n      sload\n      dup2\n      0xff\n      mul\n      not\n      and\n      swap1\n      dup4\n      0xff\n      and\n      mul\n      or\n      swap1\n      sstore\n      pop\n      pop\n        /* \"contracts/data-type.sol\":695:756  function increaseUint8() public {... */\n      jump\t// out\n        /* \"#utility.yul\":7:97   */\n    tag_109:\n        /* \"#utility.yul\":41:48   */\n      0x00\n        /* \"#utility.yul\":84:89   */\n      dup2\n        /* \"#utility.yul\":77:90   */\n      iszero\n        /* \"#utility.yul\":70:91   */\n      iszero\n        /* \"#utility.yul\":59:91   */\n      swap1\n      pop\n        /* \"#utility.yul\":7:97   */\n      swap2\n      swap1\n      pop\n      jump\t// out\n        /* \"#utility.yul\":103:212   */\n    tag_110:\n        /* \"#utility.yul\":184:205   */\n      tag_169\n        /* \"#utility.yul\":199:204   */\n      dup2\n        /* \"#utility.yul\":184:205   */\n      tag_109\n      jump\t// in\n    tag_169:\n        /* \"#utility.yul\":179:182   */\n      dup3\n        /* \"#utility.yul\":172:206   */\n      mstore\n        /* \"#utility.yul\":103:212   */\n      pop\n      pop\n      jump\t// out\n        /* \"#utility.yul\":218:428   */\n    tag_25:\n        /* \"#utility.yul\":305:309   */\n      0x00\n        /* \"#utility.yul\":343:345   */\n      0x20\n        /* \"#utility.yul\":332:341   */\n      dup3\n        /* \"#utility.yul\":328:346   */\n      add\n        /* \"#utility.yul\":320:346   */\n      swap1\n      pop\n        /* \"#utility.yul\":356:421   */\n      tag_171\n        /* \"#utility.yul\":418:419   */\n      0x00\n        /* \"#utility.yul\":407:416   */\n      dup4\n        /* \"#utility.yul\":403:420   */\n      add\n        /* \"#utility.yul\":394:400   */\n      dup5\n        /* \"#utility.yul\":356:421   */\n      tag_110\n      jump\t// in\n    tag_171:\n        /* \"#utility.yul\":218:428   */\n      swap3\n      swap2\n      pop\n      pop\n      jump\t// out\n        /* \"#utility.yul\":434:510   */\n    tag_111:\n        /* \"#utility.yul\":470:477   */\n      0x00\n        /* \"#utility.yul\":499:504   */\n      dup2\n        /* \"#utility.yul\":488:504   */\n      swap1\n      pop\n        /* \"#utility.yul\":434:510   */\n      swap2\n      swap1\n      pop\n      jump\t// out\n        /* \"#utility.yul\":516:631   */\n    tag_112:\n        /* \"#utility.yul\":601:624   */\n      tag_174\n        /* \"#utility.yul\":618:623   */\n      dup2\n        /* \"#utility.yul\":601:624   */\n      tag_111\n      jump\t// in\n    tag_174:\n        /* \"#utility.yul\":596:599   */\n      dup3\n        /* \"#utility.yul\":589:625   */\n      mstore\n        /* \"#utility.yul\":516:631   */\n      pop\n      pop\n      jump\t// out\n        /* \"#utility.yul\":637:855   */\n    tag_29:\n        /* \"#utility.yul\":728:732   */\n      0x00\n        /* \"#utility.yul\":766:768   */\n      0x20\n        /* \"#utility.yul\":755:764   */\n      dup3\n        /* \"#utility.yul\":751:769   */\n      add\n        /* \"#utility.yul\":743:769   */\n      swap1\n      pop\n        /* \"#utility.yul\":779:848   */\n      tag_176\n        /* \"#utility.yul\":845:846   */\n      0x00\n        /* \"#utility.yul\":834:843   */\n      dup4\n        /* \"#utility.yul\":830:847   */\n      add\n        /* \"#utility.yul\":821:827   */\n      dup5\n        /* \"#utility.yul\":779:848   */\n      tag_112\n      jump\t// in\n    tag_176:\n        /* \"#utility.yul\":637:855   */\n      swap3\n      swap2\n      pop\n      pop\n      jump\t// out\n        /* \"#utility.yul\":861:936   */\n    tag_113:\n        /* \"#utility.yul\":894:900   */\n      0x00\n        /* \"#utility.yul\":927:929   */\n      0x40\n        /* \"#utility.yul\":921:930   */\n      mload\n        /* \"#utility.yul\":911:930   */\n      swap1\n      pop\n        /* \"#utility.yul\":861:936   */\n      swap1\n      jump\t// out\n        /* \"#utility.yul\":942:1059   */\n    tag_114:\n        /* \"#utility.yul\":1051:1052   */\n      0x00\n        /* \"#utility.yul\":1048:1049   */\n      dup1\n        /* \"#utility.yul\":1041:1053   */\n      revert\n        /* \"#utility.yul\":1065:1182   */\n    tag_115:\n        /* \"#utility.yul\":1174:1175   */\n      0x00\n        /* \"#utility.yul\":1171:1172   */\n      dup1\n        /* \"#utility.yul\":1164:1176   */\n      revert\n        /* \"#utility.yul\":1188:1314   */\n    tag_116:\n        /* \"#utility.yul\":1225:1232   */\n      0x00\n        /* \"#utility.yul\":1265:1307   */\n      0xffffffffffffffffffffffffffffffffffffffff\n        /* \"#utility.yul\":1258:1263   */\n      dup3\n        /* \"#utility.yul\":1254:1308   */\n      and\n        /* \"#utility.yul\":1243:1308   */\n      swap1\n      pop\n        /* \"#utility.yul\":1188:1314   */\n      swap2\n      swap1\n      pop\n      jump\t// out\n        /* \"#utility.yul\":1320:1416   */\n    tag_117:\n        /* \"#utility.yul\":1357:1364   */\n      0x00\n        /* \"#utility.yul\":1386:1410   */\n      tag_182\n        /* \"#utility.yul\":1404:1409   */\n      dup3\n        /* \"#utility.yul\":1386:1410   */\n      tag_116\n      jump\t// in\n    tag_182:\n        /* \"#utility.yul\":1375:1410   */\n      swap1\n      pop\n        /* \"#utility.yul\":1320:1416   */\n      swap2\n      swap1\n      pop\n      jump\t// out\n        /* \"#utility.yul\":1422:1544   */\n    tag_118:\n        /* \"#utility.yul\":1495:1519   */\n      tag_184\n        /* \"#utility.yul\":1513:1518   */\n      dup2\n        /* \"#utility.yul\":1495:1519   */\n      tag_117\n      jump\t// in\n    tag_184:\n        /* \"#utility.yul\":1488:1493   */\n      dup2\n        /* \"#utility.yul\":1485:1520   */\n      eq\n        /* \"#utility.yul\":1475:1538   */\n      tag_185\n      jumpi\n        /* \"#utility.yul\":1534:1535   */\n      0x00\n        /* \"#utility.yul\":1531:1532   */\n      dup1\n        /* \"#utility.yul\":1524:1536   */\n      revert\n        /* \"#utility.yul\":1475:1538   */\n    tag_185:\n        /* \"#utility.yul\":1422:1544   */\n      pop\n      jump\t// out\n        /* \"#utility.yul\":1550:1689   */\n    tag_119:\n        /* \"#utility.yul\":1596:1601   */\n      0x00\n        /* \"#utility.yul\":1634:1640   */\n      dup2\n        /* \"#utility.yul\":1621:1641   */\n      calldataload\n        /* \"#utility.yul\":1612:1641   */\n      swap1\n      pop\n        /* \"#utility.yul\":1650:1683   */\n      tag_187\n        /* \"#utility.yul\":1677:1682   */\n      dup2\n        /* \"#utility.yul\":1650:1683   */\n      tag_118\n      jump\t// in\n    tag_187:\n        /* \"#utility.yul\":1550:1689   */\n      swap3\n      swap2\n      pop\n      pop\n      jump\t// out\n        /* \"#utility.yul\":1695:2024   */\n    tag_32:\n        /* \"#utility.yul\":1754:1760   */\n      0x00\n        /* \"#utility.yul\":1803:1805   */\n      0x20\n        /* \"#utility.yul\":1791:1800   */\n      dup3\n        /* \"#utility.yul\":1782:1789   */\n      dup5\n        /* \"#utility.yul\":1778:1801   */\n      sub\n        /* \"#utility.yul\":1774:1806   */\n      slt\n        /* \"#utility.yul\":1771:1890   */\n      iszero\n      tag_189\n      jumpi\n        /* \"#utility.yul\":1809:1888   */\n      tag_190\n      tag_114\n      jump\t// in\n    tag_190:\n        /* \"#utility.yul\":1771:1890   */\n    tag_189:\n        /* \"#utility.yul\":1929:1930   */\n      0x00\n        /* \"#utility.yul\":1954:2007   */\n      tag_191\n        /* \"#utility.yul\":1999:2006   */\n      dup5\n        /* \"#utility.yul\":1990:1996   */\n      dup3\n        /* \"#utility.yul\":1979:1988   */\n      dup6\n        /* \"#utility.yul\":1975:1997   */\n      add\n        /* \"#utility.yul\":1954:2007   */\n      tag_119\n      jump\t// in\n    tag_191:\n        /* \"#utility.yul\":1944:2007   */\n      swap2\n      pop\n        /* \"#utility.yul\":1900:2017   */\n      pop\n        /* \"#utility.yul\":1695:2024   */\n      swap3\n      swap2\n      pop\n      pop\n      jump\t// out\n        /* \"#utility.yul\":2030:2147   */\n    tag_120:\n        /* \"#utility.yul\":2139:2140   */\n      0x00\n        /* \"#utility.yul\":2136:2137   */\n      dup1\n        /* \"#utility.yul\":2129:2141   */\n      revert\n        /* \"#utility.yul\":2153:2270   */\n    tag_121:\n        /* \"#utility.yul\":2262:2263   */\n      0x00\n        /* \"#utility.yul\":2259:2260   */\n      dup1\n        /* \"#utility.yul\":2252:2264   */\n      revert\n        /* \"#utility.yul\":2276:2378   */\n    tag_122:\n        /* \"#utility.yul\":2317:2323   */\n      0x00\n        /* \"#utility.yul\":2368:2370   */\n      0x1f\n        /* \"#utility.yul\":2364:2371   */\n      not\n        /* \"#utility.yul\":2359:2361   */\n      0x1f\n        /* \"#utility.yul\":2352:2357   */\n      dup4\n        /* \"#utility.yul\":2348:2362   */\n      add\n        /* \"#utility.yul\":2344:2372   */\n      and\n        /* \"#utility.yul\":2334:2372   */\n      swap1\n      pop\n        /* \"#utility.yul\":2276:2378   */\n      swap2\n      swap1\n      pop\n      jump\t// out\n        /* \"#utility.yul\":2384:2564   */\n    tag_123:\n        /* \"#utility.yul\":2432:2509   */\n      0x4e487b7100000000000000000000000000000000000000000000000000000000\n        /* \"#utility.yul\":2429:2430   */\n      0x00\n        /* \"#utility.yul\":2422:2510   */\n      mstore\n        /* \"#utility.yul\":2529:2533   */\n      0x41\n        /* \"#utility.yul\":2526:2527   */\n      0x04\n        /* \"#utility.yul\":2519:2534   */\n      mstore\n        /* \"#utility.yul\":2553:2557   */\n      0x24\n        /* \"#utility.yul\":2550:2551   */\n      0x00\n        /* \"#utility.yul\":2543:2558   */\n      revert\n        /* \"#utility.yul\":2570:2851   */\n    tag_124:\n        /* \"#utility.yul\":2653:2680   */\n      tag_197\n        /* \"#utility.yul\":2675:2679   */\n      dup3\n        /* \"#utility.yul\":2653:2680   */\n      tag_122\n      jump\t// in\n    tag_197:\n        /* \"#utility.yul\":2645:2651   */\n      dup2\n        /* \"#utility.yul\":2641:2681   */\n      add\n        /* \"#utility.yul\":2783:2789   */\n      dup2\n        /* \"#utility.yul\":2771:2781   */\n      dup2\n        /* \"#utility.yul\":2768:2790   */\n      lt\n        /* \"#utility.yul\":2747:2765   */\n      0xffffffffffffffff\n        /* \"#utility.yul\":2735:2745   */\n      dup3\n        /* \"#utility.yul\":2732:2766   */\n      gt\n        /* \"#utility.yul\":2729:2791   */\n      or\n        /* \"#utility.yul\":2726:2814   */\n      iszero\n      tag_198\n      jumpi\n        /* \"#utility.yul\":2794:2812   */\n      tag_199\n      tag_123\n      jump\t// in\n    tag_199:\n        /* \"#utility.yul\":2726:2814   */\n    tag_198:\n        /* \"#utility.yul\":2834:2844   */\n      dup1\n        /* \"#utility.yul\":2830:2832   */\n      0x40\n        /* \"#utility.yul\":2823:2845   */\n      mstore\n        /* \"#utility.yul\":2613:2851   */\n      pop\n        /* \"#utility.yul\":2570:2851   */\n      pop\n      pop\n      jump\t// out\n        /* \"#utility.yul\":2857:2986   */\n    tag_125:\n        /* \"#utility.yul\":2891:2897   */\n      0x00\n        /* \"#utility.yul\":2918:2938   */\n      tag_201\n      tag_113\n      jump\t// in\n    tag_201:\n        /* \"#utility.yul\":2908:2938   */\n      swap1\n      pop\n        /* \"#utility.yul\":2947:2980   */\n      tag_202\n        /* \"#utility.yul\":2975:2979   */\n      dup3\n        /* \"#utility.yul\":2967:2973   */\n      dup3\n        /* \"#utility.yul\":2947:2980   */\n      tag_124\n      jump\t// in\n    tag_202:\n        /* \"#utility.yul\":2857:2986   */\n      swap2\n      swap1\n      pop\n      jump\t// out\n        /* \"#utility.yul\":2992:3300   */\n    tag_126:\n        /* \"#utility.yul\":3054:3058   */\n      0x00\n        /* \"#utility.yul\":3144:3162   */\n      0xffffffffffffffff\n        /* \"#utility.yul\":3136:3142   */\n      dup3\n        /* \"#utility.yul\":3133:3163   */\n      gt\n        /* \"#utility.yul\":3130:3186   */\n      iszero\n      tag_204\n      jumpi\n        /* \"#utility.yul\":3166:3184   */\n      tag_205\n      tag_123\n      jump\t// in\n    tag_205:\n        /* \"#utility.yul\":3130:3186   */\n    tag_204:\n        /* \"#utility.yul\":3204:3233   */\n      tag_206\n        /* \"#utility.yul\":3226:3232   */\n      dup3\n        /* \"#utility.yul\":3204:3233   */\n      tag_122\n      jump\t// in\n    tag_206:\n        /* \"#utility.yul\":3196:3233   */\n      swap1\n      pop\n        /* \"#utility.yul\":3288:3292   */\n      0x20\n        /* \"#utility.yul\":3282:3286   */\n      dup2\n        /* \"#utility.yul\":3278:3293   */\n      add\n        /* \"#utility.yul\":3270:3293   */\n      swap1\n      pop\n        /* \"#utility.yul\":2992:3300   */\n      swap2\n      swap1\n      pop\n      jump\t// out\n        /* \"#utility.yul\":3306:3452   */\n    tag_127:\n        /* \"#utility.yul\":3403:3409   */\n      dup3\n        /* \"#utility.yul\":3398:3401   */\n      dup2\n        /* \"#utility.yul\":3393:3396   */\n      dup4\n        /* \"#utility.yul\":3380:3410   */\n      calldatacopy\n        /* \"#utility.yul\":3444:3445   */\n      0x00\n        /* \"#utility.yul\":3435:3441   */\n      dup4\n        /* \"#utility.yul\":3430:3433   */\n      dup4\n        /* \"#utility.yul\":3426:3442   */\n      add\n        /* \"#utility.yul\":3419:3446   */\n      mstore\n        /* \"#utility.yul\":3306:3452   */\n      pop\n      pop\n      pop\n      jump\t// out\n        /* \"#utility.yul\":3458:3883   */\n    tag_128:\n        /* \"#utility.yul\":3536:3541   */\n      0x00\n        /* \"#utility.yul\":3561:3627   */\n      tag_209\n        /* \"#utility.yul\":3577:3626   */\n      tag_210\n        /* \"#utility.yul\":3619:3625   */\n      dup5\n        /* \"#utility.yul\":3577:3626   */\n      tag_126\n      jump\t// in\n    tag_210:\n        /* \"#utility.yul\":3561:3627   */\n      tag_125\n      jump\t// in\n    tag_209:\n        /* \"#utility.yul\":3552:3627   */\n      swap1\n      pop\n        /* \"#utility.yul\":3650:3656   */\n      dup3\n        /* \"#utility.yul\":3643:3648   */\n      dup2\n        /* \"#utility.yul\":3636:3657   */\n      mstore\n        /* \"#utility.yul\":3688:3692   */\n      0x20\n        /* \"#utility.yul\":3681:3686   */\n      dup2\n        /* \"#utility.yul\":3677:3693   */\n      add\n        /* \"#utility.yul\":3726:3729   */\n      dup5\n        /* \"#utility.yul\":3717:3723   */\n      dup5\n        /* \"#utility.yul\":3712:3715   */\n      dup5\n        /* \"#utility.yul\":3708:3724   */\n      add\n        /* \"#utility.yul\":3705:3730   */\n      gt\n        /* \"#utility.yul\":3702:3814   */\n      iszero\n      tag_211\n      jumpi\n        /* \"#utility.yul\":3733:3812   */\n      tag_212\n      tag_121\n      jump\t// in\n    tag_212:\n        /* \"#utility.yul\":3702:3814   */\n    tag_211:\n        /* \"#utility.yul\":3823:3877   */\n      tag_213\n        /* \"#utility.yul\":3870:3876   */\n      dup5\n        /* \"#utility.yul\":3865:3868   */\n      dup3\n        /* \"#utility.yul\":3860:3863   */\n      dup6\n        /* \"#utility.yul\":3823:3877   */\n      tag_127\n      jump\t// in\n    tag_213:\n        /* \"#utility.yul\":3542:3883   */\n      pop\n        /* \"#utility.yul\":3458:3883   */\n      swap4\n      swap3\n      pop\n      pop\n      pop\n      jump\t// out\n        /* \"#utility.yul\":3903:4243   */\n    tag_129:\n        /* \"#utility.yul\":3959:3964   */\n      0x00\n        /* \"#utility.yul\":4008:4011   */\n      dup3\n        /* \"#utility.yul\":4001:4005   */\n      0x1f\n        /* \"#utility.yul\":3993:3999   */\n      dup4\n        /* \"#utility.yul\":3989:4006   */\n      add\n        /* \"#utility.yul\":3985:4012   */\n      slt\n        /* \"#utility.yul\":3975:4097   */\n      tag_215\n      jumpi\n        /* \"#utility.yul\":4016:4095   */\n      tag_216\n      tag_120\n      jump\t// in\n    tag_216:\n        /* \"#utility.yul\":3975:4097   */\n    tag_215:\n        /* \"#utility.yul\":4133:4139   */\n      dup2\n        /* \"#utility.yul\":4120:4140   */\n      calldataload\n        /* \"#utility.yul\":4158:4237   */\n      tag_217\n        /* \"#utility.yul\":4233:4236   */\n      dup5\n        /* \"#utility.yul\":4225:4231   */\n      dup3\n        /* \"#utility.yul\":4218:4222   */\n      0x20\n        /* \"#utility.yul\":4210:4216   */\n      dup7\n        /* \"#utility.yul\":4206:4223   */\n      add\n        /* \"#utility.yul\":4158:4237   */\n      tag_128\n      jump\t// in\n    tag_217:\n        /* \"#utility.yul\":4149:4237   */\n      swap2\n      pop\n        /* \"#utility.yul\":3965:4243   */\n      pop\n        /* \"#utility.yul\":3903:4243   */\n      swap3\n      swap2\n      pop\n      pop\n      jump\t// out\n        /* \"#utility.yul\":4249:4758   */\n    tag_36:\n        /* \"#utility.yul\":4318:4324   */\n      0x00\n        /* \"#utility.yul\":4367:4369   */\n      0x20\n        /* \"#utility.yul\":4355:4364   */\n      dup3\n        /* \"#utility.yul\":4346:4353   */\n      dup5\n        /* \"#utility.yul\":4342:4365   */\n      sub\n        /* \"#utility.yul\":4338:4370   */\n      slt\n        /* \"#utility.yul\":4335:4454   */\n      iszero\n      tag_219\n      jumpi\n        /* \"#utility.yul\":4373:4452   */\n      tag_220\n      tag_114\n      jump\t// in\n    tag_220:\n        /* \"#utility.yul\":4335:4454   */\n    tag_219:\n        /* \"#utility.yul\":4521:4522   */\n      0x00\n        /* \"#utility.yul\":4510:4519   */\n      dup3\n        /* \"#utility.yul\":4506:4523   */\n      add\n        /* \"#utility.yul\":4493:4524   */\n      calldataload\n        /* \"#utility.yul\":4551:4569   */\n      0xffffffffffffffff\n        /* \"#utility.yul\":4543:4549   */\n      dup2\n        /* \"#utility.yul\":4540:4570   */\n      gt\n        /* \"#utility.yul\":4537:4654   */\n      iszero\n      tag_221\n      jumpi\n        /* \"#utility.yul\":4573:4652   */\n      tag_222\n      tag_115\n      jump\t// in\n    tag_222:\n        /* \"#utility.yul\":4537:4654   */\n    tag_221:\n        /* \"#utility.yul\":4678:4741   */\n      tag_223\n        /* \"#utility.yul\":4733:4740   */\n      dup5\n        /* \"#utility.yul\":4724:4730   */\n      dup3\n        /* \"#utility.yul\":4713:4722   */\n      dup6\n        /* \"#utility.yul\":4709:4731   */\n      add\n        /* \"#utility.yul\":4678:4741   */\n      tag_129\n      jump\t// in\n    tag_223:\n        /* \"#utility.yul\":4668:4741   */\n      swap2\n      pop\n        /* \"#utility.yul\":4464:4751   */\n      pop\n        /* \"#utility.yul\":4249:4758   */\n      swap3\n      swap2\n      pop\n      pop\n      jump\t// out\n        /* \"#utility.yul\":4764:4841   */\n    tag_130:\n        /* \"#utility.yul\":4801:4808   */\n      0x00\n        /* \"#utility.yul\":4830:4835   */\n      dup2\n        /* \"#utility.yul\":4819:4835   */\n      swap1\n      pop\n        /* \"#utility.yul\":4764:4841   */\n      swap2\n      swap1\n      pop\n      jump\t// out\n        /* \"#utility.yul\":4847:4969   */\n    tag_131:\n        /* \"#utility.yul\":4920:4944   */\n      tag_226\n        /* \"#utility.yul\":4938:4943   */\n      dup2\n        /* \"#utility.yul\":4920:4944   */\n      tag_130\n      jump\t// in\n    tag_226:\n        /* \"#utility.yul\":4913:4918   */\n      dup2\n        /* \"#utility.yul\":4910:4945   */\n      eq\n        /* \"#utility.yul\":4900:4963   */\n      tag_227\n      jumpi\n        /* \"#utility.yul\":4959:4960   */\n      0x00\n        /* \"#utility.yul\":4956:4957   */\n      dup1\n        /* \"#utility.yul\":4949:4961   */\n      revert\n        /* \"#utility.yul\":4900:4963   */\n    tag_227:\n        /* \"#utility.yul\":4847:4969   */\n      pop\n      jump\t// out\n        /* \"#utility.yul\":4975:5114   */\n    tag_132:\n        /* \"#utility.yul\":5021:5026   */\n      0x00\n        /* \"#utility.yul\":5059:5065   */\n      dup2\n        /* \"#utility.yul\":5046:5066   */\n      calldataload\n        /* \"#utility.yul\":5037:5066   */\n      swap1\n      pop\n        /* \"#utility.yul\":5075:5108   */\n      tag_229\n        /* \"#utility.yul\":5102:5107   */\n      dup2\n        /* \"#utility.yul\":5075:5108   */\n      tag_131\n      jump\t// in\n    tag_229:\n        /* \"#utility.yul\":4975:5114   */\n      swap3\n      swap2\n      pop\n      pop\n      jump\t// out\n        /* \"#utility.yul\":5120:5449   */\n    tag_40:\n        /* \"#utility.yul\":5179:5185   */\n      0x00\n        /* \"#utility.yul\":5228:5230   */\n      0x20\n        /* \"#utility.yul\":5216:5225   */\n      dup3\n        /* \"#utility.yul\":5207:5214   */\n      dup5\n        /* \"#utility.yul\":5203:5226   */\n      sub\n        /* \"#utility.yul\":5199:5231   */\n      slt\n        /* \"#utility.yul\":5196:5315   */\n      iszero\n      tag_231\n      jumpi\n        /* \"#utility.yul\":5234:5313   */\n      tag_232\n      tag_114\n      jump\t// in\n    tag_232:\n        /* \"#utility.yul\":5196:5315   */\n    tag_231:\n        /* \"#utility.yul\":5354:5355   */\n      0x00\n        /* \"#utility.yul\":5379:5432   */\n      tag_233\n        /* \"#utility.yul\":5424:5431   */\n      dup5\n        /* \"#utility.yul\":5415:5421   */\n      dup3\n        /* \"#utility.yul\":5404:5413   */\n      dup6\n        /* \"#utility.yul\":5400:5422   */\n      add\n        /* \"#utility.yul\":5379:5432   */\n      tag_132\n      jump\t// in\n    tag_233:\n        /* \"#utility.yul\":5369:5432   */\n      swap2\n      pop\n        /* \"#utility.yul\":5325:5442   */\n      pop\n        /* \"#utility.yul\":5120:5449   */\n      swap3\n      swap2\n      pop\n      pop\n      jump\t// out\n        /* \"#utility.yul\":5455:5571   */\n    tag_133:\n        /* \"#utility.yul\":5525:5546   */\n      tag_235\n        /* \"#utility.yul\":5540:5545   */\n      dup2\n        /* \"#utility.yul\":5525:5546   */\n      tag_109\n      jump\t// in\n    tag_235:\n        /* \"#utility.yul\":5518:5523   */\n      dup2\n        /* \"#utility.yul\":5515:5547   */\n      eq\n        /* \"#utility.yul\":5505:5565   */\n      tag_236\n      jumpi\n        /* \"#utility.yul\":5561:5562   */\n      0x00\n        /* \"#utility.yul\":5558:5559   */\n      dup1\n        /* \"#utility.yul\":5551:5563   */\n      revert\n        /* \"#utility.yul\":5505:5565   */\n    tag_236:\n        /* \"#utility.yul\":5455:5571   */\n      pop\n      jump\t// out\n        /* \"#utility.yul\":5577:5710   */\n    tag_134:\n        /* \"#utility.yul\":5620:5625   */\n      0x00\n        /* \"#utility.yul\":5658:5664   */\n      dup2\n        /* \"#utility.yul\":5645:5665   */\n      calldataload\n        /* \"#utility.yul\":5636:5665   */\n      swap1\n      pop\n        /* \"#utility.yul\":5674:5704   */\n      tag_238\n        /* \"#utility.yul\":5698:5703   */\n      dup2\n        /* \"#utility.yul\":5674:5704   */\n      tag_133\n      jump\t// in\n    tag_238:\n        /* \"#utility.yul\":5577:5710   */\n      swap3\n      swap2\n      pop\n      pop\n      jump\t// out\n        /* \"#utility.yul\":5716:6039   */\n    tag_48:\n        /* \"#utility.yul\":5772:5778   */\n      0x00\n        /* \"#utility.yul\":5821:5823   */\n      0x20\n        /* \"#utility.yul\":5809:5818   */\n      dup3\n        /* \"#utility.yul\":5800:5807   */\n      dup5\n        /* \"#utility.yul\":5796:5819   */\n      sub\n        /* \"#utility.yul\":5792:5824   */\n      slt\n        /* \"#utility.yul\":5789:5908   */\n      iszero\n      tag_240\n      jumpi\n        /* \"#utility.yul\":5827:5906   */\n      tag_241\n      tag_114\n      jump\t// in\n    tag_241:\n        /* \"#utility.yul\":5789:5908   */\n    tag_240:\n        /* \"#utility.yul\":5947:5948   */\n      0x00\n        /* \"#utility.yul\":5972:6022   */\n      tag_242\n        /* \"#utility.yul\":6014:6021   */\n      dup5\n        /* \"#utility.yul\":6005:6011   */\n      dup3\n        /* \"#utility.yul\":5994:6003   */\n      dup6\n        /* \"#utility.yul\":5990:6012   */\n      add\n        /* \"#utility.yul\":5972:6022   */\n      tag_134\n      jump\t// in\n    tag_242:\n        /* \"#utility.yul\":5962:6022   */\n      swap2\n      pop\n        /* \"#utility.yul\":5918:6032   */\n      pop\n        /* \"#utility.yul\":5716:6039   */\n      swap3\n      swap2\n      pop\n      pop\n      jump\t// out\n        /* \"#utility.yul\":6045:6143   */\n    tag_135:\n        /* \"#utility.yul\":6096:6102   */\n      0x00\n        /* \"#utility.yul\":6130:6135   */\n      dup2\n        /* \"#utility.yul\":6124:6136   */\n      mload\n        /* \"#utility.yul\":6114:6136   */\n      swap1\n      pop\n        /* \"#utility.yul\":6045:6143   */\n      swap2\n      swap1\n      pop\n      jump\t// out\n        /* \"#utility.yul\":6149:6317   */\n    tag_136:\n        /* \"#utility.yul\":6232:6243   */\n      0x00\n        /* \"#utility.yul\":6266:6272   */\n      dup3\n        /* \"#utility.yul\":6261:6264   */\n      dup3\n        /* \"#utility.yul\":6254:6273   */\n      mstore\n        /* \"#utility.yul\":6306:6310   */\n      0x20\n        /* \"#utility.yul\":6301:6304   */\n      dup3\n        /* \"#utility.yul\":6297:6311   */\n      add\n        /* \"#utility.yul\":6282:6311   */\n      swap1\n      pop\n        /* \"#utility.yul\":6149:6317   */\n      swap3\n      swap2\n      pop\n      pop\n      jump\t// out\n        /* \"#utility.yul\":6323:6569   */\n    tag_137:\n        /* \"#utility.yul\":6404:6405   */\n      0x00\n        /* \"#utility.yul\":6414:6527   */\n    tag_246:\n        /* \"#utility.yul\":6428:6434   */\n      dup4\n        /* \"#utility.yul\":6425:6426   */\n      dup2\n        /* \"#utility.yul\":6422:6435   */\n      lt\n        /* \"#utility.yul\":6414:6527   */\n      iszero\n      tag_248\n      jumpi\n        /* \"#utility.yul\":6513:6514   */\n      dup1\n        /* \"#utility.yul\":6508:6511   */\n      dup3\n        /* \"#utility.yul\":6504:6515   */\n      add\n        /* \"#utility.yul\":6498:6516   */\n      mload\n        /* \"#utility.yul\":6494:6495   */\n      dup2\n        /* \"#utility.yul\":6489:6492   */\n      dup5\n        /* \"#utility.yul\":6485:6496   */\n      add\n        /* \"#utility.yul\":6478:6517   */\n      mstore\n        /* \"#utility.yul\":6450:6452   */\n      0x20\n        /* \"#utility.yul\":6447:6448   */\n      dup2\n        /* \"#utility.yul\":6443:6453   */\n      add\n        /* \"#utility.yul\":6438:6453   */\n      swap1\n      pop\n        /* \"#utility.yul\":6414:6527   */\n      jump(tag_246)\n    tag_248:\n        /* \"#utility.yul\":6561:6562   */\n      0x00\n        /* \"#utility.yul\":6552:6558   */\n      dup5\n        /* \"#utility.yul\":6547:6550   */\n      dup5\n        /* \"#utility.yul\":6543:6559   */\n      add\n        /* \"#utility.yul\":6536:6563   */\n      mstore\n        /* \"#utility.yul\":6385:6569   */\n      pop\n        /* \"#utility.yul\":6323:6569   */\n      pop\n      pop\n      pop\n      jump\t// out\n        /* \"#utility.yul\":6575:6948   */\n    tag_138:\n        /* \"#utility.yul\":6661:6664   */\n      0x00\n        /* \"#utility.yul\":6689:6727   */\n      tag_250\n        /* \"#utility.yul\":6721:6726   */\n      dup3\n        /* \"#utility.yul\":6689:6727   */\n      tag_135\n      jump\t// in\n    tag_250:\n        /* \"#utility.yul\":6743:6813   */\n      tag_251\n        /* \"#utility.yul\":6806:6812   */\n      dup2\n        /* \"#utility.yul\":6801:6804   */\n      dup6\n        /* \"#utility.yul\":6743:6813   */\n      tag_136\n      jump\t// in\n    tag_251:\n        /* \"#utility.yul\":6736:6813   */\n      swap4\n      pop\n        /* \"#utility.yul\":6822:6887   */\n      tag_252\n        /* \"#utility.yul\":6880:6886   */\n      dup2\n        /* \"#utility.yul\":6875:6878   */\n      dup6\n        /* \"#utility.yul\":6868:6872   */\n      0x20\n        /* \"#utility.yul\":6861:6866   */\n      dup7\n        /* \"#utility.yul\":6857:6873   */\n      add\n        /* \"#utility.yul\":6822:6887   */\n      tag_137\n      jump\t// in\n    tag_252:\n        /* \"#utility.yul\":6912:6941   */\n      tag_253\n        /* \"#utility.yul\":6934:6940   */\n      dup2\n        /* \"#utility.yul\":6912:6941   */\n      tag_122\n      jump\t// in\n    tag_253:\n        /* \"#utility.yul\":6907:6910   */\n      dup5\n        /* \"#utility.yul\":6903:6942   */\n      add\n        /* \"#utility.yul\":6896:6942   */\n      swap2\n      pop\n        /* \"#utility.yul\":6665:6948   */\n      pop\n        /* \"#utility.yul\":6575:6948   */\n      swap3\n      swap2\n      pop\n      pop\n      jump\t// out\n        /* \"#utility.yul\":6954:7263   */\n    tag_53:\n        /* \"#utility.yul\":7065:7069   */\n      0x00\n        /* \"#utility.yul\":7103:7105   */\n      0x20\n        /* \"#utility.yul\":7092:7101   */\n      dup3\n        /* \"#utility.yul\":7088:7106   */\n      add\n        /* \"#utility.yul\":7080:7106   */\n      swap1\n      pop\n        /* \"#utility.yul\":7152:7161   */\n      dup2\n        /* \"#utility.yul\":7146:7150   */\n      dup2\n        /* \"#utility.yul\":7142:7162   */\n      sub\n        /* \"#utility.yul\":7138:7139   */\n      0x00\n        /* \"#utility.yul\":7127:7136   */\n      dup4\n        /* \"#utility.yul\":7123:7140   */\n      add\n        /* \"#utility.yul\":7116:7163   */\n      mstore\n        /* \"#utility.yul\":7180:7256   */\n      tag_255\n        /* \"#utility.yul\":7251:7255   */\n      dup2\n        /* \"#utility.yul\":7242:7248   */\n      dup5\n        /* \"#utility.yul\":7180:7256   */\n      tag_138\n      jump\t// in\n    tag_255:\n        /* \"#utility.yul\":7172:7256   */\n      swap1\n      pop\n        /* \"#utility.yul\":6954:7263   */\n      swap3\n      swap2\n      pop\n      pop\n      jump\t// out\n        /* \"#utility.yul\":7269:7387   */\n    tag_139:\n        /* \"#utility.yul\":7356:7380   */\n      tag_257\n        /* \"#utility.yul\":7374:7379   */\n      dup2\n        /* \"#utility.yul\":7356:7380   */\n      tag_130\n      jump\t// in\n    tag_257:\n        /* \"#utility.yul\":7351:7354   */\n      dup3\n        /* \"#utility.yul\":7344:7381   */\n      mstore\n        /* \"#utility.yul\":7269:7387   */\n      pop\n      pop\n      jump\t// out\n        /* \"#utility.yul\":7393:7615   */\n    tag_59:\n        /* \"#utility.yul\":7486:7490   */\n      0x00\n        /* \"#utility.yul\":7524:7526   */\n      0x20\n        /* \"#utility.yul\":7513:7522   */\n      dup3\n        /* \"#utility.yul\":7509:7527   */\n      add\n        /* \"#utility.yul\":7501:7527   */\n      swap1\n      pop\n        /* \"#utility.yul\":7537:7608   */\n      tag_259\n        /* \"#utility.yul\":7605:7606   */\n      0x00\n        /* \"#utility.yul\":7594:7603   */\n      dup4\n        /* \"#utility.yul\":7590:7607   */\n      add\n        /* \"#utility.yul\":7581:7587   */\n      dup5\n        /* \"#utility.yul\":7537:7608   */\n      tag_139\n      jump\t// in\n    tag_259:\n        /* \"#utility.yul\":7393:7615   */\n      swap3\n      swap2\n      pop\n      pop\n      jump\t// out\n        /* \"#utility.yul\":7621:7707   */\n    tag_140:\n        /* \"#utility.yul\":7656:7663   */\n      0x00\n        /* \"#utility.yul\":7696:7700   */\n      0xff\n        /* \"#utility.yul\":7689:7694   */\n      dup3\n        /* \"#utility.yul\":7685:7701   */\n      and\n        /* \"#utility.yul\":7674:7701   */\n      swap1\n      pop\n        /* \"#utility.yul\":7621:7707   */\n      swap2\n      swap1\n      pop\n      jump\t// out\n        /* \"#utility.yul\":7713:7825   */\n    tag_141:\n        /* \"#utility.yul\":7796:7818   */\n      tag_262\n        /* \"#utility.yul\":7812:7817   */\n      dup2\n        /* \"#utility.yul\":7796:7818   */\n      tag_140\n      jump\t// in\n    tag_262:\n        /* \"#utility.yul\":7791:7794   */\n      dup3\n        /* \"#utility.yul\":7784:7819   */\n      mstore\n        /* \"#utility.yul\":7713:7825   */\n      pop\n      pop\n      jump\t// out\n        /* \"#utility.yul\":7831:8045   */\n    tag_63:\n        /* \"#utility.yul\":7920:7924   */\n      0x00\n        /* \"#utility.yul\":7958:7960   */\n      0x20\n        /* \"#utility.yul\":7947:7956   */\n      dup3\n        /* \"#utility.yul\":7943:7961   */\n      add\n        /* \"#utility.yul\":7935:7961   */\n      swap1\n      pop\n        /* \"#utility.yul\":7971:8038   */\n      tag_264\n        /* \"#utility.yul\":8035:8036   */\n      0x00\n        /* \"#utility.yul\":8024:8033   */\n      dup4\n        /* \"#utility.yul\":8020:8037   */\n      add\n        /* \"#utility.yul\":8011:8017   */\n      dup5\n        /* \"#utility.yul\":7971:8038   */\n      tag_141\n      jump\t// in\n    tag_264:\n        /* \"#utility.yul\":7831:8045   */\n      swap3\n      swap2\n      pop\n      pop\n      jump\t// out\n        /* \"#utility.yul\":8051:8150   */\n    tag_142:\n        /* \"#utility.yul\":8103:8109   */\n      0x00\n        /* \"#utility.yul\":8137:8142   */\n      dup2\n        /* \"#utility.yul\":8131:8143   */\n      mload\n        /* \"#utility.yul\":8121:8143   */\n      swap1\n      pop\n        /* \"#utility.yul\":8051:8150   */\n      swap2\n      swap1\n      pop\n      jump\t// out\n        /* \"#utility.yul\":8156:8325   */\n    tag_143:\n        /* \"#utility.yul\":8240:8251   */\n      0x00\n        /* \"#utility.yul\":8274:8280   */\n      dup3\n        /* \"#utility.yul\":8269:8272   */\n      dup3\n        /* \"#utility.yul\":8262:8281   */\n      mstore\n        /* \"#utility.yul\":8314:8318   */\n      0x20\n        /* \"#utility.yul\":8309:8312   */\n      dup3\n        /* \"#utility.yul\":8305:8319   */\n      add\n        /* \"#utility.yul\":8290:8319   */\n      swap1\n      pop\n        /* \"#utility.yul\":8156:8325   */\n      swap3\n      swap2\n      pop\n      pop\n      jump\t// out\n        /* \"#utility.yul\":8331:8708   */\n    tag_144:\n        /* \"#utility.yul\":8419:8422   */\n      0x00\n        /* \"#utility.yul\":8447:8486   */\n      tag_268\n        /* \"#utility.yul\":8480:8485   */\n      dup3\n        /* \"#utility.yul\":8447:8486   */\n      tag_142\n      jump\t// in\n    tag_268:\n        /* \"#utility.yul\":8502:8573   */\n      tag_269\n        /* \"#utility.yul\":8566:8572   */\n      dup2\n        /* \"#utility.yul\":8561:8564   */\n      dup6\n        /* \"#utility.yul\":8502:8573   */\n      tag_143\n      jump\t// in\n    tag_269:\n        /* \"#utility.yul\":8495:8573   */\n      swap4\n      pop\n        /* \"#utility.yul\":8582:8647   */\n      tag_270\n        /* \"#utility.yul\":8640:8646   */\n      dup2\n        /* \"#utility.yul\":8635:8638   */\n      dup6\n        /* \"#utility.yul\":8628:8632   */\n      0x20\n        /* \"#utility.yul\":8621:8626   */\n      dup7\n        /* \"#utility.yul\":8617:8633   */\n      add\n        /* \"#utility.yul\":8582:8647   */\n      tag_137\n      jump\t// in\n    tag_270:\n        /* \"#utility.yul\":8672:8701   */\n      tag_271\n        /* \"#utility.yul\":8694:8700   */\n      dup2\n        /* \"#utility.yul\":8672:8701   */\n      tag_122\n      jump\t// in\n    tag_271:\n        /* \"#utility.yul\":8667:8670   */\n      dup5\n        /* \"#utility.yul\":8663:8702   */\n      add\n        /* \"#utility.yul\":8656:8702   */\n      swap2\n      pop\n        /* \"#utility.yul\":8423:8708   */\n      pop\n        /* \"#utility.yul\":8331:8708   */\n      swap3\n      swap2\n      pop\n      pop\n      jump\t// out\n        /* \"#utility.yul\":8714:9027   */\n    tag_67:\n        /* \"#utility.yul\":8827:8831   */\n      0x00\n        /* \"#utility.yul\":8865:8867   */\n      0x20\n        /* \"#utility.yul\":8854:8863   */\n      dup3\n        /* \"#utility.yul\":8850:8868   */\n      add\n        /* \"#utility.yul\":8842:8868   */\n      swap1\n      pop\n        /* \"#utility.yul\":8914:8923   */\n      dup2\n        /* \"#utility.yul\":8908:8912   */\n      dup2\n        /* \"#utility.yul\":8904:8924   */\n      sub\n        /* \"#utility.yul\":8900:8901   */\n      0x00\n        /* \"#utility.yul\":8889:8898   */\n      dup4\n        /* \"#utility.yul\":8885:8902   */\n      add\n        /* \"#utility.yul\":8878:8925   */\n      mstore\n        /* \"#utility.yul\":8942:9020   */\n      tag_273\n        /* \"#utility.yul\":9015:9019   */\n      dup2\n        /* \"#utility.yul\":9006:9012   */\n      dup5\n        /* \"#utility.yul\":8942:9020   */\n      tag_144\n      jump\t// in\n    tag_273:\n        /* \"#utility.yul\":8934:9020   */\n      swap1\n      pop\n        /* \"#utility.yul\":8714:9027   */\n      swap3\n      swap2\n      pop\n      pop\n      jump\t// out\n        /* \"#utility.yul\":9033:9151   */\n    tag_145:\n        /* \"#utility.yul\":9120:9144   */\n      tag_275\n        /* \"#utility.yul\":9138:9143   */\n      dup2\n        /* \"#utility.yul\":9120:9144   */\n      tag_117\n      jump\t// in\n    tag_275:\n        /* \"#utility.yul\":9115:9118   */\n      dup3\n        /* \"#utility.yul\":9108:9145   */\n      mstore\n        /* \"#utility.yul\":9033:9151   */\n      pop\n      pop\n      jump\t// out\n        /* \"#utility.yul\":9157:9379   */\n    tag_74:\n        /* \"#utility.yul\":9250:9254   */\n      0x00\n        /* \"#utility.yul\":9288:9290   */\n      0x20\n        /* \"#utility.yul\":9277:9286   */\n      dup3\n        /* \"#utility.yul\":9273:9291   */\n      add\n        /* \"#utility.yul\":9265:9291   */\n      swap1\n      pop\n        /* \"#utility.yul\":9301:9372   */\n      tag_277\n        /* \"#utility.yul\":9369:9370   */\n      0x00\n        /* \"#utility.yul\":9358:9367   */\n      dup4\n        /* \"#utility.yul\":9354:9371   */\n      add\n        /* \"#utility.yul\":9345:9351   */\n      dup5\n        /* \"#utility.yul\":9301:9372   */\n      tag_145\n      jump\t// in\n    tag_277:\n        /* \"#utility.yul\":9157:9379   */\n      swap3\n      swap2\n      pop\n      pop\n      jump\t// out\n        /* \"#utility.yul\":9385:9565   */\n    tag_146:\n        /* \"#utility.yul\":9433:9510   */\n      0x4e487b7100000000000000000000000000000000000000000000000000000000\n        /* \"#utility.yul\":9430:9431   */\n      0x00\n        /* \"#utility.yul\":9423:9511   */\n      mstore\n        /* \"#utility.yul\":9530:9534   */\n      0x22\n        /* \"#utility.yul\":9527:9528   */\n      0x04\n        /* \"#utility.yul\":9520:9535   */\n      mstore\n        /* \"#utility.yul\":9554:9558   */\n      0x24\n        /* \"#utility.yul\":9551:9552   */\n      0x00\n        /* \"#utility.yul\":9544:9559   */\n      revert\n        /* \"#utility.yul\":9571:9891   */\n    tag_92:\n        /* \"#utility.yul\":9615:9621   */\n      0x00\n        /* \"#utility.yul\":9652:9653   */\n      0x02\n        /* \"#utility.yul\":9646:9650   */\n      dup3\n        /* \"#utility.yul\":9642:9654   */\n      div\n        /* \"#utility.yul\":9632:9654   */\n      swap1\n      pop\n        /* \"#utility.yul\":9699:9700   */\n      0x01\n        /* \"#utility.yul\":9693:9697   */\n      dup3\n        /* \"#utility.yul\":9689:9701   */\n      and\n        /* \"#utility.yul\":9720:9738   */\n      dup1\n        /* \"#utility.yul\":9710:9791   */\n      tag_280\n      jumpi\n        /* \"#utility.yul\":9776:9780   */\n      0x7f\n        /* \"#utility.yul\":9768:9774   */\n      dup3\n        /* \"#utility.yul\":9764:9781   */\n      and\n        /* \"#utility.yul\":9754:9781   */\n      swap2\n      pop\n        /* \"#utility.yul\":9710:9791   */\n    tag_280:\n        /* \"#utility.yul\":9838:9840   */\n      0x20\n        /* \"#utility.yul\":9830:9836   */\n      dup3\n        /* \"#utility.yul\":9827:9841   */\n      lt\n        /* \"#utility.yul\":9807:9825   */\n      dup2\n        /* \"#utility.yul\":9804:9842   */\n      sub\n        /* \"#utility.yul\":9801:9885   */\n      tag_281\n      jumpi\n        /* \"#utility.yul\":9857:9875   */\n      tag_282\n      tag_146\n      jump\t// in\n    tag_282:\n        /* \"#utility.yul\":9801:9885   */\n    tag_281:\n        /* \"#utility.yul\":9622:9891   */\n      pop\n        /* \"#utility.yul\":9571:9891   */\n      swap2\n      swap1\n      pop\n      jump\t// out\n        /* \"#utility.yul\":9897:10038   */\n    tag_147:\n        /* \"#utility.yul\":9946:9950   */\n      0x00\n        /* \"#utility.yul\":9969:9972   */\n      dup2\n        /* \"#utility.yul\":9961:9972   */\n      swap1\n      pop\n        /* \"#utility.yul\":9992:9995   */\n      dup2\n        /* \"#utility.yul\":9989:9990   */\n      0x00\n        /* \"#utility.yul\":9982:9996   */\n      mstore\n        /* \"#utility.yul\":10026:10030   */\n      0x20\n        /* \"#utility.yul\":10023:10024   */\n      0x00\n        /* \"#utility.yul\":10013:10031   */\n      keccak256\n        /* \"#utility.yul\":10005:10031   */\n      swap1\n      pop\n        /* \"#utility.yul\":9897:10038   */\n      swap2\n      swap1\n      pop\n      jump\t// out\n        /* \"#utility.yul\":10044:10137   */\n    tag_148:\n        /* \"#utility.yul\":10081:10087   */\n      0x00\n        /* \"#utility.yul\":10128:10130   */\n      0x20\n        /* \"#utility.yul\":10123:10125   */\n      0x1f\n        /* \"#utility.yul\":10116:10121   */\n      dup4\n        /* \"#utility.yul\":10112:10126   */\n      add\n        /* \"#utility.yul\":10108:10131   */\n      div\n        /* \"#utility.yul\":10098:10131   */\n      swap1\n      pop\n        /* \"#utility.yul\":10044:10137   */\n      swap2\n      swap1\n      pop\n      jump\t// out\n        /* \"#utility.yul\":10143:10250   */\n    tag_149:\n        /* \"#utility.yul\":10187:10195   */\n      0x00\n        /* \"#utility.yul\":10237:10242   */\n      dup3\n        /* \"#utility.yul\":10231:10235   */\n      dup3\n        /* \"#utility.yul\":10227:10243   */\n      shl\n        /* \"#utility.yul\":10206:10243   */\n      swap1\n      pop\n        /* \"#utility.yul\":10143:10250   */\n      swap3\n      swap2\n      pop\n      pop\n      jump\t// out\n        /* \"#utility.yul\":10256:10649   */\n    tag_150:\n        /* \"#utility.yul\":10325:10331   */\n      0x00\n        /* \"#utility.yul\":10375:10376   */\n      0x08\n        /* \"#utility.yul\":10363:10373   */\n      dup4\n        /* \"#utility.yul\":10359:10377   */\n      mul\n        /* \"#utility.yul\":10398:10495   */\n      tag_287\n        /* \"#utility.yul\":10428:10494   */\n      0xffffffffffffffffffffffffffffffffffffffffffffffffffffffffffffffff\n        /* \"#utility.yul\":10417:10426   */\n      dup3\n        /* \"#utility.yul\":10398:10495   */\n      tag_149\n      jump\t// in\n    tag_287:\n        /* \"#utility.yul\":10516:10555   */\n      tag_288\n        /* \"#utility.yul\":10546:10554   */\n      dup7\n        /* \"#utility.yul\":10535:10544   */\n      dup4\n        /* \"#utility.yul\":10516:10555   */\n      tag_149\n      jump\t// in\n    tag_288:\n        /* \"#utility.yul\":10504:10555   */\n      swap6\n      pop\n        /* \"#utility.yul\":10588:10592   */\n      dup1\n        /* \"#utility.yul\":10584:10593   */\n      not\n        /* \"#utility.yul\":10577:10582   */\n      dup5\n        /* \"#utility.yul\":10573:10594   */\n      and\n        /* \"#utility.yul\":10564:10594   */\n      swap4\n      pop\n        /* \"#utility.yul\":10637:10641   */\n      dup1\n        /* \"#utility.yul\":10627:10635   */\n      dup7\n        /* \"#utility.yul\":10623:10642   */\n      and\n        /* \"#utility.yul\":10616:10621   */\n      dup5\n        /* \"#utility.yul\":10613:10643   */\n      or\n        /* \"#utility.yul\":10603:10643   */\n      swap3\n      pop\n        /* \"#utility.yul\":10332:10649   */\n      pop\n      pop\n        /* \"#utility.yul\":10256:10649   */\n      swap4\n      swap3\n      pop\n      pop\n      pop\n      jump\t// out\n        /* \"#utility.yul\":10655:10715   */\n    tag_151:\n        /* \"#utility.yul\":10683:10686   */\n      0x00\n        /* \"#utility.yul\":10704:10709   */\n      dup2\n        /* \"#utility.yul\":10697:10709   */\n      swap1\n      pop\n        /* \"#utility.yul\":10655:10715   */\n      swap2\n      swap1\n      pop\n      jump\t// out\n        /* \"#utility.yul\":10721:10863   */\n    tag_152:\n        /* \"#utility.yul\":10771:10780   */\n      0x00\n        /* \"#utility.yul\":10804:10857   */\n      tag_291\n        /* \"#utility.yul\":10822:10856   */\n      tag_292\n        /* \"#utility.yul\":10831:10855   */\n      tag_293\n        /* \"#utility.yul\":10849:10854   */\n      dup5\n        /* \"#utility.yul\":10831:10855   */\n      tag_130\n      jump\t// in\n    tag_293:\n        /* \"#utility.yul\":10822:10856   */\n      tag_151\n      jump\t// in\n    tag_292:\n        /* \"#utility.yul\":10804:10857   */\n      tag_130\n      jump\t// in\n    tag_291:\n        /* \"#utility.yul\":10791:10857   */\n      swap1\n      pop\n        /* \"#utility.yul\":10721:10863   */\n      swap2\n      swap1\n      pop\n      jump\t// out\n        /* \"#utility.yul\":10869:10944   */\n    tag_153:\n        /* \"#utility.yul\":10912:10915   */\n      0x00\n        /* \"#utility.yul\":10933:10938   */\n      dup2\n        /* \"#utility.yul\":10926:10938   */\n      swap1\n      pop\n        /* \"#utility.yul\":10869:10944   */\n      swap2\n      swap1\n      pop\n      jump\t// out\n        /* \"#utility.yul\":10950:11219   */\n    tag_154:\n        /* \"#utility.yul\":11060:11099   */\n      tag_296\n        /* \"#utility.yul\":11091:11098   */\n      dup4\n        /* \"#utility.yul\":11060:11099   */\n      tag_152\n      jump\t// in\n    tag_296:\n        /* \"#utility.yul\":11121:11212   */\n      tag_297\n        /* \"#utility.yul\":11170:11211   */\n      tag_298\n        /* \"#utility.yul\":11194:11210   */\n      dup3\n        /* \"#utility.yul\":11170:11211   */\n      tag_153\n      jump\t// in\n    tag_298:\n        /* \"#utility.yul\":11162:11168   */\n      dup5\n        /* \"#utility.yul\":11155:11159   */\n      dup5\n        /* \"#utility.yul\":11149:11160   */\n      sload\n        /* \"#utility.yul\":11121:11212   */\n      tag_150\n      jump\t// in\n    tag_297:\n        /* \"#utility.yul\":11115:11119   */\n      dup3\n        /* \"#utility.yul\":11108:11213   */\n      sstore\n        /* \"#utility.yul\":11026:11219   */\n      pop\n        /* \"#utility.yul\":10950:11219   */\n      pop\n      pop\n      pop\n      jump\t// out\n        /* \"#utility.yul\":11225:11298   */\n    tag_155:\n        /* \"#utility.yul\":11270:11273   */\n      0x00\n        /* \"#utility.yul\":11225:11298   */\n      swap1\n      jump\t// out\n        /* \"#utility.yul\":11304:11493   */\n    tag_156:\n        /* \"#utility.yul\":11381:11413   */\n      tag_301\n      tag_155\n      jump\t// in\n    tag_301:\n        /* \"#utility.yul\":11422:11487   */\n      tag_302\n        /* \"#utility.yul\":11480:11486   */\n      dup2\n        /* \"#utility.yul\":11472:11478   */\n      dup5\n        /* \"#utility.yul\":11466:11470   */\n      dup5\n        /* \"#utility.yul\":11422:11487   */\n      tag_154\n      jump\t// in\n    tag_302:\n        /* \"#utility.yul\":11357:11493   */\n      pop\n        /* \"#utility.yul\":11304:11493   */\n      pop\n      pop\n      jump\t// out\n        /* \"#utility.yul\":11499:11685   */\n    tag_157:\n        /* \"#utility.yul\":11559:11679   */\n    tag_304:\n        /* \"#utility.yul\":11576:11579   */\n      dup2\n        /* \"#utility.yul\":11569:11574   */\n      dup2\n        /* \"#utility.yul\":11566:11580   */\n      lt\n        /* \"#utility.yul\":11559:11679   */\n      iszero\n      tag_306\n      jumpi\n        /* \"#utility.yul\":11630:11669   */\n      tag_307\n        /* \"#utility.yul\":11667:11668   */\n      0x00\n        /* \"#utility.yul\":11660:11665   */\n      dup3\n        /* \"#utility.yul\":11630:11669   */\n      tag_156\n      jump\t// in\n    tag_307:\n        /* \"#utility.yul\":11603:11604   */\n      0x01\n        /* \"#utility.yul\":11596:11601   */\n      dup2\n        /* \"#utility.yul\":11592:11605   */\n      add\n        /* \"#utility.yul\":11583:11605   */\n      swap1\n      pop\n        /* \"#utility.yul\":11559:11679   */\n      jump(tag_304)\n    tag_306:\n        /* \"#utility.yul\":11499:11685   */\n      pop\n      pop\n      jump\t// out\n        /* \"#utility.yul\":11691:12234   */\n    tag_158:\n        /* \"#utility.yul\":11792:11794   */\n      0x1f\n        /* \"#utility.yul\":11787:11790   */\n      dup3\n        /* \"#utility.yul\":11784:11795   */\n      gt\n        /* \"#utility.yul\":11781:12227   */\n      iszero\n      tag_309\n      jumpi\n        /* \"#utility.yul\":11826:11864   */\n      tag_310\n        /* \"#utility.yul\":11858:11863   */\n      dup2\n        /* \"#utility.yul\":11826:11864   */\n      tag_147\n      jump\t// in\n    tag_310:\n        /* \"#utility.yul\":11910:11939   */\n      tag_311\n        /* \"#utility.yul\":11928:11938   */\n      dup5\n        /* \"#utility.yul\":11910:11939   */\n      tag_148\n      jump\t// in\n    tag_311:\n        /* \"#utility.yul\":11900:11908   */\n      dup2\n        /* \"#utility.yul\":11896:11940   */\n      add\n        /* \"#utility.yul\":12093:12095   */\n      0x20\n        /* \"#utility.yul\":12081:12091   */\n      dup6\n        /* \"#utility.yul\":12078:12096   */\n      lt\n        /* \"#utility.yul\":12075:12124   */\n      iszero\n      tag_312\n      jumpi\n        /* \"#utility.yul\":12114:12122   */\n      dup2\n        /* \"#utility.yul\":12099:12122   */\n      swap1\n      pop\n        /* \"#utility.yul\":12075:12124   */\n    tag_312:\n        /* \"#utility.yul\":12137:12217   */\n      tag_313\n        /* \"#utility.yul\":12193:12215   */\n      tag_314\n        /* \"#utility.yul\":12211:12214   */\n      dup6\n        /* \"#utility.yul\":12193:12215   */\n      tag_148\n      jump\t// in\n    tag_314:\n        /* \"#utility.yul\":12183:12191   */\n      dup4\n        /* \"#utility.yul\":12179:12216   */\n      add\n        /* \"#utility.yul\":12166:12177   */\n      dup3\n        /* \"#utility.yul\":12137:12217   */\n      tag_157\n      jump\t// in\n    tag_313:\n        /* \"#utility.yul\":11796:12227   */\n      pop\n      pop\n        /* \"#utility.yul\":11781:12227   */\n    tag_309:\n        /* \"#utility.yul\":11691:12234   */\n      pop\n      pop\n      pop\n      jump\t// out\n        /* \"#utility.yul\":12240:12357   */\n    tag_159:\n        /* \"#utility.yul\":12294:12302   */\n      0x00\n        /* \"#utility.yul\":12344:12349   */\n      dup3\n        /* \"#utility.yul\":12338:12342   */\n      dup3\n        /* \"#utility.yul\":12334:12350   */\n      shr\n        /* \"#utility.yul\":12313:12350   */\n      swap1\n      pop\n        /* \"#utility.yul\":12240:12357   */\n      swap3\n      swap2\n      pop\n      pop\n      jump\t// out\n        /* \"#utility.yul\":12363:12532   */\n    tag_160:\n        /* \"#utility.yul\":12407:12413   */\n      0x00\n        /* \"#utility.yul\":12440:12491   */\n      tag_317\n        /* \"#utility.yul\":12488:12489   */\n      0x00\n        /* \"#utility.yul\":12484:12490   */\n      not\n        /* \"#utility.yul\":12476:12481   */\n      dup5\n        /* \"#utility.yul\":12473:12474   */\n      0x08\n        /* \"#utility.yul\":12469:12482   */\n      mul\n        /* \"#utility.yul\":12440:12491   */\n      tag_159\n      jump\t// in\n    tag_317:\n        /* \"#utility.yul\":12436:12492   */\n      not\n        /* \"#utility.yul\":12521:12525   */\n      dup1\n        /* \"#utility.yul\":12515:12519   */\n      dup4\n        /* \"#utility.yul\":12511:12526   */\n      and\n        /* \"#utility.yul\":12501:12526   */\n      swap2\n      pop\n        /* \"#utility.yul\":12414:12532   */\n      pop\n        /* \"#utility.yul\":12363:12532   */\n      swap3\n      swap2\n      pop\n      pop\n      jump\t// out\n        /* \"#utility.yul\":12537:12832   */\n    tag_161:\n        /* \"#utility.yul\":12613:12617   */\n      0x00\n        /* \"#utility.yul\":12759:12788   */\n      tag_319\n        /* \"#utility.yul\":12784:12787   */\n      dup4\n        /* \"#utility.yul\":12778:12782   */\n      dup4\n        /* \"#utility.yul\":12759:12788   */\n      tag_160\n      jump\t// in\n    tag_319:\n        /* \"#utility.yul\":12751:12788   */\n      swap2\n      pop\n        /* \"#utility.yul\":12821:12824   */\n      dup3\n        /* \"#utility.yul\":12818:12819   */\n      0x02\n        /* \"#utility.yul\":12814:12825   */\n      mul\n        /* \"#utility.yul\":12808:12812   */\n      dup3\n        /* \"#utility.yul\":12805:12826   */\n      or\n        /* \"#utility.yul\":12797:12826   */\n      swap1\n      pop\n        /* \"#utility.yul\":12537:12832   */\n      swap3\n      swap2\n      pop\n      pop\n      jump\t// out\n        /* \"#utility.yul\":12837:14232   */\n    tag_83:\n        /* \"#utility.yul\":12954:12991   */\n      tag_321\n        /* \"#utility.yul\":12987:12990   */\n      dup3\n        /* \"#utility.yul\":12954:12991   */\n      tag_142\n      jump\t// in\n    tag_321:\n        /* \"#utility.yul\":13056:13074   */\n      0xffffffffffffffff\n        /* \"#utility.yul\":13048:13054   */\n      dup2\n        /* \"#utility.yul\":13045:13075   */\n      gt\n        /* \"#utility.yul\":13042:13098   */\n      iszero\n      tag_322\n      jumpi\n        /* \"#utility.yul\":13078:13096   */\n      tag_323\n      tag_123\n      jump\t// in\n    tag_323:\n        /* \"#utility.yul\":13042:13098   */\n    tag_322:\n        /* \"#utility.yul\":13122:13160   */\n      tag_324\n        /* \"#utility.yul\":13154:13158   */\n      dup3\n        /* \"#utility.yul\":13148:13159   */\n      sload\n        /* \"#utility.yul\":13122:13160   */\n      tag_92\n      jump\t// in\n    tag_324:\n        /* \"#utility.yul\":13207:13274   */\n      tag_325\n        /* \"#utility.yul\":13267:13273   */\n      dup3\n        /* \"#utility.yul\":13259:13265   */\n      dup3\n        /* \"#utility.yul\":13253:13257   */\n      dup6\n        /* \"#utility.yul\":13207:13274   */\n      tag_158\n      jump\t// in\n    tag_325:\n        /* \"#utility.yul\":13301:13302   */\n      0x00\n        /* \"#utility.yul\":13325:13329   */\n      0x20\n        /* \"#utility.yul\":13312:13329   */\n      swap1\n      pop\n        /* \"#utility.yul\":13357:13359   */\n      0x1f\n        /* \"#utility.yul\":13349:13355   */\n      dup4\n        /* \"#utility.yul\":13346:13360   */\n      gt\n        /* \"#utility.yul\":13374:13375   */\n      0x01\n        /* \"#utility.yul\":13369:13987   */\n      dup2\n      eq\n      tag_327\n      jumpi\n        /* \"#utility.yul\":14031:14032   */\n      0x00\n        /* \"#utility.yul\":14048:14054   */\n      dup5\n        /* \"#utility.yul\":14045:14122   */\n      iszero\n      tag_328\n      jumpi\n        /* \"#utility.yul\":14097:14106   */\n      dup3\n        /* \"#utility.yul\":14092:14095   */\n      dup8\n        /* \"#utility.yul\":14088:14107   */\n      add\n        /* \"#utility.yul\":14082:14108   */\n      mload\n        /* \"#utility.yul\":14073:14108   */\n      swap1\n      pop\n        /* \"#utility.yul\":14045:14122   */\n    tag_328:\n        /* \"#utility.yul\":14148:14215   */\n      tag_329\n        /* \"#utility.yul\":14208:14214   */\n      dup6\n        /* \"#utility.yul\":14201:14206   */\n      dup3\n        /* \"#utility.yul\":14148:14215   */\n      tag_161\n      jump\t// in\n    tag_329:\n        /* \"#utility.yul\":14142:14146   */\n      dup7\n        /* \"#utility.yul\":14135:14216   */\n      sstore\n        /* \"#utility.yul\":14004:14226   */\n      pop\n        /* \"#utility.yul\":13339:14226   */\n      jump(tag_326)\n        /* \"#utility.yul\":13369:13987   */\n    tag_327:\n        /* \"#utility.yul\":13421:13425   */\n      0x1f\n        /* \"#utility.yul\":13417:13426   */\n      not\n        /* \"#utility.yul\":13409:13415   */\n      dup5\n        /* \"#utility.yul\":13405:13427   */\n      and\n        /* \"#utility.yul\":13455:13492   */\n      tag_330\n        /* \"#utility.yul\":13487:13491   */\n      dup7\n        /* \"#utility.yul\":13455:13492   */\n      tag_147\n      jump\t// in\n    tag_330:\n        /* \"#utility.yul\":13514:13515   */\n      0x00\n        /* \"#utility.yul\":13528:13736   */\n    tag_331:\n        /* \"#utility.yul\":13542:13549   */\n      dup3\n        /* \"#utility.yul\":13539:13540   */\n      dup2\n        /* \"#utility.yul\":13536:13550   */\n      lt\n        /* \"#utility.yul\":13528:13736   */\n      iszero\n      tag_333\n      jumpi\n        /* \"#utility.yul\":13621:13630   */\n      dup5\n        /* \"#utility.yul\":13616:13619   */\n      dup10\n        /* \"#utility.yul\":13612:13631   */\n      add\n        /* \"#utility.yul\":13606:13632   */\n      mload\n        /* \"#utility.yul\":13598:13604   */\n      dup3\n        /* \"#utility.yul\":13591:13633   */\n      sstore\n        /* \"#utility.yul\":13672:13673   */\n      0x01\n        /* \"#utility.yul\":13664:13670   */\n      dup3\n        /* \"#utility.yul\":13660:13674   */\n      add\n        /* \"#utility.yul\":13650:13674   */\n      swap2\n      pop\n        /* \"#utility.yul\":13719:13721   */\n      0x20\n        /* \"#utility.yul\":13708:13717   */\n      dup6\n        /* \"#utility.yul\":13704:13722   */\n      add\n        /* \"#utility.yul\":13691:13722   */\n      swap5\n      pop\n        /* \"#utility.yul\":13565:13569   */\n      0x20\n        /* \"#utility.yul\":13562:13563   */\n      dup2\n        /* \"#utility.yul\":13558:13570   */\n      add\n        /* \"#utility.yul\":13553:13570   */\n      swap1\n      pop\n        /* \"#utility.yul\":13528:13736   */\n      jump(tag_331)\n    tag_333:\n        /* \"#utility.yul\":13764:13770   */\n      dup7\n        /* \"#utility.yul\":13755:13762   */\n      dup4\n        /* \"#utility.yul\":13752:13771   */\n      lt\n        /* \"#utility.yul\":13749:13928   */\n      iszero\n      tag_334\n      jumpi\n        /* \"#utility.yul\":13822:13831   */\n      dup5\n        /* \"#utility.yul\":13817:13820   */\n      dup10\n        /* \"#utility.yul\":13813:13832   */\n      add\n        /* \"#utility.yul\":13807:13833   */\n      mload\n        /* \"#utility.yul\":13865:13913   */\n      tag_335\n        /* \"#utility.yul\":13907:13911   */\n      0x1f\n        /* \"#utility.yul\":13899:13905   */\n      dup10\n        /* \"#utility.yul\":13895:13912   */\n      and\n        /* \"#utility.yul\":13884:13893   */\n      dup3\n        /* \"#utility.yul\":13865:13913   */\n      tag_160\n      jump\t// in\n    tag_335:\n        /* \"#utility.yul\":13857:13863   */\n      dup4\n        /* \"#utility.yul\":13850:13914   */\n      sstore\n        /* \"#utility.yul\":13772:13928   */\n      pop\n        /* \"#utility.yul\":13749:13928   */\n    tag_334:\n        /* \"#utility.yul\":13974:13975   */\n      0x01\n        /* \"#utility.yul\":13970:13971   */\n      0x02\n        /* \"#utility.yul\":13962:13968   */\n      dup9\n        /* \"#utility.yul\":13958:13972   */\n      mul\n        /* \"#utility.yul\":13954:13976   */\n      add\n        /* \"#utility.yul\":13948:13952   */\n      dup9\n        /* \"#utility.yul\":13941:13977   */\n      sstore\n        /* \"#utility.yul\":13376:13987   */\n      pop\n      pop\n      pop\n        /* \"#utility.yul\":13339:14226   */\n    tag_326:\n      pop\n        /* \"#utility.yul\":12929:14232   */\n      pop\n      pop\n      pop\n        /* \"#utility.yul\":12837:14232   */\n      pop\n      pop\n      jump\t// out\n        /* \"#utility.yul\":14238:14386   */\n    tag_162:\n        /* \"#utility.yul\":14340:14351   */\n      0x00\n        /* \"#utility.yul\":14377:14380   */\n      dup2\n        /* \"#utility.yul\":14362:14380   */\n      swap1\n      pop\n        /* \"#utility.yul\":14238:14386   */\n      swap3\n      swap2\n      pop\n      pop\n      jump\t// out\n        /* \"#utility.yul\":14392:14782   */\n    tag_163:\n        /* \"#utility.yul\":14498:14501   */\n      0x00\n        /* \"#utility.yul\":14526:14565   */\n      tag_338\n        /* \"#utility.yul\":14559:14564   */\n      dup3\n        /* \"#utility.yul\":14526:14565   */\n      tag_142\n      jump\t// in\n    tag_338:\n        /* \"#utility.yul\":14581:14670   */\n      tag_339\n        /* \"#utility.yul\":14663:14669   */\n      dup2\n        /* \"#utility.yul\":14658:14661   */\n      dup6\n        /* \"#utility.yul\":14581:14670   */\n      tag_162\n      jump\t// in\n    tag_339:\n        /* \"#utility.yul\":14574:14670   */\n      swap4\n      pop\n        /* \"#utility.yul\":14679:14744   */\n      tag_340\n        /* \"#utility.yul\":14737:14743   */\n      dup2\n        /* \"#utility.yul\":14732:14735   */\n      dup6\n        /* \"#utility.yul\":14725:14729   */\n      0x20\n        /* \"#utility.yul\":14718:14723   */\n      dup7\n        /* \"#utility.yul\":14714:14730   */\n      add\n        /* \"#utility.yul\":14679:14744   */\n      tag_137\n      jump\t// in\n    tag_340:\n        /* \"#utility.yul\":14769:14775   */\n      dup1\n        /* \"#utility.yul\":14764:14767   */\n      dup5\n        /* \"#utility.yul\":14760:14776   */\n      add\n        /* \"#utility.yul\":14753:14776   */\n      swap2\n      pop\n        /* \"#utility.yul\":14502:14782   */\n      pop\n        /* \"#utility.yul\":14392:14782   */\n      swap3\n      swap2\n      pop\n      pop\n      jump\t// out\n        /* \"#utility.yul\":14788:15063   */\n    tag_87:\n        /* \"#utility.yul\":14920:14923   */\n      0x00\n        /* \"#utility.yul\":14942:15037   */\n      tag_342\n        /* \"#utility.yul\":15033:15036   */\n      dup3\n        /* \"#utility.yul\":15024:15030   */\n      dup5\n        /* \"#utility.yul\":14942:15037   */\n      tag_163\n      jump\t// in\n    tag_342:\n        /* \"#utility.yul\":14935:15037   */\n      swap2\n      pop\n        /* \"#utility.yul\":15054:15057   */\n      dup2\n        /* \"#utility.yul\":15047:15057   */\n      swap1\n      pop\n        /* \"#utility.yul\":14788:15063   */\n      swap3\n      swap2\n      pop\n      pop\n      jump\t// out\n        /* \"#utility.yul\":15093:15967   */\n    tag_164:\n        /* \"#utility.yul\":15196:15199   */\n      0x00\n        /* \"#utility.yul\":15233:15238   */\n      dup2\n        /* \"#utility.yul\":15227:15239   */\n      sload\n        /* \"#utility.yul\":15262:15298   */\n      tag_344\n        /* \"#utility.yul\":15288:15297   */\n      dup2\n        /* \"#utility.yul\":15262:15298   */\n      tag_92\n      jump\t// in\n    tag_344:\n        /* \"#utility.yul\":15314:15403   */\n      tag_345\n        /* \"#utility.yul\":15396:15402   */\n      dup2\n        /* \"#utility.yul\":15391:15394   */\n      dup7\n        /* \"#utility.yul\":15314:15403   */\n      tag_162\n      jump\t// in\n    tag_345:\n        /* \"#utility.yul\":15307:15403   */\n      swap5\n      pop\n        /* \"#utility.yul\":15434:15435   */\n      0x01\n        /* \"#utility.yul\":15423:15432   */\n      dup3\n        /* \"#utility.yul\":15419:15436   */\n      and\n        /* \"#utility.yul\":15450:15451   */\n      0x00\n        /* \"#utility.yul\":15445:15611   */\n      dup2\n      eq\n      tag_347\n      jumpi\n        /* \"#utility.yul\":15625:15626   */\n      0x01\n        /* \"#utility.yul\":15620:15961   */\n      dup2\n      eq\n      tag_348\n      jumpi\n        /* \"#utility.yul\":15412:15961   */\n      jump(tag_346)\n        /* \"#utility.yul\":15445:15611   */\n    tag_347:\n        /* \"#utility.yul\":15529:15533   */\n      0xff\n        /* \"#utility.yul\":15525:15534   */\n      not\n        /* \"#utility.yul\":15514:15523   */\n      dup4\n        /* \"#utility.yul\":15510:15535   */\n      and\n        /* \"#utility.yul\":15505:15508   */\n      dup7\n        /* \"#utility.yul\":15498:15536   */\n      mstore\n        /* \"#utility.yul\":15591:15597   */\n      dup2\n        /* \"#utility.yul\":15584:15598   */\n      iszero\n        /* \"#utility.yul\":15577:15599   */\n      iszero\n        /* \"#utility.yul\":15569:15575   */\n      dup3\n        /* \"#utility.yul\":15565:15600   */\n      mul\n        /* \"#utility.yul\":15560:15563   */\n      dup7\n        /* \"#utility.yul\":15556:15601   */\n      add\n        /* \"#utility.yul\":15549:15601   */\n      swap4\n      pop\n        /* \"#utility.yul\":15445:15611   */\n      jump(tag_346)\n        /* \"#utility.yul\":15620:15961   */\n    tag_348:\n        /* \"#utility.yul\":15687:15725   */\n      tag_349\n        /* \"#utility.yul\":15719:15724   */\n      dup6\n        /* \"#utility.yul\":15687:15725   */\n      tag_147\n      jump\t// in\n    tag_349:\n        /* \"#utility.yul\":15747:15748   */\n      0x00\n        /* \"#utility.yul\":15761:15915   */\n    tag_350:\n        /* \"#utility.yul\":15775:15781   */\n      dup4\n        /* \"#utility.yul\":15772:15773   */\n      dup2\n        /* \"#utility.yul\":15769:15782   */\n      lt\n        /* \"#utility.yul\":15761:15915   */\n      iszero\n      tag_352\n      jumpi\n        /* \"#utility.yul\":15849:15856   */\n      dup2\n        /* \"#utility.yul\":15843:15857   */\n      sload\n        /* \"#utility.yul\":15839:15840   */\n      dup2\n        /* \"#utility.yul\":15834:15837   */\n      dup10\n        /* \"#utility.yul\":15830:15841   */\n      add\n        /* \"#utility.yul\":15823:15858   */\n      mstore\n        /* \"#utility.yul\":15899:15900   */\n      0x01\n        /* \"#utility.yul\":15890:15897   */\n      dup3\n        /* \"#utility.yul\":15886:15901   */\n      add\n        /* \"#utility.yul\":15875:15901   */\n      swap2\n      pop\n        /* \"#utility.yul\":15797:15801   */\n      0x20\n        /* \"#utility.yul\":15794:15795   */\n      dup2\n        /* \"#utility.yul\":15790:15802   */\n      add\n        /* \"#utility.yul\":15785:15802   */\n      swap1\n      pop\n        /* \"#utility.yul\":15761:15915   */\n      jump(tag_350)\n    tag_352:\n        /* \"#utility.yul\":15944:15950   */\n      dup4\n        /* \"#utility.yul\":15939:15942   */\n      dup9\n        /* \"#utility.yul\":15935:15951   */\n      add\n        /* \"#utility.yul\":15928:15951   */\n      swap6\n      pop\n        /* \"#utility.yul\":15627:15961   */\n      pop\n      pop\n        /* \"#utility.yul\":15412:15961   */\n    tag_346:\n      pop\n        /* \"#utility.yul\":15200:15967   */\n      pop\n      pop\n        /* \"#utility.yul\":15093:15967   */\n      swap3\n      swap2\n      pop\n      pop\n      jump\t// out\n        /* \"#utility.yul\":15973:16242   */\n    tag_89:\n        /* \"#utility.yul\":16102:16105   */\n      0x00\n        /* \"#utility.yul\":16124:16216   */\n      tag_354\n        /* \"#utility.yul\":16212:16215   */\n      dup3\n        /* \"#utility.yul\":16203:16209   */\n      dup5\n        /* \"#utility.yul\":16124:16216   */\n      tag_164\n      jump\t// in\n    tag_354:\n        /* \"#utility.yul\":16117:16216   */\n      swap2\n      pop\n        /* \"#utility.yul\":16233:16236   */\n      dup2\n        /* \"#utility.yul\":16226:16236   */\n      swap1\n      pop\n        /* \"#utility.yul\":15973:16242   */\n      swap3\n      swap2\n      pop\n      pop\n      jump\t// out\n        /* \"#utility.yul\":16248:16428   */\n    tag_165:\n        /* \"#utility.yul\":16296:16373   */\n      0x4e487b7100000000000000000000000000000000000000000000000000000000\n        /* \"#utility.yul\":16293:16294   */\n      0x00\n        /* \"#utility.yul\":16286:16374   */\n      mstore\n        /* \"#utility.yul\":16393:16397   */\n      0x11\n        /* \"#utility.yul\":16390:16391   */\n      0x04\n        /* \"#utility.yul\":16383:16398   */\n      mstore\n        /* \"#utility.yul\":16417:16421   */\n      0x24\n        /* \"#utility.yul\":16414:16415   */\n      0x00\n        /* \"#utility.yul\":16407:16422   */\n      revert\n        /* \"#utility.yul\":16434:16601   */\n    tag_108:\n        /* \"#utility.yul\":16471:16474   */\n      0x00\n        /* \"#utility.yul\":16494:16516   */\n      tag_357\n        /* \"#utility.yul\":16510:16515   */\n      dup3\n        /* \"#utility.yul\":16494:16516   */\n      tag_140\n      jump\t// in\n    tag_357:\n        /* \"#utility.yul\":16485:16516   */\n      swap2\n      pop\n        /* \"#utility.yul\":16538:16542   */\n      0xff\n        /* \"#utility.yul\":16531:16536   */\n      dup3\n        /* \"#utility.yul\":16528:16543   */\n      sub\n        /* \"#utility.yul\":16525:16566   */\n      tag_358\n      jumpi\n        /* \"#utility.yul\":16546:16564   */\n      tag_359\n      tag_165\n      jump\t// in\n    tag_359:\n        /* \"#utility.yul\":16525:16566   */\n    tag_358:\n        /* \"#utility.yul\":16593:16594   */\n      0x01\n        /* \"#utility.yul\":16586:16591   */\n      dup3\n        /* \"#utility.yul\":16582:16595   */\n      add\n        /* \"#utility.yul\":16575:16595   */\n      swap1\n      pop\n        /* \"#utility.yul\":16434:16601   */\n      swap2\n      swap1\n      pop\n      jump\t// out\n\n    auxdata: 0xa2646970667358221220601b581373eec96717acd8e5421397f2421f0d68d1275398287572a97b0d8cd664736f6c63430008160033\n}\n",
				"bytecode": {
					"linkReferences": {},
					"object": "60806040525f805f6101000a81548160ff0219169083151502179055505f60015560fa60025f6101000a81548160ff021916908360ff1602179055507ffffffffffffffffffffffffffffffffffffffffffffffffffffffffffffffff66003556040518060400160405280600e81526020017f48656c6c6f20536f6c696469747900000000000000000000000000000000000081525060049081620000a5919062000364565b506040518060400160405280600e81526020017f48656c6c6f20536f6c696469747900000000000000000000000000000000000081525060059081620000ec9190620004aa565b50348015620000f9575f80fd5b506200058e565b5f81519050919050565b7f4e487b71000000000000000000000000000000000000000000000000000000005f52604160045260245ffd5b7f4e487b71000000000000000000000000000000000000000000000000000000005f52602260045260245ffd5b5f60028204905060018216806200017c57607f821691505b60208210810362000192576200019162000137565b5b50919050565b5f819050815f5260205f209050919050565b5f6020601f8301049050919050565b5f82821b905092915050565b5f60088302620001f67fffffffffffffffffffffffffffffffffffffffffffffffffffffffffffffffff82620001b9565b620002028683620001b9565b95508019841693508086168417925050509392505050565b5f819050919050565b5f819050919050565b5f6200024c6200024662000240846200021a565b62000223565b6200021a565b9050919050565b5f819050919050565b62000267836200022c565b6200027f620002768262000253565b848454620001c5565b825550505050565b5f90565b6200029562000287565b620002a28184846200025c565b505050565b5b81811015620002c957620002bd5f826200028b565b600181019050620002a8565b5050565b601f8211156200031857620002e28162000198565b620002ed84620001aa565b81016020851015620002fd578190505b620003156200030c85620001aa565b830182620002a7565b50505b505050565b5f82821c905092915050565b5f6200033a5f19846008026200031d565b1980831691505092915050565b5f62000354838362000329565b9150826002028217905092915050565b6200036f8262000100565b67ffffffffffffffff8111156200038b576200038a6200010a565b5b62000397825462000164565b620003a4828285620002cd565b5f60209050601f831160018114620003da575f8415620003c5578287015190505b620003d1858262000347565b86555062000440565b601f198416620003ea8662000198565b5f5b828110156200041357848901518255600182019150602085019450602081019050620003ec565b868310156200043357848901516200042f601f89168262000329565b8355505b6001600288020188555050505b505050505050565b5f819050815f5260205f209050919050565b601f821115620004a5576200046f8162000448565b6200047a84620001aa565b810160208510156200048a578190505b620004a26200049985620001aa565b830182620002a7565b50505b505050565b620004b58262000100565b67ffffffffffffffff811115620004d157620004d06200010a565b5b620004dd825462000164565b620004ea8282856200045a565b5f60209050601f83116001811462000520575f84156200050b578287015190505b62000517858262000347565b86555062000586565b601f198416620005308662000448565b5f5b82811015620005595784890151825560018201915060208501945060208101905062000532565b8683101562000579578489015162000575601f89168262000329565b8355505b6001600288020188555050505b505050505050565b610e9c806200059c5f395ff3fe608060405234801561000f575f80fd5b50600436106100fd575f3560e01c8063772f839011610095578063cbee076011610064578063cbee07601461025f578063e4128fb31461027d578063e7bcd88f1461029b578063ecbbb967146102b9576100fd565b8063772f8390146101fb5780638381f58a14610205578063aaef20ea14610223578063c15bae8414610241576100fd565b80633fb5c1cb116100d15780633fb5c1cb146101755780634f86f506146101915780635a4a58cc146101c1578063712f4602146101dd576100fd565b806274530a146101015780630189c9bd1461011f5780630aa564341461013d578063191347df14610159575b5f80fd5b6101096102c3565b60405161011691906105bc565b60405180910390f35b6101276102d3565b60405161013491906105ed565b60405180910390f35b61015760048036038101906101529190610671565b6102d9565b005b610173600480360381019061016e91906107d8565b61031c565b005b61018f600480360381019061018a9190610852565b61032f565b005b6101ab60048036038101906101a691906107d8565b610339565b6040516101b891906105bc565b60405180910390f35b6101db60048036038101906101d691906108a7565b610391565b005b6101e56103ac565b6040516101f2919061094c565b60405180910390f35b610203610438565b005b61020d61044c565b60405161021a919061097b565b60405180910390f35b61022b610452565b60405161023891906109af565b60405180910390f35b610249610464565b6040516102569190610a1a565b60405180910390f35b6102676104f0565b604051610274919061097b565b60405180910390f35b61028561052f565b6040516102929190610a49565b60405180910390f35b6102a3610554565b6040516102b0919061097b565b60405180910390f35b6102c1610569565b005b5f8054906101000a900460ff1681565b60035481565b8060065f6101000a81548173ffffffffffffffffffffffffffffffffffffffff021916908373ffffffffffffffffffffffffffffffffffffffff16021790555050565b806004908161032b9190610c5c565b5050565b8060018190555050565b5f8160405160200161034b9190610d65565b6040516020818303038152906040528051906020012060046040516020016103739190610dfb565b60405160208183030381529060405280519060200120149050919050565b805f806101000a81548160ff02191690831515021790555050565b600580546103b990610a8f565b80601f01602080910402602001604051908101604052809291908181526020018280546103e590610a8f565b80156104305780601f1061040757610100808354040283529160200191610430565b820191905f5260205f20905b81548152906001019060200180831161041357829003601f168201915b505050505081565b60015f815480929190600190039190505550565b60015481565b60025f9054906101000a900460ff1681565b6004805461047190610a8f565b80601f016020809104026020016040519081016040528092919081815260200182805461049d90610a8f565b80156104e85780601f106104bf576101008083540402835291602001916104e8565b820191905f5260205f20905b8154815290600101906020018083116104cb57829003601f168201915b505050505081565b5f60065f9054906101000a900473ffffffffffffffffffffffffffffffffffffffff1673ffffffffffffffffffffffffffffffffffffffff1631905090565b60065f9054906101000a900473ffffffffffffffffffffffffffffffffffffffff1681565b5f6005805461056290610a8f565b9050905090565b60025f81819054906101000a900460ff168092919061058790610e3e565b91906101000a81548160ff021916908360ff16021790555050565b5f8115159050919050565b6105b6816105a2565b82525050565b5f6020820190506105cf5f8301846105ad565b92915050565b5f819050919050565b6105e7816105d5565b82525050565b5f6020820190506106005f8301846105de565b92915050565b5f604051905090565b5f80fd5b5f80fd5b5f73ffffffffffffffffffffffffffffffffffffffff82169050919050565b5f61064082610617565b9050919050565b61065081610636565b811461065a575f80fd5b50565b5f8135905061066b81610647565b92915050565b5f602082840312156106865761068561060f565b5b5f6106938482850161065d565b91505092915050565b5f80fd5b5f80fd5b5f601f19601f8301169050919050565b7f4e487b71000000000000000000000000000000000000000000000000000000005f52604160045260245ffd5b6106ea826106a4565b810181811067ffffffffffffffff82111715610709576107086106b4565b5b80604052505050565b5f61071b610606565b905061072782826106e1565b919050565b5f67ffffffffffffffff821115610746576107456106b4565b5b61074f826106a4565b9050602081019050919050565b828183375f83830152505050565b5f61077c6107778461072c565b610712565b905082815260208101848484011115610798576107976106a0565b5b6107a384828561075c565b509392505050565b5f82601f8301126107bf576107be61069c565b5b81356107cf84826020860161076a565b91505092915050565b5f602082840312156107ed576107ec61060f565b5b5f82013567ffffffffffffffff81111561080a57610809610613565b5b610816848285016107ab565b91505092915050565b5f819050919050565b6108318161081f565b811461083b575f80fd5b50565b5f8135905061084c81610828565b92915050565b5f602082840312156108675761086661060f565b5b5f6108748482850161083e565b91505092915050565b610886816105a2565b8114610890575f80fd5b50565b5f813590506108a18161087d565b92915050565b5f602082840312156108bc576108bb61060f565b5b5f6108c984828501610893565b91505092915050565b5f81519050919050565b5f82825260208201905092915050565b5f5b838110156109095780820151818401526020810190506108ee565b5f8484015250505050565b5f61091e826108d2565b61092881856108dc565b93506109388185602086016108ec565b610941816106a4565b840191505092915050565b5f6020820190508181035f8301526109648184610914565b905092915050565b6109758161081f565b82525050565b5f60208201905061098e5f83018461096c565b92915050565b5f60ff82169050919050565b6109a981610994565b82525050565b5f6020820190506109c25f8301846109a0565b92915050565b5f81519050919050565b5f82825260208201905092915050565b5f6109ec826109c8565b6109f681856109d2565b9350610a068185602086016108ec565b610a0f816106a4565b840191505092915050565b5f6020820190508181035f830152610a3281846109e2565b905092915050565b610a4381610636565b82525050565b5f602082019050610a5c5f830184610a3a565b92915050565b7f4e487b71000000000000000000000000000000000000000000000000000000005f52602260045260245ffd5b5f6002820490506001821680610aa657607f821691505b602082108103610ab957610ab8610a62565b5b50919050565b5f819050815f5260205f209050919050565b5f6020601f8301049050919050565b5f82821b905092915050565b5f60088302610b1b7fffffffffffffffffffffffffffffffffffffffffffffffffffffffffffffffff82610ae0565b610b258683610ae0565b95508019841693508086168417925050509392505050565b5f819050919050565b5f610b60610b5b610b568461081f565b610b3d565b61081f565b9050919050565b5f819050919050565b610b7983610b46565b610b8d610b8582610b67565b848454610aec565b825550505050565b5f90565b610ba1610b95565b610bac818484610b70565b505050565b5b81811015610bcf57610bc45f82610b99565b600181019050610bb2565b5050565b601f821115610c1457610be581610abf565b610bee84610ad1565b81016020851015610bfd578190505b610c11610c0985610ad1565b830182610bb1565b50505b505050565b5f82821c905092915050565b5f610c345f1984600802610c19565b1980831691505092915050565b5f610c4c8383610c25565b9150826002028217905092915050565b610c65826109c8565b67ffffffffffffffff811115610c7e57610c7d6106b4565b5b610c888254610a8f565b610c93828285610bd3565b5f60209050601f831160018114610cc4575f8415610cb2578287015190505b610cbc8582610c41565b865550610d23565b601f198416610cd286610abf565b5f5b82811015610cf957848901518255600182019150602085019450602081019050610cd4565b86831015610d165784890151610d12601f891682610c25565b8355505b6001600288020188555050505b505050505050565b5f81905092915050565b5f610d3f826109c8565b610d498185610d2b565b9350610d598185602086016108ec565b80840191505092915050565b5f610d708284610d35565b915081905092915050565b5f8154610d8781610a8f565b610d918186610d2b565b9450600182165f8114610dab5760018114610dc057610df2565b60ff1983168652811515820286019350610df2565b610dc985610abf565b5f5b83811015610dea57815481890152600182019150602081019050610dcb565b838801955050505b50505092915050565b5f610e068284610d7b565b915081905092915050565b7f4e487b71000000000000000000000000000000000000000000000000000000005f52601160045260245ffd5b5f610e4882610994565b915060ff8203610e5b57610e5a610e11565b5b60018201905091905056fea2646970667358221220601b581373eec96717acd8e5421397f2421f0d68d1275398287572a97b0d8cd664736f6c63430008160033",
					"opcodes": "PUSH1 0x80 PUSH1 0x40 MSTORE PUSH0 DUP1 PUSH0 PUSH2 0x100 EXP DUP2 SLOAD DUP2 PUSH1 0xFF MUL NOT AND SWAP1 DUP4 ISZERO ISZERO MUL OR SWAP1 SSTORE POP PUSH0 PUSH1 0x1 SSTORE PUSH1 0xFA PUSH1 0x2 PUSH0 PUSH2 0x100 EXP DUP2 SLOAD DUP2 PUSH1 0xFF MUL NOT AND SWAP1 DUP4 PUSH1 0xFF AND MUL OR SWAP1 SSTORE POP PUSH32 0xFFFFFFFFFFFFFFFFFFFFFFFFFFFFFFFFFFFFFFFFFFFFFFFFFFFFFFFFFFFFFFF6 PUSH1 0x3 SSTORE PUSH1 0x40 MLOAD DUP1 PUSH1 0x40 ADD PUSH1 0x40 MSTORE DUP1 PUSH1 0xE DUP2 MSTORE PUSH1 0x20 ADD PUSH32 0x48656C6C6F20536F6C6964697479000000000000000000000000000000000000 DUP2 MSTORE POP PUSH1 0x4 SWAP1 DUP2 PUSH3 0xA5 SWAP2 SWAP1 PUSH3 0x364 JUMP JUMPDEST POP PUSH1 0x40 MLOAD DUP1 PUSH1 0x40 ADD PUSH1 0x40 MSTORE DUP1 PUSH1 0xE DUP2 MSTORE PUSH1 0x20 ADD PUSH32 0x48656C6C6F20536F6C6964697479000000000000000000000000000000000000 DUP2 MSTORE POP PUSH1 0x5 SWAP1 DUP2 PUSH3 0xEC SWAP2 SWAP1 PUSH3 0x4AA JUMP JUMPDEST POP CALLVALUE DUP1 ISZERO PUSH3 0xF9 JUMPI PUSH0 DUP1 REVERT JUMPDEST POP PUSH3 0x58E JUMP JUMPDEST PUSH0 DUP2 MLOAD SWAP1 POP SWAP2 SWAP1 POP JUMP JUMPDEST PUSH32 0x4E487B7100000000000000000000000000000000000000000000000000000000 PUSH0 MSTORE PUSH1 0x41 PUSH1 0x4 MSTORE PUSH1 0x24 PUSH0 REVERT JUMPDEST PUSH32 0x4E487B7100000000000000000000000000000000000000000000000000000000 PUSH0 MSTORE PUSH1 0x22 PUSH1 0x4 MSTORE PUSH1 0x24 PUSH0 REVERT JUMPDEST PUSH0 PUSH1 0x2 DUP3 DIV SWAP1 POP PUSH1 0x1 DUP3 AND DUP1 PUSH3 0x17C JUMPI PUSH1 0x7F DUP3 AND SWAP2 POP JUMPDEST PUSH1 0x20 DUP3 LT DUP2 SUB PUSH3 0x192 JUMPI PUSH3 0x191 PUSH3 0x137 JUMP JUMPDEST JUMPDEST POP SWAP2 SWAP1 POP JUMP JUMPDEST PUSH0 DUP2 SWAP1 POP DUP2 PUSH0 MSTORE PUSH1 0x20 PUSH0 KECCAK256 SWAP1 POP SWAP2 SWAP1 POP JUMP JUMPDEST PUSH0 PUSH1 0x20 PUSH1 0x1F DUP4 ADD DIV SWAP1 POP SWAP2 SWAP1 POP JUMP JUMPDEST PUSH0 DUP3 DUP3 SHL SWAP1 POP SWAP3 SWAP2 POP POP JUMP JUMPDEST PUSH0 PUSH1 0x8 DUP4 MUL PUSH3 0x1F6 PUSH32 0xFFFFFFFFFFFFFFFFFFFFFFFFFFFFFFFFFFFFFFFFFFFFFFFFFFFFFFFFFFFFFFFF DUP3 PUSH3 0x1B9 JUMP JUMPDEST PUSH3 0x202 DUP7 DUP4 PUSH3 0x1B9 JUMP JUMPDEST SWAP6 POP DUP1 NOT DUP5 AND SWAP4 POP DUP1 DUP7 AND DUP5 OR SWAP3 POP POP POP SWAP4 SWAP3 POP POP POP JUMP JUMPDEST PUSH0 DUP2 SWAP1 POP SWAP2 SWAP1 POP JUMP JUMPDEST PUSH0 DUP2 SWAP1 POP SWAP2 SWAP1 POP JUMP JUMPDEST PUSH0 PUSH3 0x24C PUSH3 0x246 PUSH3 0x240 DUP5 PUSH3 0x21A JUMP JUMPDEST PUSH3 0x223 JUMP JUMPDEST PUSH3 0x21A JUMP JUMPDEST SWAP1 POP SWAP2 SWAP1 POP JUMP JUMPDEST PUSH0 DUP2 SWAP1 POP SWAP2 SWAP1 POP JUMP JUMPDEST PUSH3 0x267 DUP4 PUSH3 0x22C JUMP JUMPDEST PUSH3 0x27F PUSH3 0x276 DUP3 PUSH3 0x253 JUMP JUMPDEST DUP5 DUP5 SLOAD PUSH3 0x1C5 JUMP JUMPDEST DUP3 SSTORE POP POP POP POP JUMP JUMPDEST PUSH0 SWAP1 JUMP JUMPDEST PUSH3 0x295 PUSH3 0x287 JUMP JUMPDEST PUSH3 0x2A2 DUP2 DUP5 DUP5 PUSH3 0x25C JUMP JUMPDEST POP POP POP JUMP JUMPDEST JUMPDEST DUP2 DUP2 LT ISZERO PUSH3 0x2C9 JUMPI PUSH3 0x2BD PUSH0 DUP3 PUSH3 0x28B JUMP JUMPDEST PUSH1 0x1 DUP2 ADD SWAP1 POP PUSH3 0x2A8 JUMP JUMPDEST POP POP JUMP JUMPDEST PUSH1 0x1F DUP3 GT ISZERO PUSH3 0x318 JUMPI PUSH3 0x2E2 DUP2 PUSH3 0x198 JUMP JUMPDEST PUSH3 0x2ED DUP5 PUSH3 0x1AA JUMP JUMPDEST DUP2 ADD PUSH1 0x20 DUP6 LT ISZERO PUSH3 0x2FD JUMPI DUP2 SWAP1 POP JUMPDEST PUSH3 0x315 PUSH3 0x30C DUP6 PUSH3 0x1AA JUMP JUMPDEST DUP4 ADD DUP3 PUSH3 0x2A7 JUMP JUMPDEST POP POP JUMPDEST POP POP POP JUMP JUMPDEST PUSH0 DUP3 DUP3 SHR SWAP1 POP SWAP3 SWAP2 POP POP JUMP JUMPDEST PUSH0 PUSH3 0x33A PUSH0 NOT DUP5 PUSH1 0x8 MUL PUSH3 0x31D JUMP JUMPDEST NOT DUP1 DUP4 AND SWAP2 POP POP SWAP3 SWAP2 POP POP JUMP JUMPDEST PUSH0 PUSH3 0x354 DUP4 DUP4 PUSH3 0x329 JUMP JUMPDEST SWAP2 POP DUP3 PUSH1 0x2 MUL DUP3 OR SWAP1 POP SWAP3 SWAP2 POP POP JUMP JUMPDEST PUSH3 0x36F DUP3 PUSH3 0x100 JUMP JUMPDEST PUSH8 0xFFFFFFFFFFFFFFFF DUP2 GT ISZERO PUSH3 0x38B JUMPI PUSH3 0x38A PUSH3 0x10A JUMP JUMPDEST JUMPDEST PUSH3 0x397 DUP3 SLOAD PUSH3 0x164 JUMP JUMPDEST PUSH3 0x3A4 DUP3 DUP3 DUP6 PUSH3 0x2CD JUMP JUMPDEST PUSH0 PUSH1 0x20 SWAP1 POP PUSH1 0x1F DUP4 GT PUSH1 0x1 DUP2 EQ PUSH3 0x3DA JUMPI PUSH0 DUP5 ISZERO PUSH3 0x3C5 JUMPI DUP3 DUP8 ADD MLOAD SWAP1 POP JUMPDEST PUSH3 0x3D1 DUP6 DUP3 PUSH3 0x347 JUMP JUMPDEST DUP7 SSTORE POP PUSH3 0x440 JUMP JUMPDEST PUSH1 0x1F NOT DUP5 AND PUSH3 0x3EA DUP7 PUSH3 0x198 JUMP JUMPDEST PUSH0 JUMPDEST DUP3 DUP2 LT ISZERO PUSH3 0x413 JUMPI DUP5 DUP10 ADD MLOAD DUP3 SSTORE PUSH1 0x1 DUP3 ADD SWAP2 POP PUSH1 0x20 DUP6 ADD SWAP5 POP PUSH1 0x20 DUP2 ADD SWAP1 POP PUSH3 0x3EC JUMP JUMPDEST DUP7 DUP4 LT ISZERO PUSH3 0x433 JUMPI DUP5 DUP10 ADD MLOAD PUSH3 0x42F PUSH1 0x1F DUP10 AND DUP3 PUSH3 0x329 JUMP JUMPDEST DUP4 SSTORE POP JUMPDEST PUSH1 0x1 PUSH1 0x2 DUP9 MUL ADD DUP9 SSTORE POP POP POP JUMPDEST POP POP POP POP POP POP JUMP JUMPDEST PUSH0 DUP2 SWAP1 POP DUP2 PUSH0 MSTORE PUSH1 0x20 PUSH0 KECCAK256 SWAP1 POP SWAP2 SWAP1 POP JUMP JUMPDEST PUSH1 0x1F DUP3 GT ISZERO PUSH3 0x4A5 JUMPI PUSH3 0x46F DUP2 PUSH3 0x448 JUMP JUMPDEST PUSH3 0x47A DUP5 PUSH3 0x1AA JUMP JUMPDEST DUP2 ADD PUSH1 0x20 DUP6 LT ISZERO PUSH3 0x48A JUMPI DUP2 SWAP1 POP JUMPDEST PUSH3 0x4A2 PUSH3 0x499 DUP6 PUSH3 0x1AA JUMP JUMPDEST DUP4 ADD DUP3 PUSH3 0x2A7 JUMP JUMPDEST POP POP JUMPDEST POP POP POP JUMP JUMPDEST PUSH3 0x4B5 DUP3 PUSH3 0x100 JUMP JUMPDEST PUSH8 0xFFFFFFFFFFFFFFFF DUP2 GT ISZERO PUSH3 0x4D1 JUMPI PUSH3 0x4D0 PUSH3 0x10A JUMP JUMPDEST JUMPDEST PUSH3 0x4DD DUP3 SLOAD PUSH3 0x164 JUMP JUMPDEST PUSH3 0x4EA DUP3 DUP3 DUP6 PUSH3 0x45A JUMP JUMPDEST PUSH0 PUSH1 0x20 SWAP1 POP PUSH1 0x1F DUP4 GT PUSH1 0x1 DUP2 EQ PUSH3 0x520 JUMPI PUSH0 DUP5 ISZERO PUSH3 0x50B JUMPI DUP3 DUP8 ADD MLOAD SWAP1 POP JUMPDEST PUSH3 0x517 DUP6 DUP3 PUSH3 0x347 JUMP JUMPDEST DUP7 SSTORE POP PUSH3 0x586 JUMP JUMPDEST PUSH1 0x1F NOT DUP5 AND PUSH3 0x530 DUP7 PUSH3 0x448 JUMP JUMPDEST PUSH0 JUMPDEST DUP3 DUP2 LT ISZERO PUSH3 0x559 JUMPI DUP5 DUP10 ADD MLOAD DUP3 SSTORE PUSH1 0x1 DUP3 ADD SWAP2 POP PUSH1 0x20 DUP6 ADD SWAP5 POP PUSH1 0x20 DUP2 ADD SWAP1 POP PUSH3 0x532 JUMP JUMPDEST DUP7 DUP4 LT ISZERO PUSH3 0x579 JUMPI DUP5 DUP10 ADD MLOAD PUSH3 0x575 PUSH1 0x1F DUP10 AND DUP3 PUSH3 0x329 JUMP JUMPDEST DUP4 SSTORE POP JUMPDEST PUSH1 0x1 PUSH1 0x2 DUP9 MUL ADD DUP9 SSTORE POP POP POP JUMPDEST POP POP POP POP POP POP JUMP JUMPDEST PUSH2 0xE9C DUP1 PUSH3 0x59C PUSH0 CODECOPY PUSH0 RETURN INVALID PUSH1 0x80 PUSH1 0x40 MSTORE CALLVALUE DUP1 ISZERO PUSH2 0xF JUMPI PUSH0 DUP1 REVERT JUMPDEST POP PUSH1 0x4 CALLDATASIZE LT PUSH2 0xFD JUMPI PUSH0 CALLDATALOAD PUSH1 0xE0 SHR DUP1 PUSH4 0x772F8390 GT PUSH2 0x95 JUMPI DUP1 PUSH4 0xCBEE0760 GT PUSH2 0x64 JUMPI DUP1 PUSH4 0xCBEE0760 EQ PUSH2 0x25F JUMPI DUP1 PUSH4 0xE4128FB3 EQ PUSH2 0x27D JUMPI DUP1 PUSH4 0xE7BCD88F EQ PUSH2 0x29B JUMPI DUP1 PUSH4 0xECBBB967 EQ PUSH2 0x2B9 JUMPI PUSH2 0xFD JUMP JUMPDEST DUP1 PUSH4 0x772F8390 EQ PUSH2 0x1FB JUMPI DUP1 PUSH4 0x8381F58A EQ PUSH2 0x205 JUMPI DUP1 PUSH4 0xAAEF20EA EQ PUSH2 0x223 JUMPI DUP1 PUSH4 0xC15BAE84 EQ PUSH2 0x241 JUMPI PUSH2 0xFD JUMP JUMPDEST DUP1 PUSH4 0x3FB5C1CB GT PUSH2 0xD1 JUMPI DUP1 PUSH4 0x3FB5C1CB EQ PUSH2 0x175 JUMPI DUP1 PUSH4 0x4F86F506 EQ PUSH2 0x191 JUMPI DUP1 PUSH4 0x5A4A58CC EQ PUSH2 0x1C1 JUMPI DUP1 PUSH4 0x712F4602 EQ PUSH2 0x1DD JUMPI PUSH2 0xFD JUMP JUMPDEST DUP1 PUSH3 0x74530A EQ PUSH2 0x101 JUMPI DUP1 PUSH4 0x189C9BD EQ PUSH2 0x11F JUMPI DUP1 PUSH4 0xAA56434 EQ PUSH2 0x13D JUMPI DUP1 PUSH4 0x191347DF EQ PUSH2 0x159 JUMPI JUMPDEST PUSH0 DUP1 REVERT JUMPDEST PUSH2 0x109 PUSH2 0x2C3 JUMP JUMPDEST PUSH1 0x40 MLOAD PUSH2 0x116 SWAP2 SWAP1 PUSH2 0x5BC JUMP JUMPDEST PUSH1 0x40 MLOAD DUP1 SWAP2 SUB SWAP1 RETURN JUMPDEST PUSH2 0x127 PUSH2 0x2D3 JUMP JUMPDEST PUSH1 0x40 MLOAD PUSH2 0x134 SWAP2 SWAP1 PUSH2 0x5ED JUMP JUMPDEST PUSH1 0x40 MLOAD DUP1 SWAP2 SUB SWAP1 RETURN JUMPDEST PUSH2 0x157 PUSH1 0x4 DUP1 CALLDATASIZE SUB DUP2 ADD SWAP1 PUSH2 0x152 SWAP2 SWAP1 PUSH2 0x671 JUMP JUMPDEST PUSH2 0x2D9 JUMP JUMPDEST STOP JUMPDEST PUSH2 0x173 PUSH1 0x4 DUP1 CALLDATASIZE SUB DUP2 ADD SWAP1 PUSH2 0x16E SWAP2 SWAP1 PUSH2 0x7D8 JUMP JUMPDEST PUSH2 0x31C JUMP JUMPDEST STOP JUMPDEST PUSH2 0x18F PUSH1 0x4 DUP1 CALLDATASIZE SUB DUP2 ADD SWAP1 PUSH2 0x18A SWAP2 SWAP1 PUSH2 0x852 JUMP JUMPDEST PUSH2 0x32F JUMP JUMPDEST STOP JUMPDEST PUSH2 0x1AB PUSH1 0x4 DUP1 CALLDATASIZE SUB DUP2 ADD SWAP1 PUSH2 0x1A6 SWAP2 SWAP1 PUSH2 0x7D8 JUMP JUMPDEST PUSH2 0x339 JUMP JUMPDEST PUSH1 0x40 MLOAD PUSH2 0x1B8 SWAP2 SWAP1 PUSH2 0x5BC JUMP JUMPDEST PUSH1 0x40 MLOAD DUP1 SWAP2 SUB SWAP1 RETURN JUMPDEST PUSH2 0x1DB PUSH1 0x4 DUP1 CALLDATASIZE SUB DUP2 ADD SWAP1 PUSH2 0x1D6 SWAP2 SWAP1 PUSH2 0x8A7 JUMP JUMPDEST PUSH2 0x391 JUMP JUMPDEST STOP JUMPDEST PUSH2 0x1E5 PUSH2 0x3AC JUMP JUMPDEST PUSH1 0x40 MLOAD PUSH2 0x1F2 SWAP2 SWAP1 PUSH2 0x94C JUMP JUMPDEST PUSH1 0x40 MLOAD DUP1 SWAP2 SUB SWAP1 RETURN JUMPDEST PUSH2 0x203 PUSH2 0x438 JUMP JUMPDEST STOP JUMPDEST PUSH2 0x20D PUSH2 0x44C JUMP JUMPDEST PUSH1 0x40 MLOAD PUSH2 0x21A SWAP2 SWAP1 PUSH2 0x97B JUMP JUMPDEST PUSH1 0x40 MLOAD DUP1 SWAP2 SUB SWAP1 RETURN JUMPDEST PUSH2 0x22B PUSH2 0x452 JUMP JUMPDEST PUSH1 0x40 MLOAD PUSH2 0x238 SWAP2 SWAP1 PUSH2 0x9AF JUMP JUMPDEST PUSH1 0x40 MLOAD DUP1 SWAP2 SUB SWAP1 RETURN JUMPDEST PUSH2 0x249 PUSH2 0x464 JUMP JUMPDEST PUSH1 0x40 MLOAD PUSH2 0x256 SWAP2 SWAP1 PUSH2 0xA1A JUMP JUMPDEST PUSH1 0x40 MLOAD DUP1 SWAP2 SUB SWAP1 RETURN JUMPDEST PUSH2 0x267 PUSH2 0x4F0 JUMP JUMPDEST PUSH1 0x40 MLOAD PUSH2 0x274 SWAP2 SWAP1 PUSH2 0x97B JUMP JUMPDEST PUSH1 0x40 MLOAD DUP1 SWAP2 SUB SWAP1 RETURN JUMPDEST PUSH2 0x285 PUSH2 0x52F JUMP JUMPDEST PUSH1 0x40 MLOAD PUSH2 0x292 SWAP2 SWAP1 PUSH2 0xA49 JUMP JUMPDEST PUSH1 0x40 MLOAD DUP1 SWAP2 SUB SWAP1 RETURN JUMPDEST PUSH2 0x2A3 PUSH2 0x554 JUMP JUMPDEST PUSH1 0x40 MLOAD PUSH2 0x2B0 SWAP2 SWAP1 PUSH2 0x97B JUMP JUMPDEST PUSH1 0x40 MLOAD DUP1 SWAP2 SUB SWAP1 RETURN JUMPDEST PUSH2 0x2C1 PUSH2 0x569 JUMP JUMPDEST STOP JUMPDEST PUSH0 DUP1 SLOAD SWAP1 PUSH2 0x100 EXP SWAP1 DIV PUSH1 0xFF AND DUP2 JUMP JUMPDEST PUSH1 0x3 SLOAD DUP2 JUMP JUMPDEST DUP1 PUSH1 0x6 PUSH0 PUSH2 0x100 EXP DUP2 SLOAD DUP2 PUSH20 0xFFFFFFFFFFFFFFFFFFFFFFFFFFFFFFFFFFFFFFFF MUL NOT AND SWAP1 DUP4 PUSH20 0xFFFFFFFFFFFFFFFFFFFFFFFFFFFFFFFFFFFFFFFF AND MUL OR SWAP1 SSTORE POP POP JUMP JUMPDEST DUP1 PUSH1 0x4 SWAP1 DUP2 PUSH2 0x32B SWAP2 SWAP1 PUSH2 0xC5C JUMP JUMPDEST POP POP JUMP JUMPDEST DUP1 PUSH1 0x1 DUP2 SWAP1 SSTORE POP POP JUMP JUMPDEST PUSH0 DUP2 PUSH1 0x40 MLOAD PUSH1 0x20 ADD PUSH2 0x34B SWAP2 SWAP1 PUSH2 0xD65 JUMP JUMPDEST PUSH1 0x40 MLOAD PUSH1 0x20 DUP2 DUP4 SUB SUB DUP2 MSTORE SWAP1 PUSH1 0x40 MSTORE DUP1 MLOAD SWAP1 PUSH1 0x20 ADD KECCAK256 PUSH1 0x4 PUSH1 0x40 MLOAD PUSH1 0x20 ADD PUSH2 0x373 SWAP2 SWAP1 PUSH2 0xDFB JUMP JUMPDEST PUSH1 0x40 MLOAD PUSH1 0x20 DUP2 DUP4 SUB SUB DUP2 MSTORE SWAP1 PUSH1 0x40 MSTORE DUP1 MLOAD SWAP1 PUSH1 0x20 ADD KECCAK256 EQ SWAP1 POP SWAP2 SWAP1 POP JUMP JUMPDEST DUP1 PUSH0 DUP1 PUSH2 0x100 EXP DUP2 SLOAD DUP2 PUSH1 0xFF MUL NOT AND SWAP1 DUP4 ISZERO ISZERO MUL OR SWAP1 SSTORE POP POP JUMP JUMPDEST PUSH1 0x5 DUP1 SLOAD PUSH2 0x3B9 SWAP1 PUSH2 0xA8F JUMP JUMPDEST DUP1 PUSH1 0x1F ADD PUSH1 0x20 DUP1 SWAP2 DIV MUL PUSH1 0x20 ADD PUSH1 0x40 MLOAD SWAP1 DUP2 ADD PUSH1 0x40 MSTORE DUP1 SWAP3 SWAP2 SWAP1 DUP2 DUP2 MSTORE PUSH1 0x20 ADD DUP3 DUP1 SLOAD PUSH2 0x3E5 SWAP1 PUSH2 0xA8F JUMP JUMPDEST DUP1 ISZERO PUSH2 0x430 JUMPI DUP1 PUSH1 0x1F LT PUSH2 0x407 JUMPI PUSH2 0x100 DUP1 DUP4 SLOAD DIV MUL DUP4 MSTORE SWAP2 PUSH1 0x20 ADD SWAP2 PUSH2 0x430 JUMP JUMPDEST DUP3 ADD SWAP2 SWAP1 PUSH0 MSTORE PUSH1 0x20 PUSH0 KECCAK256 SWAP1 JUMPDEST DUP2 SLOAD DUP2 MSTORE SWAP1 PUSH1 0x1 ADD SWAP1 PUSH1 0x20 ADD DUP1 DUP4 GT PUSH2 0x413 JUMPI DUP3 SWAP1 SUB PUSH1 0x1F AND DUP3 ADD SWAP2 JUMPDEST POP POP POP POP POP DUP2 JUMP JUMPDEST PUSH1 0x1 PUSH0 DUP2 SLOAD DUP1 SWAP3 SWAP2 SWAP1 PUSH1 0x1 SWAP1 SUB SWAP2 SWAP1 POP SSTORE POP JUMP JUMPDEST PUSH1 0x1 SLOAD DUP2 JUMP JUMPDEST PUSH1 0x2 PUSH0 SWAP1 SLOAD SWAP1 PUSH2 0x100 EXP SWAP1 DIV PUSH1 0xFF AND DUP2 JUMP JUMPDEST PUSH1 0x4 DUP1 SLOAD PUSH2 0x471 SWAP1 PUSH2 0xA8F JUMP JUMPDEST DUP1 PUSH1 0x1F ADD PUSH1 0x20 DUP1 SWAP2 DIV MUL PUSH1 0x20 ADD PUSH1 0x40 MLOAD SWAP1 DUP2 ADD PUSH1 0x40 MSTORE DUP1 SWAP3 SWAP2 SWAP1 DUP2 DUP2 MSTORE PUSH1 0x20 ADD DUP3 DUP1 SLOAD PUSH2 0x49D SWAP1 PUSH2 0xA8F JUMP JUMPDEST DUP1 ISZERO PUSH2 0x4E8 JUMPI DUP1 PUSH1 0x1F LT PUSH2 0x4BF JUMPI PUSH2 0x100 DUP1 DUP4 SLOAD DIV MUL DUP4 MSTORE SWAP2 PUSH1 0x20 ADD SWAP2 PUSH2 0x4E8 JUMP JUMPDEST DUP3 ADD SWAP2 SWAP1 PUSH0 MSTORE PUSH1 0x20 PUSH0 KECCAK256 SWAP1 JUMPDEST DUP2 SLOAD DUP2 MSTORE SWAP1 PUSH1 0x1 ADD SWAP1 PUSH1 0x20 ADD DUP1 DUP4 GT PUSH2 0x4CB JUMPI DUP3 SWAP1 SUB PUSH1 0x1F AND DUP3 ADD SWAP2 JUMPDEST POP POP POP POP POP DUP2 JUMP JUMPDEST PUSH0 PUSH1 0x6 PUSH0 SWAP1 SLOAD SWAP1 PUSH2 0x100 EXP SWAP1 DIV PUSH20 0xFFFFFFFFFFFFFFFFFFFFFFFFFFFFFFFFFFFFFFFF AND PUSH20 0xFFFFFFFFFFFFFFFFFFFFFFFFFFFFFFFFFFFFFFFF AND BALANCE SWAP1 POP SWAP1 JUMP JUMPDEST PUSH1 0x6 PUSH0 SWAP1 SLOAD SWAP1 PUSH2 0x100 EXP SWAP1 DIV PUSH20 0xFFFFFFFFFFFFFFFFFFFFFFFFFFFFFFFFFFFFFFFF AND DUP2 JUMP JUMPDEST PUSH0 PUSH1 0x5 DUP1 SLOAD PUSH2 0x562 SWAP1 PUSH2 0xA8F JUMP JUMPDEST SWAP1 POP SWAP1 POP SWAP1 JUMP JUMPDEST PUSH1 0x2 PUSH0 DUP2 DUP2 SWAP1 SLOAD SWAP1 PUSH2 0x100 EXP SWAP1 DIV PUSH1 0xFF AND DUP1 SWAP3 SWAP2 SWAP1 PUSH2 0x587 SWAP1 PUSH2 0xE3E JUMP JUMPDEST SWAP2 SWAP1 PUSH2 0x100 EXP DUP2 SLOAD DUP2 PUSH1 0xFF MUL NOT AND SWAP1 DUP4 PUSH1 0xFF AND MUL OR SWAP1 SSTORE POP POP JUMP JUMPDEST PUSH0 DUP2 ISZERO ISZERO SWAP1 POP SWAP2 SWAP1 POP JUMP JUMPDEST PUSH2 0x5B6 DUP2 PUSH2 0x5A2 JUMP JUMPDEST DUP3 MSTORE POP POP JUMP JUMPDEST PUSH0 PUSH1 0x20 DUP3 ADD SWAP1 POP PUSH2 0x5CF PUSH0 DUP4 ADD DUP5 PUSH2 0x5AD JUMP JUMPDEST SWAP3 SWAP2 POP POP JUMP JUMPDEST PUSH0 DUP2 SWAP1 POP SWAP2 SWAP1 POP JUMP JUMPDEST PUSH2 0x5E7 DUP2 PUSH2 0x5D5 JUMP JUMPDEST DUP3 MSTORE POP POP JUMP JUMPDEST PUSH0 PUSH1 0x20 DUP3 ADD SWAP1 POP PUSH2 0x600 PUSH0 DUP4 ADD DUP5 PUSH2 0x5DE JUMP JUMPDEST SWAP3 SWAP2 POP POP JUMP JUMPDEST PUSH0 PUSH1 0x40 MLOAD SWAP1 POP SWAP1 JUMP JUMPDEST PUSH0 DUP1 REVERT JUMPDEST PUSH0 DUP1 REVERT JUMPDEST PUSH0 PUSH20 0xFFFFFFFFFFFFFFFFFFFFFFFFFFFFFFFFFFFFFFFF DUP3 AND SWAP1 POP SWAP2 SWAP1 POP JUMP JUMPDEST PUSH0 PUSH2 0x640 DUP3 PUSH2 0x617 JUMP JUMPDEST SWAP1 POP SWAP2 SWAP1 POP JUMP JUMPDEST PUSH2 0x650 DUP2 PUSH2 0x636 JUMP JUMPDEST DUP2 EQ PUSH2 0x65A JUMPI PUSH0 DUP1 REVERT JUMPDEST POP JUMP JUMPDEST PUSH0 DUP2 CALLDATALOAD SWAP1 POP PUSH2 0x66B DUP2 PUSH2 0x647 JUMP JUMPDEST SWAP3 SWAP2 POP POP JUMP JUMPDEST PUSH0 PUSH1 0x20 DUP3 DUP5 SUB SLT ISZERO PUSH2 0x686 JUMPI PUSH2 0x685 PUSH2 0x60F JUMP JUMPDEST JUMPDEST PUSH0 PUSH2 0x693 DUP5 DUP3 DUP6 ADD PUSH2 0x65D JUMP JUMPDEST SWAP2 POP POP SWAP3 SWAP2 POP POP JUMP JUMPDEST PUSH0 DUP1 REVERT JUMPDEST PUSH0 DUP1 REVERT JUMPDEST PUSH0 PUSH1 0x1F NOT PUSH1 0x1F DUP4 ADD AND SWAP1 POP SWAP2 SWAP1 POP JUMP JUMPDEST PUSH32 0x4E487B7100000000000000000000000000000000000000000000000000000000 PUSH0 MSTORE PUSH1 0x41 PUSH1 0x4 MSTORE PUSH1 0x24 PUSH0 REVERT JUMPDEST PUSH2 0x6EA DUP3 PUSH2 0x6A4 JUMP JUMPDEST DUP2 ADD DUP2 DUP2 LT PUSH8 0xFFFFFFFFFFFFFFFF DUP3 GT OR ISZERO PUSH2 0x709 JUMPI PUSH2 0x708 PUSH2 0x6B4 JUMP JUMPDEST JUMPDEST DUP1 PUSH1 0x40 MSTORE POP POP POP JUMP JUMPDEST PUSH0 PUSH2 0x71B PUSH2 0x606 JUMP JUMPDEST SWAP1 POP PUSH2 0x727 DUP3 DUP3 PUSH2 0x6E1 JUMP JUMPDEST SWAP2 SWAP1 POP JUMP JUMPDEST PUSH0 PUSH8 0xFFFFFFFFFFFFFFFF DUP3 GT ISZERO PUSH2 0x746 JUMPI PUSH2 0x745 PUSH2 0x6B4 JUMP JUMPDEST JUMPDEST PUSH2 0x74F DUP3 PUSH2 0x6A4 JUMP JUMPDEST SWAP1 POP PUSH1 0x20 DUP2 ADD SWAP1 POP SWAP2 SWAP1 POP JUMP JUMPDEST DUP3 DUP2 DUP4 CALLDATACOPY PUSH0 DUP4 DUP4 ADD MSTORE POP POP POP JUMP JUMPDEST PUSH0 PUSH2 0x77C PUSH2 0x777 DUP5 PUSH2 0x72C JUMP JUMPDEST PUSH2 0x712 JUMP JUMPDEST SWAP1 POP DUP3 DUP2 MSTORE PUSH1 0x20 DUP2 ADD DUP5 DUP5 DUP5 ADD GT ISZERO PUSH2 0x798 JUMPI PUSH2 0x797 PUSH2 0x6A0 JUMP JUMPDEST JUMPDEST PUSH2 0x7A3 DUP5 DUP3 DUP6 PUSH2 0x75C JUMP JUMPDEST POP SWAP4 SWAP3 POP POP POP JUMP JUMPDEST PUSH0 DUP3 PUSH1 0x1F DUP4 ADD SLT PUSH2 0x7BF JUMPI PUSH2 0x7BE PUSH2 0x69C JUMP JUMPDEST JUMPDEST DUP2 CALLDATALOAD PUSH2 0x7CF DUP5 DUP3 PUSH1 0x20 DUP7 ADD PUSH2 0x76A JUMP JUMPDEST SWAP2 POP POP SWAP3 SWAP2 POP POP JUMP JUMPDEST PUSH0 PUSH1 0x20 DUP3 DUP5 SUB SLT ISZERO PUSH2 0x7ED JUMPI PUSH2 0x7EC PUSH2 0x60F JUMP JUMPDEST JUMPDEST PUSH0 DUP3 ADD CALLDATALOAD PUSH8 0xFFFFFFFFFFFFFFFF DUP2 GT ISZERO PUSH2 0x80A JUMPI PUSH2 0x809 PUSH2 0x613 JUMP JUMPDEST JUMPDEST PUSH2 0x816 DUP5 DUP3 DUP6 ADD PUSH2 0x7AB JUMP JUMPDEST SWAP2 POP POP SWAP3 SWAP2 POP POP JUMP JUMPDEST PUSH0 DUP2 SWAP1 POP SWAP2 SWAP1 POP JUMP JUMPDEST PUSH2 0x831 DUP2 PUSH2 0x81F JUMP JUMPDEST DUP2 EQ PUSH2 0x83B JUMPI PUSH0 DUP1 REVERT JUMPDEST POP JUMP JUMPDEST PUSH0 DUP2 CALLDATALOAD SWAP1 POP PUSH2 0x84C DUP2 PUSH2 0x828 JUMP JUMPDEST SWAP3 SWAP2 POP POP JUMP JUMPDEST PUSH0 PUSH1 0x20 DUP3 DUP5 SUB SLT ISZERO PUSH2 0x867 JUMPI PUSH2 0x866 PUSH2 0x60F JUMP JUMPDEST JUMPDEST PUSH0 PUSH2 0x874 DUP5 DUP3 DUP6 ADD PUSH2 0x83E JUMP JUMPDEST SWAP2 POP POP SWAP3 SWAP2 POP POP JUMP JUMPDEST PUSH2 0x886 DUP2 PUSH2 0x5A2 JUMP JUMPDEST DUP2 EQ PUSH2 0x890 JUMPI PUSH0 DUP1 REVERT JUMPDEST POP JUMP JUMPDEST PUSH0 DUP2 CALLDATALOAD SWAP1 POP PUSH2 0x8A1 DUP2 PUSH2 0x87D JUMP JUMPDEST SWAP3 SWAP2 POP POP JUMP JUMPDEST PUSH0 PUSH1 0x20 DUP3 DUP5 SUB SLT ISZERO PUSH2 0x8BC JUMPI PUSH2 0x8BB PUSH2 0x60F JUMP JUMPDEST JUMPDEST PUSH0 PUSH2 0x8C9 DUP5 DUP3 DUP6 ADD PUSH2 0x893 JUMP JUMPDEST SWAP2 POP POP SWAP3 SWAP2 POP POP JUMP JUMPDEST PUSH0 DUP2 MLOAD SWAP1 POP SWAP2 SWAP1 POP JUMP JUMPDEST PUSH0 DUP3 DUP3 MSTORE PUSH1 0x20 DUP3 ADD SWAP1 POP SWAP3 SWAP2 POP POP JUMP JUMPDEST PUSH0 JUMPDEST DUP4 DUP2 LT ISZERO PUSH2 0x909 JUMPI DUP1 DUP3 ADD MLOAD DUP2 DUP5 ADD MSTORE PUSH1 0x20 DUP2 ADD SWAP1 POP PUSH2 0x8EE JUMP JUMPDEST PUSH0 DUP5 DUP5 ADD MSTORE POP POP POP POP JUMP JUMPDEST PUSH0 PUSH2 0x91E DUP3 PUSH2 0x8D2 JUMP JUMPDEST PUSH2 0x928 DUP2 DUP6 PUSH2 0x8DC JUMP JUMPDEST SWAP4 POP PUSH2 0x938 DUP2 DUP6 PUSH1 0x20 DUP7 ADD PUSH2 0x8EC JUMP JUMPDEST PUSH2 0x941 DUP2 PUSH2 0x6A4 JUMP JUMPDEST DUP5 ADD SWAP2 POP POP SWAP3 SWAP2 POP POP JUMP JUMPDEST PUSH0 PUSH1 0x20 DUP3 ADD SWAP1 POP DUP2 DUP2 SUB PUSH0 DUP4 ADD MSTORE PUSH2 0x964 DUP2 DUP5 PUSH2 0x914 JUMP JUMPDEST SWAP1 POP SWAP3 SWAP2 POP POP JUMP JUMPDEST PUSH2 0x975 DUP2 PUSH2 0x81F JUMP JUMPDEST DUP3 MSTORE POP POP JUMP JUMPDEST PUSH0 PUSH1 0x20 DUP3 ADD SWAP1 POP PUSH2 0x98E PUSH0 DUP4 ADD DUP5 PUSH2 0x96C JUMP JUMPDEST SWAP3 SWAP2 POP POP JUMP JUMPDEST PUSH0 PUSH1 0xFF DUP3 AND SWAP1 POP SWAP2 SWAP1 POP JUMP JUMPDEST PUSH2 0x9A9 DUP2 PUSH2 0x994 JUMP JUMPDEST DUP3 MSTORE POP POP JUMP JUMPDEST PUSH0 PUSH1 0x20 DUP3 ADD SWAP1 POP PUSH2 0x9C2 PUSH0 DUP4 ADD DUP5 PUSH2 0x9A0 JUMP JUMPDEST SWAP3 SWAP2 POP POP JUMP JUMPDEST PUSH0 DUP2 MLOAD SWAP1 POP SWAP2 SWAP1 POP JUMP JUMPDEST PUSH0 DUP3 DUP3 MSTORE PUSH1 0x20 DUP3 ADD SWAP1 POP SWAP3 SWAP2 POP POP JUMP JUMPDEST PUSH0 PUSH2 0x9EC DUP3 PUSH2 0x9C8 JUMP JUMPDEST PUSH2 0x9F6 DUP2 DUP6 PUSH2 0x9D2 JUMP JUMPDEST SWAP4 POP PUSH2 0xA06 DUP2 DUP6 PUSH1 0x20 DUP7 ADD PUSH2 0x8EC JUMP JUMPDEST PUSH2 0xA0F DUP2 PUSH2 0x6A4 JUMP JUMPDEST DUP5 ADD SWAP2 POP POP SWAP3 SWAP2 POP POP JUMP JUMPDEST PUSH0 PUSH1 0x20 DUP3 ADD SWAP1 POP DUP2 DUP2 SUB PUSH0 DUP4 ADD MSTORE PUSH2 0xA32 DUP2 DUP5 PUSH2 0x9E2 JUMP JUMPDEST SWAP1 POP SWAP3 SWAP2 POP POP JUMP JUMPDEST PUSH2 0xA43 DUP2 PUSH2 0x636 JUMP JUMPDEST DUP3 MSTORE POP POP JUMP JUMPDEST PUSH0 PUSH1 0x20 DUP3 ADD SWAP1 POP PUSH2 0xA5C PUSH0 DUP4 ADD DUP5 PUSH2 0xA3A JUMP JUMPDEST SWAP3 SWAP2 POP POP JUMP JUMPDEST PUSH32 0x4E487B7100000000000000000000000000000000000000000000000000000000 PUSH0 MSTORE PUSH1 0x22 PUSH1 0x4 MSTORE PUSH1 0x24 PUSH0 REVERT JUMPDEST PUSH0 PUSH1 0x2 DUP3 DIV SWAP1 POP PUSH1 0x1 DUP3 AND DUP1 PUSH2 0xAA6 JUMPI PUSH1 0x7F DUP3 AND SWAP2 POP JUMPDEST PUSH1 0x20 DUP3 LT DUP2 SUB PUSH2 0xAB9 JUMPI PUSH2 0xAB8 PUSH2 0xA62 JUMP JUMPDEST JUMPDEST POP SWAP2 SWAP1 POP JUMP JUMPDEST PUSH0 DUP2 SWAP1 POP DUP2 PUSH0 MSTORE PUSH1 0x20 PUSH0 KECCAK256 SWAP1 POP SWAP2 SWAP1 POP JUMP JUMPDEST PUSH0 PUSH1 0x20 PUSH1 0x1F DUP4 ADD DIV SWAP1 POP SWAP2 SWAP1 POP JUMP JUMPDEST PUSH0 DUP3 DUP3 SHL SWAP1 POP SWAP3 SWAP2 POP POP JUMP JUMPDEST PUSH0 PUSH1 0x8 DUP4 MUL PUSH2 0xB1B PUSH32 0xFFFFFFFFFFFFFFFFFFFFFFFFFFFFFFFFFFFFFFFFFFFFFFFFFFFFFFFFFFFFFFFF DUP3 PUSH2 0xAE0 JUMP JUMPDEST PUSH2 0xB25 DUP7 DUP4 PUSH2 0xAE0 JUMP JUMPDEST SWAP6 POP DUP1 NOT DUP5 AND SWAP4 POP DUP1 DUP7 AND DUP5 OR SWAP3 POP POP POP SWAP4 SWAP3 POP POP POP JUMP JUMPDEST PUSH0 DUP2 SWAP1 POP SWAP2 SWAP1 POP JUMP JUMPDEST PUSH0 PUSH2 0xB60 PUSH2 0xB5B PUSH2 0xB56 DUP5 PUSH2 0x81F JUMP JUMPDEST PUSH2 0xB3D JUMP JUMPDEST PUSH2 0x81F JUMP JUMPDEST SWAP1 POP SWAP2 SWAP1 POP JUMP JUMPDEST PUSH0 DUP2 SWAP1 POP SWAP2 SWAP1 POP JUMP JUMPDEST PUSH2 0xB79 DUP4 PUSH2 0xB46 JUMP JUMPDEST PUSH2 0xB8D PUSH2 0xB85 DUP3 PUSH2 0xB67 JUMP JUMPDEST DUP5 DUP5 SLOAD PUSH2 0xAEC JUMP JUMPDEST DUP3 SSTORE POP POP POP POP JUMP JUMPDEST PUSH0 SWAP1 JUMP JUMPDEST PUSH2 0xBA1 PUSH2 0xB95 JUMP JUMPDEST PUSH2 0xBAC DUP2 DUP5 DUP5 PUSH2 0xB70 JUMP JUMPDEST POP POP POP JUMP JUMPDEST JUMPDEST DUP2 DUP2 LT ISZERO PUSH2 0xBCF JUMPI PUSH2 0xBC4 PUSH0 DUP3 PUSH2 0xB99 JUMP JUMPDEST PUSH1 0x1 DUP2 ADD SWAP1 POP PUSH2 0xBB2 JUMP JUMPDEST POP POP JUMP JUMPDEST PUSH1 0x1F DUP3 GT ISZERO PUSH2 0xC14 JUMPI PUSH2 0xBE5 DUP2 PUSH2 0xABF JUMP JUMPDEST PUSH2 0xBEE DUP5 PUSH2 0xAD1 JUMP JUMPDEST DUP2 ADD PUSH1 0x20 DUP6 LT ISZERO PUSH2 0xBFD JUMPI DUP2 SWAP1 POP JUMPDEST PUSH2 0xC11 PUSH2 0xC09 DUP6 PUSH2 0xAD1 JUMP JUMPDEST DUP4 ADD DUP3 PUSH2 0xBB1 JUMP JUMPDEST POP POP JUMPDEST POP POP POP JUMP JUMPDEST PUSH0 DUP3 DUP3 SHR SWAP1 POP SWAP3 SWAP2 POP POP JUMP JUMPDEST PUSH0 PUSH2 0xC34 PUSH0 NOT DUP5 PUSH1 0x8 MUL PUSH2 0xC19 JUMP JUMPDEST NOT DUP1 DUP4 AND SWAP2 POP POP SWAP3 SWAP2 POP POP JUMP JUMPDEST PUSH0 PUSH2 0xC4C DUP4 DUP4 PUSH2 0xC25 JUMP JUMPDEST SWAP2 POP DUP3 PUSH1 0x2 MUL DUP3 OR SWAP1 POP SWAP3 SWAP2 POP POP JUMP JUMPDEST PUSH2 0xC65 DUP3 PUSH2 0x9C8 JUMP JUMPDEST PUSH8 0xFFFFFFFFFFFFFFFF DUP2 GT ISZERO PUSH2 0xC7E JUMPI PUSH2 0xC7D PUSH2 0x6B4 JUMP JUMPDEST JUMPDEST PUSH2 0xC88 DUP3 SLOAD PUSH2 0xA8F JUMP JUMPDEST PUSH2 0xC93 DUP3 DUP3 DUP6 PUSH2 0xBD3 JUMP JUMPDEST PUSH0 PUSH1 0x20 SWAP1 POP PUSH1 0x1F DUP4 GT PUSH1 0x1 DUP2 EQ PUSH2 0xCC4 JUMPI PUSH0 DUP5 ISZERO PUSH2 0xCB2 JUMPI DUP3 DUP8 ADD MLOAD SWAP1 POP JUMPDEST PUSH2 0xCBC DUP6 DUP3 PUSH2 0xC41 JUMP JUMPDEST DUP7 SSTORE POP PUSH2 0xD23 JUMP JUMPDEST PUSH1 0x1F NOT DUP5 AND PUSH2 0xCD2 DUP7 PUSH2 0xABF JUMP JUMPDEST PUSH0 JUMPDEST DUP3 DUP2 LT ISZERO PUSH2 0xCF9 JUMPI DUP5 DUP10 ADD MLOAD DUP3 SSTORE PUSH1 0x1 DUP3 ADD SWAP2 POP PUSH1 0x20 DUP6 ADD SWAP5 POP PUSH1 0x20 DUP2 ADD SWAP1 POP PUSH2 0xCD4 JUMP JUMPDEST DUP7 DUP4 LT ISZERO PUSH2 0xD16 JUMPI DUP5 DUP10 ADD MLOAD PUSH2 0xD12 PUSH1 0x1F DUP10 AND DUP3 PUSH2 0xC25 JUMP JUMPDEST DUP4 SSTORE POP JUMPDEST PUSH1 0x1 PUSH1 0x2 DUP9 MUL ADD DUP9 SSTORE POP POP POP JUMPDEST POP POP POP POP POP POP JUMP JUMPDEST PUSH0 DUP2 SWAP1 POP SWAP3 SWAP2 POP POP JUMP JUMPDEST PUSH0 PUSH2 0xD3F DUP3 PUSH2 0x9C8 JUMP JUMPDEST PUSH2 0xD49 DUP2 DUP6 PUSH2 0xD2B JUMP JUMPDEST SWAP4 POP PUSH2 0xD59 DUP2 DUP6 PUSH1 0x20 DUP7 ADD PUSH2 0x8EC JUMP JUMPDEST DUP1 DUP5 ADD SWAP2 POP POP SWAP3 SWAP2 POP POP JUMP JUMPDEST PUSH0 PUSH2 0xD70 DUP3 DUP5 PUSH2 0xD35 JUMP JUMPDEST SWAP2 POP DUP2 SWAP1 POP SWAP3 SWAP2 POP POP JUMP JUMPDEST PUSH0 DUP2 SLOAD PUSH2 0xD87 DUP2 PUSH2 0xA8F JUMP JUMPDEST PUSH2 0xD91 DUP2 DUP7 PUSH2 0xD2B JUMP JUMPDEST SWAP5 POP PUSH1 0x1 DUP3 AND PUSH0 DUP2 EQ PUSH2 0xDAB JUMPI PUSH1 0x1 DUP2 EQ PUSH2 0xDC0 JUMPI PUSH2 0xDF2 JUMP JUMPDEST PUSH1 0xFF NOT DUP4 AND DUP7 MSTORE DUP2 ISZERO ISZERO DUP3 MUL DUP7 ADD SWAP4 POP PUSH2 0xDF2 JUMP JUMPDEST PUSH2 0xDC9 DUP6 PUSH2 0xABF JUMP JUMPDEST PUSH0 JUMPDEST DUP4 DUP2 LT ISZERO PUSH2 0xDEA JUMPI DUP2 SLOAD DUP2 DUP10 ADD MSTORE PUSH1 0x1 DUP3 ADD SWAP2 POP PUSH1 0x20 DUP2 ADD SWAP1 POP PUSH2 0xDCB JUMP JUMPDEST DUP4 DUP9 ADD SWAP6 POP POP POP JUMPDEST POP POP POP SWAP3 SWAP2 POP POP JUMP JUMPDEST PUSH0 PUSH2 0xE06 DUP3 DUP5 PUSH2 0xD7B JUMP JUMPDEST SWAP2 POP DUP2 SWAP1 POP SWAP3 SWAP2 POP POP JUMP JUMPDEST PUSH32 0x4E487B7100000000000000000000000000000000000000000000000000000000 PUSH0 MSTORE PUSH1 0x11 PUSH1 0x4 MSTORE PUSH1 0x24 PUSH0 REVERT JUMPDEST PUSH0 PUSH2 0xE48 DUP3 PUSH2 0x994 JUMP JUMPDEST SWAP2 POP PUSH1 0xFF DUP3 SUB PUSH2 0xE5B JUMPI PUSH2 0xE5A PUSH2 0xE11 JUMP JUMPDEST JUMPDEST PUSH1 0x1 DUP3 ADD SWAP1 POP SWAP2 SWAP1 POP JUMP INVALID LOG2 PUSH5 0x6970667358 0x22 SLT KECCAK256 PUSH1 0x1B PC SGT PUSH20 0xEEC96717ACD8E5421397F2421F0D68D127539828 PUSH22 0x72A97B0D8CD664736F6C634300081600330000000000 "
				},
				"gasEstimates": {
					"creation": {
						"codeDepositCost": "748000",
						"executionCost": "infinite",
						"totalCost": "infinite"
					},
					"external": {
						"compareStrings(string)": "infinite",
						"decreaseNumber()": "24405",
						"getBytesSize()": "2630",
						"getUserAddressBalance()": "5095",
						"increaseUint8()": "26783",
						"intNumberValue()": "2471",
						"isTrue()": "2487",
						"myBytes()": "infinite",
						"number()": "2470",
						"setIsTrue(bool)": "24740",
						"setNumber(uint256)": "22538",
						"setStr(string)": "infinite",
						"setUserAddress(address)": "24783",
						"str()": "infinite",
						"uint8Value()": "2533",
						"userAddress()": "2552"
					}
				},
				"methodIdentifiers": {
					"compareStrings(string)": "4f86f506",
					"decreaseNumber()": "772f8390",
					"getBytesSize()": "e7bcd88f",
					"getUserAddressBalance()": "cbee0760",
					"increaseUint8()": "ecbbb967",
					"intNumberValue()": "0189c9bd",
					"isTrue()": "0074530a",
					"myBytes()": "712f4602",
					"number()": "8381f58a",
					"setIsTrue(bool)": "5a4a58cc",
					"setNumber(uint256)": "3fb5c1cb",
					"setStr(string)": "191347df",
					"setUserAddress(address)": "0aa56434",
					"str()": "c15bae84",
					"uint8Value()": "aaef20ea",
					"userAddress()": "e4128fb3"
				}
			},
			"storageLayout": {
				"storage": [
					{
						"astId": 4,
						"contract": "contracts/data-type.sol:DataType",
						"label": "isTrue",
						"offset": 0,
						"slot": "0",
						"type": "t_bool"
					},
					{
						"astId": 7,
						"contract": "contracts/data-type.sol:DataType",
						"label": "number",
						"offset": 0,
						"slot": "1",
						"type": "t_uint256"
					},
					{
						"astId": 10,
						"contract": "contracts/data-type.sol:DataType",
						"label": "uint8Value",
						"offset": 0,
						"slot": "2",
						"type": "t_uint8"
					},
					{
						"astId": 14,
						"contract": "contracts/data-type.sol:DataType",
						"label": "intNumberValue",
						"offset": 0,
						"slot": "3",
						"type": "t_int256"
					},
					{
						"astId": 17,
						"contract": "contracts/data-type.sol:DataType",
						"label": "str",
						"offset": 0,
						"slot": "4",
						"type": "t_string_storage"
					},
					{
						"astId": 20,
						"contract": "contracts/data-type.sol:DataType",
						"label": "myBytes",
						"offset": 0,
						"slot": "5",
						"type": "t_bytes_storage"
					},
					{
						"astId": 22,
						"contract": "contracts/data-type.sol:DataType",
						"label": "userAddress",
						"offset": 0,
						"slot": "6",
						"type": "t_address"
					}
				],
				"types": {
					"t_address": {
						"encoding": "inplace",
						"label": "address",
						"numberOfBytes": "20"
					},
					"t_bool": {
						"encoding": "inplace",
						"label": "bool",
						"numberOfBytes": "1"
					},
					"t_bytes_storage": {
						"encoding": "bytes",
						"label": "bytes",
						"numberOfBytes": "32"
					},
					"t_int256": {
						"encoding": "inplace",
						"label": "int256",
						"numberOfBytes": "32"
					},
					"t_string_storage": {
						"encoding": "bytes",
						"label": "string",
						"numberOfBytes": "32"
					},
					"t_uint256": {
						"encoding": "inplace",
						"label": "uint256",
						"numberOfBytes": "32"
					},
					"t_uint8": {
						"encoding": "inplace",
						"label": "uint8",
						"numberOfBytes": "1"
					}
				}
			},
			"userdoc": {
				"kind": "user",
				"methods": {},
				"version": 1
			}
		}
	}
}