{
	"data": {
		"bytecode": {
			"linkReferences": {},
			"object": "60806040525f805f6101000a81548160ff0219169083151502179055505f60015560fa60025f6101000a81548160ff021916908360ff1602179055507ffffffffffffffffffffffffffffffffffffffffffffffffffffffffffffffff66003556040518060400160405280600e81526020017f48656c6c6f20536f6c696469747900000000000000000000000000000000000081525060049081620000a5919062000364565b506040518060400160405280600e81526020017f48656c6c6f20536f6c696469747900000000000000000000000000000000000081525060059081620000ec9190620004aa565b50348015620000f9575f80fd5b506200058e565b5f81519050919050565b7f4e487b71000000000000000000000000000000000000000000000000000000005f52604160045260245ffd5b7f4e487b71000000000000000000000000000000000000000000000000000000005f52602260045260245ffd5b5f60028204905060018216806200017c57607f821691505b60208210810362000192576200019162000137565b5b50919050565b5f819050815f5260205f209050919050565b5f6020601f8301049050919050565b5f82821b905092915050565b5f60088302620001f67fffffffffffffffffffffffffffffffffffffffffffffffffffffffffffffffff82620001b9565b620002028683620001b9565b95508019841693508086168417925050509392505050565b5f819050919050565b5f819050919050565b5f6200024c6200024662000240846200021a565b62000223565b6200021a565b9050919050565b5f819050919050565b62000267836200022c565b6200027f620002768262000253565b848454620001c5565b825550505050565b5f90565b6200029562000287565b620002a28184846200025c565b505050565b5b81811015620002c957620002bd5f826200028b565b600181019050620002a8565b5050565b601f8211156200031857620002e28162000198565b620002ed84620001aa565b81016020851015620002fd578190505b620003156200030c85620001aa565b830182620002a7565b50505b505050565b5f82821c905092915050565b5f6200033a5f19846008026200031d565b1980831691505092915050565b5f62000354838362000329565b9150826002028217905092915050565b6200036f8262000100565b67ffffffffffffffff8111156200038b576200038a6200010a565b5b62000397825462000164565b620003a4828285620002cd565b5f60209050601f831160018114620003da575f8415620003c5578287015190505b620003d1858262000347565b86555062000440565b601f198416620003ea8662000198565b5f5b828110156200041357848901518255600182019150602085019450602081019050620003ec565b868310156200043357848901516200042f601f89168262000329565b8355505b6001600288020188555050505b505050505050565b5f819050815f5260205f209050919050565b601f821115620004a5576200046f8162000448565b6200047a84620001aa565b810160208510156200048a578190505b620004a26200049985620001aa565b830182620002a7565b50505b505050565b620004b58262000100565b67ffffffffffffffff811115620004d157620004d06200010a565b5b620004dd825462000164565b620004ea8282856200045a565b5f60209050601f83116001811462000520575f84156200050b578287015190505b62000517858262000347565b86555062000586565b601f198416620005308662000448565b5f5b82811015620005595784890151825560018201915060208501945060208101905062000532565b8683101562000579578489015162000575601f89168262000329565b8355505b6001600288020188555050505b505050505050565b610f5d806200059c5f395ff3fe608060405234801561000f575f80fd5b5060043610610108575f3560e01c8063712f4602116100a0578063c15bae841161006f578063c15bae841461027c578063cbee07601461029a578063e4128fb3146102b8578063e7bcd88f146102d6578063ecbbb967146102f457610108565b8063712f460214610218578063772f8390146102365780638381f58a14610240578063aaef20ea1461025e57610108565b8063191347df116100dc578063191347df146101945780633fb5c1cb146101b05780634f86f506146101cc5780635a4a58cc146101fc57610108565b806274530a1461010c5780630189c9bd1461012a57806308b9e850146101485780630aa5643414610178575b5f80fd5b6101146102fe565b604051610121919061060c565b60405180910390f35b61013261030e565b60405161013f919061063d565b60405180910390f35b610162600480360381019061015d919061069a565b610314565b60405161016f91906106e7565b60405180910390f35b610192600480360381019061018d919061075a565b610329565b005b6101ae60048036038101906101a991906108c1565b61036c565b005b6101ca60048036038101906101c59190610908565b61037f565b005b6101e660048036038101906101e191906108c1565b610389565b6040516101f3919061060c565b60405180910390f35b6102166004803603810190610211919061095d565b6103e1565b005b6102206103fc565b60405161022d9190610a02565b60405180910390f35b61023e610488565b005b61024861049c565b60405161025591906106e7565b60405180910390f35b6102666104a2565b6040516102739190610a3d565b60405180910390f35b6102846104b4565b6040516102919190610aa8565b60405180910390f35b6102a2610540565b6040516102af91906106e7565b60405180910390f35b6102c061057f565b6040516102cd9190610ad7565b60405180910390f35b6102de6105a4565b6040516102eb91906106e7565b60405180910390f35b6102fc6105b9565b005b5f8054906101000a900460ff1681565b60035481565b5f81836103219190610b1d565b905092915050565b8060065f6101000a81548173ffffffffffffffffffffffffffffffffffffffff021916908373ffffffffffffffffffffffffffffffffffffffff16021790555050565b806004908161037b9190610d4a565b5050565b8060018190555050565b5f8160405160200161039b9190610e53565b6040516020818303038152906040528051906020012060046040516020016103c39190610ee9565b60405160208183030381529060405280519060200120149050919050565b805f806101000a81548160ff02191690831515021790555050565b6005805461040990610b7d565b80601f016020809104026020016040519081016040528092919081815260200182805461043590610b7d565b80156104805780601f1061045757610100808354040283529160200191610480565b820191905f5260205f20905b81548152906001019060200180831161046357829003601f168201915b505050505081565b60015f815480929190600190039190505550565b60015481565b60025f9054906101000a900460ff1681565b600480546104c190610b7d565b80601f01602080910402602001604051908101604052809291908181526020018280546104ed90610b7d565b80156105385780601f1061050f57610100808354040283529160200191610538565b820191905f5260205f20905b81548152906001019060200180831161051b57829003601f168201915b505050505081565b5f60065f9054906101000a900473ffffffffffffffffffffffffffffffffffffffff1673ffffffffffffffffffffffffffffffffffffffff1631905090565b60065f9054906101000a900473ffffffffffffffffffffffffffffffffffffffff1681565b5f600580546105b290610b7d565b9050905090565b60025f81819054906101000a900460ff16809291906105d790610eff565b91906101000a81548160ff021916908360ff16021790555050565b5f8115159050919050565b610606816105f2565b82525050565b5f60208201905061061f5f8301846105fd565b92915050565b5f819050919050565b61063781610625565b82525050565b5f6020820190506106505f83018461062e565b92915050565b5f604051905090565b5f80fd5b5f80fd5b5f819050919050565b61067981610667565b8114610683575f80fd5b50565b5f8135905061069481610670565b92915050565b5f80604083850312156106b0576106af61065f565b5b5f6106bd85828601610686565b92505060206106ce85828601610686565b9150509250929050565b6106e181610667565b82525050565b5f6020820190506106fa5f8301846106d8565b92915050565b5f73ffffffffffffffffffffffffffffffffffffffff82169050919050565b5f61072982610700565b9050919050565b6107398161071f565b8114610743575f80fd5b50565b5f8135905061075481610730565b92915050565b5f6020828403121561076f5761076e61065f565b5b5f61077c84828501610746565b91505092915050565b5f80fd5b5f80fd5b5f601f19601f8301169050919050565b7f4e487b71000000000000000000000000000000000000000000000000000000005f52604160045260245ffd5b6107d38261078d565b810181811067ffffffffffffffff821117156107f2576107f161079d565b5b80604052505050565b5f610804610656565b905061081082826107ca565b919050565b5f67ffffffffffffffff82111561082f5761082e61079d565b5b6108388261078d565b9050602081019050919050565b828183375f83830152505050565b5f61086561086084610815565b6107fb565b90508281526020810184848401111561088157610880610789565b5b61088c848285610845565b509392505050565b5f82601f8301126108a8576108a7610785565b5b81356108b8848260208601610853565b91505092915050565b5f602082840312156108d6576108d561065f565b5b5f82013567ffffffffffffffff8111156108f3576108f2610663565b5b6108ff84828501610894565b91505092915050565b5f6020828403121561091d5761091c61065f565b5b5f61092a84828501610686565b91505092915050565b61093c816105f2565b8114610946575f80fd5b50565b5f8135905061095781610933565b92915050565b5f602082840312156109725761097161065f565b5b5f61097f84828501610949565b91505092915050565b5f81519050919050565b5f82825260208201905092915050565b5f5b838110156109bf5780820151818401526020810190506109a4565b5f8484015250505050565b5f6109d482610988565b6109de8185610992565b93506109ee8185602086016109a2565b6109f78161078d565b840191505092915050565b5f6020820190508181035f830152610a1a81846109ca565b905092915050565b5f60ff82169050919050565b610a3781610a22565b82525050565b5f602082019050610a505f830184610a2e565b92915050565b5f81519050919050565b5f82825260208201905092915050565b5f610a7a82610a56565b610a848185610a60565b9350610a948185602086016109a2565b610a9d8161078d565b840191505092915050565b5f6020820190508181035f830152610ac08184610a70565b905092915050565b610ad18161071f565b82525050565b5f602082019050610aea5f830184610ac8565b92915050565b7f4e487b71000000000000000000000000000000000000000000000000000000005f52601160045260245ffd5b5f610b2782610667565b9150610b3283610667565b9250828201905080821115610b4a57610b49610af0565b5b92915050565b7f4e487b71000000000000000000000000000000000000000000000000000000005f52602260045260245ffd5b5f6002820490506001821680610b9457607f821691505b602082108103610ba757610ba6610b50565b5b50919050565b5f819050815f5260205f209050919050565b5f6020601f8301049050919050565b5f82821b905092915050565b5f60088302610c097fffffffffffffffffffffffffffffffffffffffffffffffffffffffffffffffff82610bce565b610c138683610bce565b95508019841693508086168417925050509392505050565b5f819050919050565b5f610c4e610c49610c4484610667565b610c2b565b610667565b9050919050565b5f819050919050565b610c6783610c34565b610c7b610c7382610c55565b848454610bda565b825550505050565b5f90565b610c8f610c83565b610c9a818484610c5e565b505050565b5b81811015610cbd57610cb25f82610c87565b600181019050610ca0565b5050565b601f821115610d0257610cd381610bad565b610cdc84610bbf565b81016020851015610ceb578190505b610cff610cf785610bbf565b830182610c9f565b50505b505050565b5f82821c905092915050565b5f610d225f1984600802610d07565b1980831691505092915050565b5f610d3a8383610d13565b9150826002028217905092915050565b610d5382610a56565b67ffffffffffffffff811115610d6c57610d6b61079d565b5b610d768254610b7d565b610d81828285610cc1565b5f60209050601f831160018114610db2575f8415610da0578287015190505b610daa8582610d2f565b865550610e11565b601f198416610dc086610bad565b5f5b82811015610de757848901518255600182019150602085019450602081019050610dc2565b86831015610e045784890151610e00601f891682610d13565b8355505b6001600288020188555050505b505050505050565b5f81905092915050565b5f610e2d82610a56565b610e378185610e19565b9350610e478185602086016109a2565b80840191505092915050565b5f610e5e8284610e23565b915081905092915050565b5f8154610e7581610b7d565b610e7f8186610e19565b9450600182165f8114610e995760018114610eae57610ee0565b60ff1983168652811515820286019350610ee0565b610eb785610bad565b5f5b83811015610ed857815481890152600182019150602081019050610eb9565b838801955050505b50505092915050565b5f610ef48284610e69565b915081905092915050565b5f610f0982610a22565b915060ff8203610f1c57610f1b610af0565b5b60018201905091905056fea264697066735822122093a969cd3847629323d502303f00fc08c5a45356ef29996a7c76c05288101a9b64736f6c63430008160033",
			"opcodes": "PUSH1 0x80 PUSH1 0x40 MSTORE PUSH0 DUP1 PUSH0 PUSH2 0x100 EXP DUP2 SLOAD DUP2 PUSH1 0xFF MUL NOT AND SWAP1 DUP4 ISZERO ISZERO MUL OR SWAP1 SSTORE POP PUSH0 PUSH1 0x1 SSTORE PUSH1 0xFA PUSH1 0x2 PUSH0 PUSH2 0x100 EXP DUP2 SLOAD DUP2 PUSH1 0xFF MUL NOT AND SWAP1 DUP4 PUSH1 0xFF AND MUL OR SWAP1 SSTORE POP PUSH32 0xFFFFFFFFFFFFFFFFFFFFFFFFFFFFFFFFFFFFFFFFFFFFFFFFFFFFFFFFFFFFFFF6 PUSH1 0x3 SSTORE PUSH1 0x40 MLOAD DUP1 PUSH1 0x40 ADD PUSH1 0x40 MSTORE DUP1 PUSH1 0xE DUP2 MSTORE PUSH1 0x20 ADD PUSH32 0x48656C6C6F20536F6C6964697479000000000000000000000000000000000000 DUP2 MSTORE POP PUSH1 0x4 SWAP1 DUP2 PUSH3 0xA5 SWAP2 SWAP1 PUSH3 0x364 JUMP JUMPDEST POP PUSH1 0x40 MLOAD DUP1 PUSH1 0x40 ADD PUSH1 0x40 MSTORE DUP1 PUSH1 0xE DUP2 MSTORE PUSH1 0x20 ADD PUSH32 0x48656C6C6F20536F6C6964697479000000000000000000000000000000000000 DUP2 MSTORE POP PUSH1 0x5 SWAP1 DUP2 PUSH3 0xEC SWAP2 SWAP1 PUSH3 0x4AA JUMP JUMPDEST POP CALLVALUE DUP1 ISZERO PUSH3 0xF9 JUMPI PUSH0 DUP1 REVERT JUMPDEST POP PUSH3 0x58E JUMP JUMPDEST PUSH0 DUP2 MLOAD SWAP1 POP SWAP2 SWAP1 POP JUMP JUMPDEST PUSH32 0x4E487B7100000000000000000000000000000000000000000000000000000000 PUSH0 MSTORE PUSH1 0x41 PUSH1 0x4 MSTORE PUSH1 0x24 PUSH0 REVERT JUMPDEST PUSH32 0x4E487B7100000000000000000000000000000000000000000000000000000000 PUSH0 MSTORE PUSH1 0x22 PUSH1 0x4 MSTORE PUSH1 0x24 PUSH0 REVERT JUMPDEST PUSH0 PUSH1 0x2 DUP3 DIV SWAP1 POP PUSH1 0x1 DUP3 AND DUP1 PUSH3 0x17C JUMPI PUSH1 0x7F DUP3 AND SWAP2 POP JUMPDEST PUSH1 0x20 DUP3 LT DUP2 SUB PUSH3 0x192 JUMPI PUSH3 0x191 PUSH3 0x137 JUMP JUMPDEST JUMPDEST POP SWAP2 SWAP1 POP JUMP JUMPDEST PUSH0 DUP2 SWAP1 POP DUP2 PUSH0 MSTORE PUSH1 0x20 PUSH0 KECCAK256 SWAP1 POP SWAP2 SWAP1 POP JUMP JUMPDEST PUSH0 PUSH1 0x20 PUSH1 0x1F DUP4 ADD DIV SWAP1 POP SWAP2 SWAP1 POP JUMP JUMPDEST PUSH0 DUP3 DUP3 SHL SWAP1 POP SWAP3 SWAP2 POP POP JUMP JUMPDEST PUSH0 PUSH1 0x8 DUP4 MUL PUSH3 0x1F6 PUSH32 0xFFFFFFFFFFFFFFFFFFFFFFFFFFFFFFFFFFFFFFFFFFFFFFFFFFFFFFFFFFFFFFFF DUP3 PUSH3 0x1B9 JUMP JUMPDEST PUSH3 0x202 DUP7 DUP4 PUSH3 0x1B9 JUMP JUMPDEST SWAP6 POP DUP1 NOT DUP5 AND SWAP4 POP DUP1 DUP7 AND DUP5 OR SWAP3 POP POP POP SWAP4 SWAP3 POP POP POP JUMP JUMPDEST PUSH0 DUP2 SWAP1 POP SWAP2 SWAP1 POP JUMP JUMPDEST PUSH0 DUP2 SWAP1 POP SWAP2 SWAP1 POP JUMP JUMPDEST PUSH0 PUSH3 0x24C PUSH3 0x246 PUSH3 0x240 DUP5 PUSH3 0x21A JUMP JUMPDEST PUSH3 0x223 JUMP JUMPDEST PUSH3 0x21A JUMP JUMPDEST SWAP1 POP SWAP2 SWAP1 POP JUMP JUMPDEST PUSH0 DUP2 SWAP1 POP SWAP2 SWAP1 POP JUMP JUMPDEST PUSH3 0x267 DUP4 PUSH3 0x22C JUMP JUMPDEST PUSH3 0x27F PUSH3 0x276 DUP3 PUSH3 0x253 JUMP JUMPDEST DUP5 DUP5 SLOAD PUSH3 0x1C5 JUMP JUMPDEST DUP3 SSTORE POP POP POP POP JUMP JUMPDEST PUSH0 SWAP1 JUMP JUMPDEST PUSH3 0x295 PUSH3 0x287 JUMP JUMPDEST PUSH3 0x2A2 DUP2 DUP5 DUP5 PUSH3 0x25C JUMP JUMPDEST POP POP POP JUMP JUMPDEST JUMPDEST DUP2 DUP2 LT ISZERO PUSH3 0x2C9 JUMPI PUSH3 0x2BD PUSH0 DUP3 PUSH3 0x28B JUMP JUMPDEST PUSH1 0x1 DUP2 ADD SWAP1 POP PUSH3 0x2A8 JUMP JUMPDEST POP POP JUMP JUMPDEST PUSH1 0x1F DUP3 GT ISZERO PUSH3 0x318 JUMPI PUSH3 0x2E2 DUP2 PUSH3 0x198 JUMP JUMPDEST PUSH3 0x2ED DUP5 PUSH3 0x1AA JUMP JUMPDEST DUP2 ADD PUSH1 0x20 DUP6 LT ISZERO PUSH3 0x2FD JUMPI DUP2 SWAP1 POP JUMPDEST PUSH3 0x315 PUSH3 0x30C DUP6 PUSH3 0x1AA JUMP JUMPDEST DUP4 ADD DUP3 PUSH3 0x2A7 JUMP JUMPDEST POP POP JUMPDEST POP POP POP JUMP JUMPDEST PUSH0 DUP3 DUP3 SHR SWAP1 POP SWAP3 SWAP2 POP POP JUMP JUMPDEST PUSH0 PUSH3 0x33A PUSH0 NOT DUP5 PUSH1 0x8 MUL PUSH3 0x31D JUMP JUMPDEST NOT DUP1 DUP4 AND SWAP2 POP POP SWAP3 SWAP2 POP POP JUMP JUMPDEST PUSH0 PUSH3 0x354 DUP4 DUP4 PUSH3 0x329 JUMP JUMPDEST SWAP2 POP DUP3 PUSH1 0x2 MUL DUP3 OR SWAP1 POP SWAP3 SWAP2 POP POP JUMP JUMPDEST PUSH3 0x36F DUP3 PUSH3 0x100 JUMP JUMPDEST PUSH8 0xFFFFFFFFFFFFFFFF DUP2 GT ISZERO PUSH3 0x38B JUMPI PUSH3 0x38A PUSH3 0x10A JUMP JUMPDEST JUMPDEST PUSH3 0x397 DUP3 SLOAD PUSH3 0x164 JUMP JUMPDEST PUSH3 0x3A4 DUP3 DUP3 DUP6 PUSH3 0x2CD JUMP JUMPDEST PUSH0 PUSH1 0x20 SWAP1 POP PUSH1 0x1F DUP4 GT PUSH1 0x1 DUP2 EQ PUSH3 0x3DA JUMPI PUSH0 DUP5 ISZERO PUSH3 0x3C5 JUMPI DUP3 DUP8 ADD MLOAD SWAP1 POP JUMPDEST PUSH3 0x3D1 DUP6 DUP3 PUSH3 0x347 JUMP JUMPDEST DUP7 SSTORE POP PUSH3 0x440 JUMP JUMPDEST PUSH1 0x1F NOT DUP5 AND PUSH3 0x3EA DUP7 PUSH3 0x198 JUMP JUMPDEST PUSH0 JUMPDEST DUP3 DUP2 LT ISZERO PUSH3 0x413 JUMPI DUP5 DUP10 ADD MLOAD DUP3 SSTORE PUSH1 0x1 DUP3 ADD SWAP2 POP PUSH1 0x20 DUP6 ADD SWAP5 POP PUSH1 0x20 DUP2 ADD SWAP1 POP PUSH3 0x3EC JUMP JUMPDEST DUP7 DUP4 LT ISZERO PUSH3 0x433 JUMPI DUP5 DUP10 ADD MLOAD PUSH3 0x42F PUSH1 0x1F DUP10 AND DUP3 PUSH3 0x329 JUMP JUMPDEST DUP4 SSTORE POP JUMPDEST PUSH1 0x1 PUSH1 0x2 DUP9 MUL ADD DUP9 SSTORE POP POP POP JUMPDEST POP POP POP POP POP POP JUMP JUMPDEST PUSH0 DUP2 SWAP1 POP DUP2 PUSH0 MSTORE PUSH1 0x20 PUSH0 KECCAK256 SWAP1 POP SWAP2 SWAP1 POP JUMP JUMPDEST PUSH1 0x1F DUP3 GT ISZERO PUSH3 0x4A5 JUMPI PUSH3 0x46F DUP2 PUSH3 0x448 JUMP JUMPDEST PUSH3 0x47A DUP5 PUSH3 0x1AA JUMP JUMPDEST DUP2 ADD PUSH1 0x20 DUP6 LT ISZERO PUSH3 0x48A JUMPI DUP2 SWAP1 POP JUMPDEST PUSH3 0x4A2 PUSH3 0x499 DUP6 PUSH3 0x1AA JUMP JUMPDEST DUP4 ADD DUP3 PUSH3 0x2A7 JUMP JUMPDEST POP POP JUMPDEST POP POP POP JUMP JUMPDEST PUSH3 0x4B5 DUP3 PUSH3 0x100 JUMP JUMPDEST PUSH8 0xFFFFFFFFFFFFFFFF DUP2 GT ISZERO PUSH3 0x4D1 JUMPI PUSH3 0x4D0 PUSH3 0x10A JUMP JUMPDEST JUMPDEST PUSH3 0x4DD DUP3 SLOAD PUSH3 0x164 JUMP JUMPDEST PUSH3 0x4EA DUP3 DUP3 DUP6 PUSH3 0x45A JUMP JUMPDEST PUSH0 PUSH1 0x20 SWAP1 POP PUSH1 0x1F DUP4 GT PUSH1 0x1 DUP2 EQ PUSH3 0x520 JUMPI PUSH0 DUP5 ISZERO PUSH3 0x50B JUMPI DUP3 DUP8 ADD MLOAD SWAP1 POP JUMPDEST PUSH3 0x517 DUP6 DUP3 PUSH3 0x347 JUMP JUMPDEST DUP7 SSTORE POP PUSH3 0x586 JUMP JUMPDEST PUSH1 0x1F NOT DUP5 AND PUSH3 0x530 DUP7 PUSH3 0x448 JUMP JUMPDEST PUSH0 JUMPDEST DUP3 DUP2 LT ISZERO PUSH3 0x559 JUMPI DUP5 DUP10 ADD MLOAD DUP3 SSTORE PUSH1 0x1 DUP3 ADD SWAP2 POP PUSH1 0x20 DUP6 ADD SWAP5 POP PUSH1 0x20 DUP2 ADD SWAP1 POP PUSH3 0x532 JUMP JUMPDEST DUP7 DUP4 LT ISZERO PUSH3 0x579 JUMPI DUP5 DUP10 ADD MLOAD PUSH3 0x575 PUSH1 0x1F DUP10 AND DUP3 PUSH3 0x329 JUMP JUMPDEST DUP4 SSTORE POP JUMPDEST PUSH1 0x1 PUSH1 0x2 DUP9 MUL ADD DUP9 SSTORE POP POP POP JUMPDEST POP POP POP POP POP POP JUMP JUMPDEST PUSH2 0xF5D DUP1 PUSH3 0x59C PUSH0 CODECOPY PUSH0 RETURN INVALID PUSH1 0x80 PUSH1 0x40 MSTORE CALLVALUE DUP1 ISZERO PUSH2 0xF JUMPI PUSH0 DUP1 REVERT JUMPDEST POP PUSH1 0x4 CALLDATASIZE LT PUSH2 0x108 JUMPI PUSH0 CALLDATALOAD PUSH1 0xE0 SHR DUP1 PUSH4 0x712F4602 GT PUSH2 0xA0 JUMPI DUP1 PUSH4 0xC15BAE84 GT PUSH2 0x6F JUMPI DUP1 PUSH4 0xC15BAE84 EQ PUSH2 0x27C JUMPI DUP1 PUSH4 0xCBEE0760 EQ PUSH2 0x29A JUMPI DUP1 PUSH4 0xE4128FB3 EQ PUSH2 0x2B8 JUMPI DUP1 PUSH4 0xE7BCD88F EQ PUSH2 0x2D6 JUMPI DUP1 PUSH4 0xECBBB967 EQ PUSH2 0x2F4 JUMPI PUSH2 0x108 JUMP JUMPDEST DUP1 PUSH4 0x712F4602 EQ PUSH2 0x218 JUMPI DUP1 PUSH4 0x772F8390 EQ PUSH2 0x236 JUMPI DUP1 PUSH4 0x8381F58A EQ PUSH2 0x240 JUMPI DUP1 PUSH4 0xAAEF20EA EQ PUSH2 0x25E JUMPI PUSH2 0x108 JUMP JUMPDEST DUP1 PUSH4 0x191347DF GT PUSH2 0xDC JUMPI DUP1 PUSH4 0x191347DF EQ PUSH2 0x194 JUMPI DUP1 PUSH4 0x3FB5C1CB EQ PUSH2 0x1B0 JUMPI DUP1 PUSH4 0x4F86F506 EQ PUSH2 0x1CC JUMPI DUP1 PUSH4 0x5A4A58CC EQ PUSH2 0x1FC JUMPI PUSH2 0x108 JUMP JUMPDEST DUP1 PUSH3 0x74530A EQ PUSH2 0x10C JUMPI DUP1 PUSH4 0x189C9BD EQ PUSH2 0x12A JUMPI DUP1 PUSH4 0x8B9E850 EQ PUSH2 0x148 JUMPI DUP1 PUSH4 0xAA56434 EQ PUSH2 0x178 JUMPI JUMPDEST PUSH0 DUP1 REVERT JUMPDEST PUSH2 0x114 PUSH2 0x2FE JUMP JUMPDEST PUSH1 0x40 MLOAD PUSH2 0x121 SWAP2 SWAP1 PUSH2 0x60C JUMP JUMPDEST PUSH1 0x40 MLOAD DUP1 SWAP2 SUB SWAP1 RETURN JUMPDEST PUSH2 0x132 PUSH2 0x30E JUMP JUMPDEST PUSH1 0x40 MLOAD PUSH2 0x13F SWAP2 SWAP1 PUSH2 0x63D JUMP JUMPDEST PUSH1 0x40 MLOAD DUP1 SWAP2 SUB SWAP1 RETURN JUMPDEST PUSH2 0x162 PUSH1 0x4 DUP1 CALLDATASIZE SUB DUP2 ADD SWAP1 PUSH2 0x15D SWAP2 SWAP1 PUSH2 0x69A JUMP JUMPDEST PUSH2 0x314 JUMP JUMPDEST PUSH1 0x40 MLOAD PUSH2 0x16F SWAP2 SWAP1 PUSH2 0x6E7 JUMP JUMPDEST PUSH1 0x40 MLOAD DUP1 SWAP2 SUB SWAP1 RETURN JUMPDEST PUSH2 0x192 PUSH1 0x4 DUP1 CALLDATASIZE SUB DUP2 ADD SWAP1 PUSH2 0x18D SWAP2 SWAP1 PUSH2 0x75A JUMP JUMPDEST PUSH2 0x329 JUMP JUMPDEST STOP JUMPDEST PUSH2 0x1AE PUSH1 0x4 DUP1 CALLDATASIZE SUB DUP2 ADD SWAP1 PUSH2 0x1A9 SWAP2 SWAP1 PUSH2 0x8C1 JUMP JUMPDEST PUSH2 0x36C JUMP JUMPDEST STOP JUMPDEST PUSH2 0x1CA PUSH1 0x4 DUP1 CALLDATASIZE SUB DUP2 ADD SWAP1 PUSH2 0x1C5 SWAP2 SWAP1 PUSH2 0x908 JUMP JUMPDEST PUSH2 0x37F JUMP JUMPDEST STOP JUMPDEST PUSH2 0x1E6 PUSH1 0x4 DUP1 CALLDATASIZE SUB DUP2 ADD SWAP1 PUSH2 0x1E1 SWAP2 SWAP1 PUSH2 0x8C1 JUMP JUMPDEST PUSH2 0x389 JUMP JUMPDEST PUSH1 0x40 MLOAD PUSH2 0x1F3 SWAP2 SWAP1 PUSH2 0x60C JUMP JUMPDEST PUSH1 0x40 MLOAD DUP1 SWAP2 SUB SWAP1 RETURN JUMPDEST PUSH2 0x216 PUSH1 0x4 DUP1 CALLDATASIZE SUB DUP2 ADD SWAP1 PUSH2 0x211 SWAP2 SWAP1 PUSH2 0x95D JUMP JUMPDEST PUSH2 0x3E1 JUMP JUMPDEST STOP JUMPDEST PUSH2 0x220 PUSH2 0x3FC JUMP JUMPDEST PUSH1 0x40 MLOAD PUSH2 0x22D SWAP2 SWAP1 PUSH2 0xA02 JUMP JUMPDEST PUSH1 0x40 MLOAD DUP1 SWAP2 SUB SWAP1 RETURN JUMPDEST PUSH2 0x23E PUSH2 0x488 JUMP JUMPDEST STOP JUMPDEST PUSH2 0x248 PUSH2 0x49C JUMP JUMPDEST PUSH1 0x40 MLOAD PUSH2 0x255 SWAP2 SWAP1 PUSH2 0x6E7 JUMP JUMPDEST PUSH1 0x40 MLOAD DUP1 SWAP2 SUB SWAP1 RETURN JUMPDEST PUSH2 0x266 PUSH2 0x4A2 JUMP JUMPDEST PUSH1 0x40 MLOAD PUSH2 0x273 SWAP2 SWAP1 PUSH2 0xA3D JUMP JUMPDEST PUSH1 0x40 MLOAD DUP1 SWAP2 SUB SWAP1 RETURN JUMPDEST PUSH2 0x284 PUSH2 0x4B4 JUMP JUMPDEST PUSH1 0x40 MLOAD PUSH2 0x291 SWAP2 SWAP1 PUSH2 0xAA8 JUMP JUMPDEST PUSH1 0x40 MLOAD DUP1 SWAP2 SUB SWAP1 RETURN JUMPDEST PUSH2 0x2A2 PUSH2 0x540 JUMP JUMPDEST PUSH1 0x40 MLOAD PUSH2 0x2AF SWAP2 SWAP1 PUSH2 0x6E7 JUMP JUMPDEST PUSH1 0x40 MLOAD DUP1 SWAP2 SUB SWAP1 RETURN JUMPDEST PUSH2 0x2C0 PUSH2 0x57F JUMP JUMPDEST PUSH1 0x40 MLOAD PUSH2 0x2CD SWAP2 SWAP1 PUSH2 0xAD7 JUMP JUMPDEST PUSH1 0x40 MLOAD DUP1 SWAP2 SUB SWAP1 RETURN JUMPDEST PUSH2 0x2DE PUSH2 0x5A4 JUMP JUMPDEST PUSH1 0x40 MLOAD PUSH2 0x2EB SWAP2 SWAP1 PUSH2 0x6E7 JUMP JUMPDEST PUSH1 0x40 MLOAD DUP1 SWAP2 SUB SWAP1 RETURN JUMPDEST PUSH2 0x2FC PUSH2 0x5B9 JUMP JUMPDEST STOP JUMPDEST PUSH0 DUP1 SLOAD SWAP1 PUSH2 0x100 EXP SWAP1 DIV PUSH1 0xFF AND DUP2 JUMP JUMPDEST PUSH1 0x3 SLOAD DUP2 JUMP JUMPDEST PUSH0 DUP2 DUP4 PUSH2 0x321 SWAP2 SWAP1 PUSH2 0xB1D JUMP JUMPDEST SWAP1 POP SWAP3 SWAP2 POP POP JUMP JUMPDEST DUP1 PUSH1 0x6 PUSH0 PUSH2 0x100 EXP DUP2 SLOAD DUP2 PUSH20 0xFFFFFFFFFFFFFFFFFFFFFFFFFFFFFFFFFFFFFFFF MUL NOT AND SWAP1 DUP4 PUSH20 0xFFFFFFFFFFFFFFFFFFFFFFFFFFFFFFFFFFFFFFFF AND MUL OR SWAP1 SSTORE POP POP JUMP JUMPDEST DUP1 PUSH1 0x4 SWAP1 DUP2 PUSH2 0x37B SWAP2 SWAP1 PUSH2 0xD4A JUMP JUMPDEST POP POP JUMP JUMPDEST DUP1 PUSH1 0x1 DUP2 SWAP1 SSTORE POP POP JUMP JUMPDEST PUSH0 DUP2 PUSH1 0x40 MLOAD PUSH1 0x20 ADD PUSH2 0x39B SWAP2 SWAP1 PUSH2 0xE53 JUMP JUMPDEST PUSH1 0x40 MLOAD PUSH1 0x20 DUP2 DUP4 SUB SUB DUP2 MSTORE SWAP1 PUSH1 0x40 MSTORE DUP1 MLOAD SWAP1 PUSH1 0x20 ADD KECCAK256 PUSH1 0x4 PUSH1 0x40 MLOAD PUSH1 0x20 ADD PUSH2 0x3C3 SWAP2 SWAP1 PUSH2 0xEE9 JUMP JUMPDEST PUSH1 0x40 MLOAD PUSH1 0x20 DUP2 DUP4 SUB SUB DUP2 MSTORE SWAP1 PUSH1 0x40 MSTORE DUP1 MLOAD SWAP1 PUSH1 0x20 ADD KECCAK256 EQ SWAP1 POP SWAP2 SWAP1 POP JUMP JUMPDEST DUP1 PUSH0 DUP1 PUSH2 0x100 EXP DUP2 SLOAD DUP2 PUSH1 0xFF MUL NOT AND SWAP1 DUP4 ISZERO ISZERO MUL OR SWAP1 SSTORE POP POP JUMP JUMPDEST PUSH1 0x5 DUP1 SLOAD PUSH2 0x409 SWAP1 PUSH2 0xB7D JUMP JUMPDEST DUP1 PUSH1 0x1F ADD PUSH1 0x20 DUP1 SWAP2 DIV MUL PUSH1 0x20 ADD PUSH1 0x40 MLOAD SWAP1 DUP2 ADD PUSH1 0x40 MSTORE DUP1 SWAP3 SWAP2 SWAP1 DUP2 DUP2 MSTORE PUSH1 0x20 ADD DUP3 DUP1 SLOAD PUSH2 0x435 SWAP1 PUSH2 0xB7D JUMP JUMPDEST DUP1 ISZERO PUSH2 0x480 JUMPI DUP1 PUSH1 0x1F LT PUSH2 0x457 JUMPI PUSH2 0x100 DUP1 DUP4 SLOAD DIV MUL DUP4 MSTORE SWAP2 PUSH1 0x20 ADD SWAP2 PUSH2 0x480 JUMP JUMPDEST DUP3 ADD SWAP2 SWAP1 PUSH0 MSTORE PUSH1 0x20 PUSH0 KECCAK256 SWAP1 JUMPDEST DUP2 SLOAD DUP2 MSTORE SWAP1 PUSH1 0x1 ADD SWAP1 PUSH1 0x20 ADD DUP1 DUP4 GT PUSH2 0x463 JUMPI DUP3 SWAP1 SUB PUSH1 0x1F AND DUP3 ADD SWAP2 JUMPDEST POP POP POP POP POP DUP2 JUMP JUMPDEST PUSH1 0x1 PUSH0 DUP2 SLOAD DUP1 SWAP3 SWAP2 SWAP1 PUSH1 0x1 SWAP1 SUB SWAP2 SWAP1 POP SSTORE POP JUMP JUMPDEST PUSH1 0x1 SLOAD DUP2 JUMP JUMPDEST PUSH1 0x2 PUSH0 SWAP1 SLOAD SWAP1 PUSH2 0x100 EXP SWAP1 DIV PUSH1 0xFF AND DUP2 JUMP JUMPDEST PUSH1 0x4 DUP1 SLOAD PUSH2 0x4C1 SWAP1 PUSH2 0xB7D JUMP JUMPDEST DUP1 PUSH1 0x1F ADD PUSH1 0x20 DUP1 SWAP2 DIV MUL PUSH1 0x20 ADD PUSH1 0x40 MLOAD SWAP1 DUP2 ADD PUSH1 0x40 MSTORE DUP1 SWAP3 SWAP2 SWAP1 DUP2 DUP2 MSTORE PUSH1 0x20 ADD DUP3 DUP1 SLOAD PUSH2 0x4ED SWAP1 PUSH2 0xB7D JUMP JUMPDEST DUP1 ISZERO PUSH2 0x538 JUMPI DUP1 PUSH1 0x1F LT PUSH2 0x50F JUMPI PUSH2 0x100 DUP1 DUP4 SLOAD DIV MUL DUP4 MSTORE SWAP2 PUSH1 0x20 ADD SWAP2 PUSH2 0x538 JUMP JUMPDEST DUP3 ADD SWAP2 SWAP1 PUSH0 MSTORE PUSH1 0x20 PUSH0 KECCAK256 SWAP1 JUMPDEST DUP2 SLOAD DUP2 MSTORE SWAP1 PUSH1 0x1 ADD SWAP1 PUSH1 0x20 ADD DUP1 DUP4 GT PUSH2 0x51B JUMPI DUP3 SWAP1 SUB PUSH1 0x1F AND DUP3 ADD SWAP2 JUMPDEST POP POP POP POP POP DUP2 JUMP JUMPDEST PUSH0 PUSH1 0x6 PUSH0 SWAP1 SLOAD SWAP1 PUSH2 0x100 EXP SWAP1 DIV PUSH20 0xFFFFFFFFFFFFFFFFFFFFFFFFFFFFFFFFFFFFFFFF AND PUSH20 0xFFFFFFFFFFFFFFFFFFFFFFFFFFFFFFFFFFFFFFFF AND BALANCE SWAP1 POP SWAP1 JUMP JUMPDEST PUSH1 0x6 PUSH0 SWAP1 SLOAD SWAP1 PUSH2 0x100 EXP SWAP1 DIV PUSH20 0xFFFFFFFFFFFFFFFFFFFFFFFFFFFFFFFFFFFFFFFF AND DUP2 JUMP JUMPDEST PUSH0 PUSH1 0x5 DUP1 SLOAD PUSH2 0x5B2 SWAP1 PUSH2 0xB7D JUMP JUMPDEST SWAP1 POP SWAP1 POP SWAP1 JUMP JUMPDEST PUSH1 0x2 PUSH0 DUP2 DUP2 SWAP1 SLOAD SWAP1 PUSH2 0x100 EXP SWAP1 DIV PUSH1 0xFF AND DUP1 SWAP3 SWAP2 SWAP1 PUSH2 0x5D7 SWAP1 PUSH2 0xEFF JUMP JUMPDEST SWAP2 SWAP1 PUSH2 0x100 EXP DUP2 SLOAD DUP2 PUSH1 0xFF MUL NOT AND SWAP1 DUP4 PUSH1 0xFF AND MUL OR SWAP1 SSTORE POP POP JUMP JUMPDEST PUSH0 DUP2 ISZERO ISZERO SWAP1 POP SWAP2 SWAP1 POP JUMP JUMPDEST PUSH2 0x606 DUP2 PUSH2 0x5F2 JUMP JUMPDEST DUP3 MSTORE POP POP JUMP JUMPDEST PUSH0 PUSH1 0x20 DUP3 ADD SWAP1 POP PUSH2 0x61F PUSH0 DUP4 ADD DUP5 PUSH2 0x5FD JUMP JUMPDEST SWAP3 SWAP2 POP POP JUMP JUMPDEST PUSH0 DUP2 SWAP1 POP SWAP2 SWAP1 POP JUMP JUMPDEST PUSH2 0x637 DUP2 PUSH2 0x625 JUMP JUMPDEST DUP3 MSTORE POP POP JUMP JUMPDEST PUSH0 PUSH1 0x20 DUP3 ADD SWAP1 POP PUSH2 0x650 PUSH0 DUP4 ADD DUP5 PUSH2 0x62E JUMP JUMPDEST SWAP3 SWAP2 POP POP JUMP JUMPDEST PUSH0 PUSH1 0x40 MLOAD SWAP1 POP SWAP1 JUMP JUMPDEST PUSH0 DUP1 REVERT JUMPDEST PUSH0 DUP1 REVERT JUMPDEST PUSH0 DUP2 SWAP1 POP SWAP2 SWAP1 POP JUMP JUMPDEST PUSH2 0x679 DUP2 PUSH2 0x667 JUMP JUMPDEST DUP2 EQ PUSH2 0x683 JUMPI PUSH0 DUP1 REVERT JUMPDEST POP JUMP JUMPDEST PUSH0 DUP2 CALLDATALOAD SWAP1 POP PUSH2 0x694 DUP2 PUSH2 0x670 JUMP JUMPDEST SWAP3 SWAP2 POP POP JUMP JUMPDEST PUSH0 DUP1 PUSH1 0x40 DUP4 DUP6 SUB SLT ISZERO PUSH2 0x6B0 JUMPI PUSH2 0x6AF PUSH2 0x65F JUMP JUMPDEST JUMPDEST PUSH0 PUSH2 0x6BD DUP6 DUP3 DUP7 ADD PUSH2 0x686 JUMP JUMPDEST SWAP3 POP POP PUSH1 0x20 PUSH2 0x6CE DUP6 DUP3 DUP7 ADD PUSH2 0x686 JUMP JUMPDEST SWAP2 POP POP SWAP3 POP SWAP3 SWAP1 POP JUMP JUMPDEST PUSH2 0x6E1 DUP2 PUSH2 0x667 JUMP JUMPDEST DUP3 MSTORE POP POP JUMP JUMPDEST PUSH0 PUSH1 0x20 DUP3 ADD SWAP1 POP PUSH2 0x6FA PUSH0 DUP4 ADD DUP5 PUSH2 0x6D8 JUMP JUMPDEST SWAP3 SWAP2 POP POP JUMP JUMPDEST PUSH0 PUSH20 0xFFFFFFFFFFFFFFFFFFFFFFFFFFFFFFFFFFFFFFFF DUP3 AND SWAP1 POP SWAP2 SWAP1 POP JUMP JUMPDEST PUSH0 PUSH2 0x729 DUP3 PUSH2 0x700 JUMP JUMPDEST SWAP1 POP SWAP2 SWAP1 POP JUMP JUMPDEST PUSH2 0x739 DUP2 PUSH2 0x71F JUMP JUMPDEST DUP2 EQ PUSH2 0x743 JUMPI PUSH0 DUP1 REVERT JUMPDEST POP JUMP JUMPDEST PUSH0 DUP2 CALLDATALOAD SWAP1 POP PUSH2 0x754 DUP2 PUSH2 0x730 JUMP JUMPDEST SWAP3 SWAP2 POP POP JUMP JUMPDEST PUSH0 PUSH1 0x20 DUP3 DUP5 SUB SLT ISZERO PUSH2 0x76F JUMPI PUSH2 0x76E PUSH2 0x65F JUMP JUMPDEST JUMPDEST PUSH0 PUSH2 0x77C DUP5 DUP3 DUP6 ADD PUSH2 0x746 JUMP JUMPDEST SWAP2 POP POP SWAP3 SWAP2 POP POP JUMP JUMPDEST PUSH0 DUP1 REVERT JUMPDEST PUSH0 DUP1 REVERT JUMPDEST PUSH0 PUSH1 0x1F NOT PUSH1 0x1F DUP4 ADD AND SWAP1 POP SWAP2 SWAP1 POP JUMP JUMPDEST PUSH32 0x4E487B7100000000000000000000000000000000000000000000000000000000 PUSH0 MSTORE PUSH1 0x41 PUSH1 0x4 MSTORE PUSH1 0x24 PUSH0 REVERT JUMPDEST PUSH2 0x7D3 DUP3 PUSH2 0x78D JUMP JUMPDEST DUP2 ADD DUP2 DUP2 LT PUSH8 0xFFFFFFFFFFFFFFFF DUP3 GT OR ISZERO PUSH2 0x7F2 JUMPI PUSH2 0x7F1 PUSH2 0x79D JUMP JUMPDEST JUMPDEST DUP1 PUSH1 0x40 MSTORE POP POP POP JUMP JUMPDEST PUSH0 PUSH2 0x804 PUSH2 0x656 JUMP JUMPDEST SWAP1 POP PUSH2 0x810 DUP3 DUP3 PUSH2 0x7CA JUMP JUMPDEST SWAP2 SWAP1 POP JUMP JUMPDEST PUSH0 PUSH8 0xFFFFFFFFFFFFFFFF DUP3 GT ISZERO PUSH2 0x82F JUMPI PUSH2 0x82E PUSH2 0x79D JUMP JUMPDEST JUMPDEST PUSH2 0x838 DUP3 PUSH2 0x78D JUMP JUMPDEST SWAP1 POP PUSH1 0x20 DUP2 ADD SWAP1 POP SWAP2 SWAP1 POP JUMP JUMPDEST DUP3 DUP2 DUP4 CALLDATACOPY PUSH0 DUP4 DUP4 ADD MSTORE POP POP POP JUMP JUMPDEST PUSH0 PUSH2 0x865 PUSH2 0x860 DUP5 PUSH2 0x815 JUMP JUMPDEST PUSH2 0x7FB JUMP JUMPDEST SWAP1 POP DUP3 DUP2 MSTORE PUSH1 0x20 DUP2 ADD DUP5 DUP5 DUP5 ADD GT ISZERO PUSH2 0x881 JUMPI PUSH2 0x880 PUSH2 0x789 JUMP JUMPDEST JUMPDEST PUSH2 0x88C DUP5 DUP3 DUP6 PUSH2 0x845 JUMP JUMPDEST POP SWAP4 SWAP3 POP POP POP JUMP JUMPDEST PUSH0 DUP3 PUSH1 0x1F DUP4 ADD SLT PUSH2 0x8A8 JUMPI PUSH2 0x8A7 PUSH2 0x785 JUMP JUMPDEST JUMPDEST DUP2 CALLDATALOAD PUSH2 0x8B8 DUP5 DUP3 PUSH1 0x20 DUP7 ADD PUSH2 0x853 JUMP JUMPDEST SWAP2 POP POP SWAP3 SWAP2 POP POP JUMP JUMPDEST PUSH0 PUSH1 0x20 DUP3 DUP5 SUB SLT ISZERO PUSH2 0x8D6 JUMPI PUSH2 0x8D5 PUSH2 0x65F JUMP JUMPDEST JUMPDEST PUSH0 DUP3 ADD CALLDATALOAD PUSH8 0xFFFFFFFFFFFFFFFF DUP2 GT ISZERO PUSH2 0x8F3 JUMPI PUSH2 0x8F2 PUSH2 0x663 JUMP JUMPDEST JUMPDEST PUSH2 0x8FF DUP5 DUP3 DUP6 ADD PUSH2 0x894 JUMP JUMPDEST SWAP2 POP POP SWAP3 SWAP2 POP POP JUMP JUMPDEST PUSH0 PUSH1 0x20 DUP3 DUP5 SUB SLT ISZERO PUSH2 0x91D JUMPI PUSH2 0x91C PUSH2 0x65F JUMP JUMPDEST JUMPDEST PUSH0 PUSH2 0x92A DUP5 DUP3 DUP6 ADD PUSH2 0x686 JUMP JUMPDEST SWAP2 POP POP SWAP3 SWAP2 POP POP JUMP JUMPDEST PUSH2 0x93C DUP2 PUSH2 0x5F2 JUMP JUMPDEST DUP2 EQ PUSH2 0x946 JUMPI PUSH0 DUP1 REVERT JUMPDEST POP JUMP JUMPDEST PUSH0 DUP2 CALLDATALOAD SWAP1 POP PUSH2 0x957 DUP2 PUSH2 0x933 JUMP JUMPDEST SWAP3 SWAP2 POP POP JUMP JUMPDEST PUSH0 PUSH1 0x20 DUP3 DUP5 SUB SLT ISZERO PUSH2 0x972 JUMPI PUSH2 0x971 PUSH2 0x65F JUMP JUMPDEST JUMPDEST PUSH0 PUSH2 0x97F DUP5 DUP3 DUP6 ADD PUSH2 0x949 JUMP JUMPDEST SWAP2 POP POP SWAP3 SWAP2 POP POP JUMP JUMPDEST PUSH0 DUP2 MLOAD SWAP1 POP SWAP2 SWAP1 POP JUMP JUMPDEST PUSH0 DUP3 DUP3 MSTORE PUSH1 0x20 DUP3 ADD SWAP1 POP SWAP3 SWAP2 POP POP JUMP JUMPDEST PUSH0 JUMPDEST DUP4 DUP2 LT ISZERO PUSH2 0x9BF JUMPI DUP1 DUP3 ADD MLOAD DUP2 DUP5 ADD MSTORE PUSH1 0x20 DUP2 ADD SWAP1 POP PUSH2 0x9A4 JUMP JUMPDEST PUSH0 DUP5 DUP5 ADD MSTORE POP POP POP POP JUMP JUMPDEST PUSH0 PUSH2 0x9D4 DUP3 PUSH2 0x988 JUMP JUMPDEST PUSH2 0x9DE DUP2 DUP6 PUSH2 0x992 JUMP JUMPDEST SWAP4 POP PUSH2 0x9EE DUP2 DUP6 PUSH1 0x20 DUP7 ADD PUSH2 0x9A2 JUMP JUMPDEST PUSH2 0x9F7 DUP2 PUSH2 0x78D JUMP JUMPDEST DUP5 ADD SWAP2 POP POP SWAP3 SWAP2 POP POP JUMP JUMPDEST PUSH0 PUSH1 0x20 DUP3 ADD SWAP1 POP DUP2 DUP2 SUB PUSH0 DUP4 ADD MSTORE PUSH2 0xA1A DUP2 DUP5 PUSH2 0x9CA JUMP JUMPDEST SWAP1 POP SWAP3 SWAP2 POP POP JUMP JUMPDEST PUSH0 PUSH1 0xFF DUP3 AND SWAP1 POP SWAP2 SWAP1 POP JUMP JUMPDEST PUSH2 0xA37 DUP2 PUSH2 0xA22 JUMP JUMPDEST DUP3 MSTORE POP POP JUMP JUMPDEST PUSH0 PUSH1 0x20 DUP3 ADD SWAP1 POP PUSH2 0xA50 PUSH0 DUP4 ADD DUP5 PUSH2 0xA2E JUMP JUMPDEST SWAP3 SWAP2 POP POP JUMP JUMPDEST PUSH0 DUP2 MLOAD SWAP1 POP SWAP2 SWAP1 POP JUMP JUMPDEST PUSH0 DUP3 DUP3 MSTORE PUSH1 0x20 DUP3 ADD SWAP1 POP SWAP3 SWAP2 POP POP JUMP JUMPDEST PUSH0 PUSH2 0xA7A DUP3 PUSH2 0xA56 JUMP JUMPDEST PUSH2 0xA84 DUP2 DUP6 PUSH2 0xA60 JUMP JUMPDEST SWAP4 POP PUSH2 0xA94 DUP2 DUP6 PUSH1 0x20 DUP7 ADD PUSH2 0x9A2 JUMP JUMPDEST PUSH2 0xA9D DUP2 PUSH2 0x78D JUMP JUMPDEST DUP5 ADD SWAP2 POP POP SWAP3 SWAP2 POP POP JUMP JUMPDEST PUSH0 PUSH1 0x20 DUP3 ADD SWAP1 POP DUP2 DUP2 SUB PUSH0 DUP4 ADD MSTORE PUSH2 0xAC0 DUP2 DUP5 PUSH2 0xA70 JUMP JUMPDEST SWAP1 POP SWAP3 SWAP2 POP POP JUMP JUMPDEST PUSH2 0xAD1 DUP2 PUSH2 0x71F JUMP JUMPDEST DUP3 MSTORE POP POP JUMP JUMPDEST PUSH0 PUSH1 0x20 DUP3 ADD SWAP1 POP PUSH2 0xAEA PUSH0 DUP4 ADD DUP5 PUSH2 0xAC8 JUMP JUMPDEST SWAP3 SWAP2 POP POP JUMP JUMPDEST PUSH32 0x4E487B7100000000000000000000000000000000000000000000000000000000 PUSH0 MSTORE PUSH1 0x11 PUSH1 0x4 MSTORE PUSH1 0x24 PUSH0 REVERT JUMPDEST PUSH0 PUSH2 0xB27 DUP3 PUSH2 0x667 JUMP JUMPDEST SWAP2 POP PUSH2 0xB32 DUP4 PUSH2 0x667 JUMP JUMPDEST SWAP3 POP DUP3 DUP3 ADD SWAP1 POP DUP1 DUP3 GT ISZERO PUSH2 0xB4A JUMPI PUSH2 0xB49 PUSH2 0xAF0 JUMP JUMPDEST JUMPDEST SWAP3 SWAP2 POP POP JUMP JUMPDEST PUSH32 0x4E487B7100000000000000000000000000000000000000000000000000000000 PUSH0 MSTORE PUSH1 0x22 PUSH1 0x4 MSTORE PUSH1 0x24 PUSH0 REVERT JUMPDEST PUSH0 PUSH1 0x2 DUP3 DIV SWAP1 POP PUSH1 0x1 DUP3 AND DUP1 PUSH2 0xB94 JUMPI PUSH1 0x7F DUP3 AND SWAP2 POP JUMPDEST PUSH1 0x20 DUP3 LT DUP2 SUB PUSH2 0xBA7 JUMPI PUSH2 0xBA6 PUSH2 0xB50 JUMP JUMPDEST JUMPDEST POP SWAP2 SWAP1 POP JUMP JUMPDEST PUSH0 DUP2 SWAP1 POP DUP2 PUSH0 MSTORE PUSH1 0x20 PUSH0 KECCAK256 SWAP1 POP SWAP2 SWAP1 POP JUMP JUMPDEST PUSH0 PUSH1 0x20 PUSH1 0x1F DUP4 ADD DIV SWAP1 POP SWAP2 SWAP1 POP JUMP JUMPDEST PUSH0 DUP3 DUP3 SHL SWAP1 POP SWAP3 SWAP2 POP POP JUMP JUMPDEST PUSH0 PUSH1 0x8 DUP4 MUL PUSH2 0xC09 PUSH32 0xFFFFFFFFFFFFFFFFFFFFFFFFFFFFFFFFFFFFFFFFFFFFFFFFFFFFFFFFFFFFFFFF DUP3 PUSH2 0xBCE JUMP JUMPDEST PUSH2 0xC13 DUP7 DUP4 PUSH2 0xBCE JUMP JUMPDEST SWAP6 POP DUP1 NOT DUP5 AND SWAP4 POP DUP1 DUP7 AND DUP5 OR SWAP3 POP POP POP SWAP4 SWAP3 POP POP POP JUMP JUMPDEST PUSH0 DUP2 SWAP1 POP SWAP2 SWAP1 POP JUMP JUMPDEST PUSH0 PUSH2 0xC4E PUSH2 0xC49 PUSH2 0xC44 DUP5 PUSH2 0x667 JUMP JUMPDEST PUSH2 0xC2B JUMP JUMPDEST PUSH2 0x667 JUMP JUMPDEST SWAP1 POP SWAP2 SWAP1 POP JUMP JUMPDEST PUSH0 DUP2 SWAP1 POP SWAP2 SWAP1 POP JUMP JUMPDEST PUSH2 0xC67 DUP4 PUSH2 0xC34 JUMP JUMPDEST PUSH2 0xC7B PUSH2 0xC73 DUP3 PUSH2 0xC55 JUMP JUMPDEST DUP5 DUP5 SLOAD PUSH2 0xBDA JUMP JUMPDEST DUP3 SSTORE POP POP POP POP JUMP JUMPDEST PUSH0 SWAP1 JUMP JUMPDEST PUSH2 0xC8F PUSH2 0xC83 JUMP JUMPDEST PUSH2 0xC9A DUP2 DUP5 DUP5 PUSH2 0xC5E JUMP JUMPDEST POP POP POP JUMP JUMPDEST JUMPDEST DUP2 DUP2 LT ISZERO PUSH2 0xCBD JUMPI PUSH2 0xCB2 PUSH0 DUP3 PUSH2 0xC87 JUMP JUMPDEST PUSH1 0x1 DUP2 ADD SWAP1 POP PUSH2 0xCA0 JUMP JUMPDEST POP POP JUMP JUMPDEST PUSH1 0x1F DUP3 GT ISZERO PUSH2 0xD02 JUMPI PUSH2 0xCD3 DUP2 PUSH2 0xBAD JUMP JUMPDEST PUSH2 0xCDC DUP5 PUSH2 0xBBF JUMP JUMPDEST DUP2 ADD PUSH1 0x20 DUP6 LT ISZERO PUSH2 0xCEB JUMPI DUP2 SWAP1 POP JUMPDEST PUSH2 0xCFF PUSH2 0xCF7 DUP6 PUSH2 0xBBF JUMP JUMPDEST DUP4 ADD DUP3 PUSH2 0xC9F JUMP JUMPDEST POP POP JUMPDEST POP POP POP JUMP JUMPDEST PUSH0 DUP3 DUP3 SHR SWAP1 POP SWAP3 SWAP2 POP POP JUMP JUMPDEST PUSH0 PUSH2 0xD22 PUSH0 NOT DUP5 PUSH1 0x8 MUL PUSH2 0xD07 JUMP JUMPDEST NOT DUP1 DUP4 AND SWAP2 POP POP SWAP3 SWAP2 POP POP JUMP JUMPDEST PUSH0 PUSH2 0xD3A DUP4 DUP4 PUSH2 0xD13 JUMP JUMPDEST SWAP2 POP DUP3 PUSH1 0x2 MUL DUP3 OR SWAP1 POP SWAP3 SWAP2 POP POP JUMP JUMPDEST PUSH2 0xD53 DUP3 PUSH2 0xA56 JUMP JUMPDEST PUSH8 0xFFFFFFFFFFFFFFFF DUP2 GT ISZERO PUSH2 0xD6C JUMPI PUSH2 0xD6B PUSH2 0x79D JUMP JUMPDEST JUMPDEST PUSH2 0xD76 DUP3 SLOAD PUSH2 0xB7D JUMP JUMPDEST PUSH2 0xD81 DUP3 DUP3 DUP6 PUSH2 0xCC1 JUMP JUMPDEST PUSH0 PUSH1 0x20 SWAP1 POP PUSH1 0x1F DUP4 GT PUSH1 0x1 DUP2 EQ PUSH2 0xDB2 JUMPI PUSH0 DUP5 ISZERO PUSH2 0xDA0 JUMPI DUP3 DUP8 ADD MLOAD SWAP1 POP JUMPDEST PUSH2 0xDAA DUP6 DUP3 PUSH2 0xD2F JUMP JUMPDEST DUP7 SSTORE POP PUSH2 0xE11 JUMP JUMPDEST PUSH1 0x1F NOT DUP5 AND PUSH2 0xDC0 DUP7 PUSH2 0xBAD JUMP JUMPDEST PUSH0 JUMPDEST DUP3 DUP2 LT ISZERO PUSH2 0xDE7 JUMPI DUP5 DUP10 ADD MLOAD DUP3 SSTORE PUSH1 0x1 DUP3 ADD SWAP2 POP PUSH1 0x20 DUP6 ADD SWAP5 POP PUSH1 0x20 DUP2 ADD SWAP1 POP PUSH2 0xDC2 JUMP JUMPDEST DUP7 DUP4 LT ISZERO PUSH2 0xE04 JUMPI DUP5 DUP10 ADD MLOAD PUSH2 0xE00 PUSH1 0x1F DUP10 AND DUP3 PUSH2 0xD13 JUMP JUMPDEST DUP4 SSTORE POP JUMPDEST PUSH1 0x1 PUSH1 0x2 DUP9 MUL ADD DUP9 SSTORE POP POP POP JUMPDEST POP POP POP POP POP POP JUMP JUMPDEST PUSH0 DUP2 SWAP1 POP SWAP3 SWAP2 POP POP JUMP JUMPDEST PUSH0 PUSH2 0xE2D DUP3 PUSH2 0xA56 JUMP JUMPDEST PUSH2 0xE37 DUP2 DUP6 PUSH2 0xE19 JUMP JUMPDEST SWAP4 POP PUSH2 0xE47 DUP2 DUP6 PUSH1 0x20 DUP7 ADD PUSH2 0x9A2 JUMP JUMPDEST DUP1 DUP5 ADD SWAP2 POP POP SWAP3 SWAP2 POP POP JUMP JUMPDEST PUSH0 PUSH2 0xE5E DUP3 DUP5 PUSH2 0xE23 JUMP JUMPDEST SWAP2 POP DUP2 SWAP1 POP SWAP3 SWAP2 POP POP JUMP JUMPDEST PUSH0 DUP2 SLOAD PUSH2 0xE75 DUP2 PUSH2 0xB7D JUMP JUMPDEST PUSH2 0xE7F DUP2 DUP7 PUSH2 0xE19 JUMP JUMPDEST SWAP5 POP PUSH1 0x1 DUP3 AND PUSH0 DUP2 EQ PUSH2 0xE99 JUMPI PUSH1 0x1 DUP2 EQ PUSH2 0xEAE JUMPI PUSH2 0xEE0 JUMP JUMPDEST PUSH1 0xFF NOT DUP4 AND DUP7 MSTORE DUP2 ISZERO ISZERO DUP3 MUL DUP7 ADD SWAP4 POP PUSH2 0xEE0 JUMP JUMPDEST PUSH2 0xEB7 DUP6 PUSH2 0xBAD JUMP JUMPDEST PUSH0 JUMPDEST DUP4 DUP2 LT ISZERO PUSH2 0xED8 JUMPI DUP2 SLOAD DUP2 DUP10 ADD MSTORE PUSH1 0x1 DUP3 ADD SWAP2 POP PUSH1 0x20 DUP2 ADD SWAP1 POP PUSH2 0xEB9 JUMP JUMPDEST DUP4 DUP9 ADD SWAP6 POP POP POP JUMPDEST POP POP POP SWAP3 SWAP2 POP POP JUMP JUMPDEST PUSH0 PUSH2 0xEF4 DUP3 DUP5 PUSH2 0xE69 JUMP JUMPDEST SWAP2 POP DUP2 SWAP1 POP SWAP3 SWAP2 POP POP JUMP JUMPDEST PUSH0 PUSH2 0xF09 DUP3 PUSH2 0xA22 JUMP JUMPDEST SWAP2 POP PUSH1 0xFF DUP3 SUB PUSH2 0xF1C JUMPI PUSH2 0xF1B PUSH2 0xAF0 JUMP JUMPDEST JUMPDEST PUSH1 0x1 DUP3 ADD SWAP1 POP SWAP2 SWAP1 POP JUMP INVALID LOG2 PUSH5 0x6970667358 0x22 SLT KECCAK256 SWAP4 0xA9 PUSH10 0xCD3847629323D502303F STOP 0xFC ADDMOD 0xC5 LOG4 MSTORE8 JUMP 0xEF 0x29 SWAP10 PUSH11 0x7C76C05288101A9B64736F PUSH13 0x63430008160033000000000000 "
		},
		"gasEstimates": {
			"creation": {
				"codeDepositCost": "786600",
				"executionCost": "infinite",
				"totalCost": "infinite"
			},
			"external": {
				"compareStrings(string)": "infinite",
				"decreaseNumber()": "24427",
				"getAddition(uint256,uint256)": "infinite",
				"getBytesSize()": "2652",
				"getUserAddressBalance()": "5117",
				"increaseUint8()": "26805",
				"intNumberValue()": "2471",
				"isTrue()": "2487",
				"myBytes()": "infinite",
				"number()": "2492",
				"setIsTrue(bool)": "24762",
				"setNumber(uint256)": "22560",
				"setStr(string)": "infinite",
				"setUserAddress(address)": "24805",
				"str()": "infinite",
				"uint8Value()": "2555",
				"userAddress()": "2574"
			}
		},
		"methodIdentifiers": {
			"compareStrings(string)": "4f86f506",
			"decreaseNumber()": "772f8390",
			"getAddition(uint256,uint256)": "08b9e850",
			"getBytesSize()": "e7bcd88f",
			"getUserAddressBalance()": "cbee0760",
			"increaseUint8()": "ecbbb967",
			"intNumberValue()": "0189c9bd",
			"isTrue()": "0074530a",
			"myBytes()": "712f4602",
			"number()": "8381f58a",
			"setIsTrue(bool)": "5a4a58cc",
			"setNumber(uint256)": "3fb5c1cb",
			"setStr(string)": "191347df",
			"setUserAddress(address)": "0aa56434",
			"str()": "c15bae84",
			"uint8Value()": "aaef20ea",
			"userAddress()": "e4128fb3"
		}
	},
	"abi": [
		{
			"inputs": [
				{
					"internalType": "string",
					"name": "_checkString",
					"type": "string"
				}
			],
			"name": "compareStrings",
			"outputs": [
				{
					"internalType": "bool",
					"name": "",
					"type": "bool"
				}
			],
			"stateMutability": "view",
			"type": "function"
		},
		{
			"inputs": [],
			"name": "decreaseNumber",
			"outputs": [],
			"stateMutability": "nonpayable",
			"type": "function"
		},
		{
			"inputs": [
				{
					"internalType": "uint256",
					"name": "a",
					"type": "uint256"
				},
				{
					"internalType": "uint256",
					"name": "b",
					"type": "uint256"
				}
			],
			"name": "getAddition",
			"outputs": [
				{
					"internalType": "uint256",
					"name": "",
					"type": "uint256"
				}
			],
			"stateMutability": "pure",
			"type": "function"
		},
		{
			"inputs": [],
			"name": "getBytesSize",
			"outputs": [
				{
					"internalType": "uint256",
					"name": "",
					"type": "uint256"
				}
			],
			"stateMutability": "view",
			"type": "function"
		},
		{
			"inputs": [],
			"name": "getUserAddressBalance",
			"outputs": [
				{
					"internalType": "uint256",
					"name": "",
					"type": "uint256"
				}
			],
			"stateMutability": "view",
			"type": "function"
		},
		{
			"inputs": [],
			"name": "increaseUint8",
			"outputs": [],
			"stateMutability": "nonpayable",
			"type": "function"
		},
		{
			"inputs": [],
			"name": "intNumberValue",
			"outputs": [
				{
					"internalType": "int256",
					"name": "",
					"type": "int256"
				}
			],
			"stateMutability": "view",
			"type": "function"
		},
		{
			"inputs": [],
			"name": "isTrue",
			"outputs": [
				{
					"internalType": "bool",
					"name": "",
					"type": "bool"
				}
			],
			"stateMutability": "view",
			"type": "function"
		},
		{
			"inputs": [],
			"name": "myBytes",
			"outputs": [
				{
					"internalType": "bytes",
					"name": "",
					"type": "bytes"
				}
			],
			"stateMutability": "view",
			"type": "function"
		},
		{
			"inputs": [],
			"name": "number",
			"outputs": [
				{
					"internalType": "uint256",
					"name": "",
					"type": "uint256"
				}
			],
			"stateMutability": "view",
			"type": "function"
		},
		{
			"inputs": [
				{
					"internalType": "bool",
					"name": "_isTrue",
					"type": "bool"
				}
			],
			"name": "setIsTrue",
			"outputs": [],
			"stateMutability": "nonpayable",
			"type": "function"
		},
		{
			"inputs": [
				{
					"internalType": "uint256",
					"name": "_number",
					"type": "uint256"
				}
			],
			"name": "setNumber",
			"outputs": [],
			"stateMutability": "nonpayable",
			"type": "function"
		},
		{
			"inputs": [
				{
					"internalType": "string",
					"name": "_str",
					"type": "string"
				}
			],
			"name": "setStr",
			"outputs": [],
			"stateMutability": "nonpayable",
			"type": "function"
		},
		{
			"inputs": [
				{
					"internalType": "address",
					"name": "_address",
					"type": "address"
				}
			],
			"name": "setUserAddress",
			"outputs": [],
			"stateMutability": "nonpayable",
			"type": "function"
		},
		{
			"inputs": [],
			"name": "str",
			"outputs": [
				{
					"internalType": "string",
					"name": "",
					"type": "string"
				}
			],
			"stateMutability": "view",
			"type": "function"
		},
		{
			"inputs": [],
			"name": "uint8Value",
			"outputs": [
				{
					"internalType": "uint8",
					"name": "",
					"type": "uint8"
				}
			],
			"stateMutability": "view",
			"type": "function"
		},
		{
			"inputs": [],
			"name": "userAddress",
			"outputs": [
				{
					"internalType": "address",
					"name": "",
					"type": "address"
				}
			],
			"stateMutability": "view",
			"type": "function"
		}
	]
}